{
    "_format": "hh-sol-artifact-1",
    "contractName": "NFT_Marketplacev2",
    "sourceName": "contracts/NFT_MarketplaceV2.sol",
    "abi": [
        {
            "anonymous": false,
            "inputs": [
                {
                    "indexed": true,
                    "internalType": "address",
                    "name": "owner",
                    "type": "address"
                },
                {
                    "indexed": true,
                    "internalType": "address",
                    "name": "approved",
                    "type": "address"
                },
                {
                    "indexed": true,
                    "internalType": "uint256",
                    "name": "tokenId",
                    "type": "uint256"
                }
            ],
            "name": "Approval",
            "type": "event"
        },
        {
            "anonymous": false,
            "inputs": [
                {
                    "indexed": true,
                    "internalType": "address",
                    "name": "owner",
                    "type": "address"
                },
                {
                    "indexed": true,
                    "internalType": "address",
                    "name": "operator",
                    "type": "address"
                },
                {
                    "indexed": false,
                    "internalType": "bool",
                    "name": "approved",
                    "type": "bool"
                }
            ],
            "name": "ApprovalForAll",
            "type": "event"
        },
        {
            "anonymous": false,
            "inputs": [
                {
                    "indexed": false,
                    "internalType": "uint256",
                    "name": "_fromTokenId",
                    "type": "uint256"
                },
                {
                    "indexed": false,
                    "internalType": "uint256",
                    "name": "_toTokenId",
                    "type": "uint256"
                }
            ],
            "name": "BatchMetadataUpdate",
            "type": "event"
        },
        {
            "anonymous": false,
            "inputs": [
                {
                    "indexed": false,
                    "internalType": "uint8",
                    "name": "version",
                    "type": "uint8"
                }
            ],
            "name": "Initialized",
            "type": "event"
        },
        {
            "anonymous": false,
            "inputs": [
                {
                    "indexed": false,
                    "internalType": "uint256",
                    "name": "_tokenId",
                    "type": "uint256"
                }
            ],
            "name": "MetadataUpdate",
            "type": "event"
        },
        {
            "anonymous": false,
            "inputs": [
                {
                    "indexed": true,
                    "internalType": "address",
                    "name": "from",
                    "type": "address"
                },
                {
                    "indexed": true,
                    "internalType": "address",
                    "name": "to",
                    "type": "address"
                },
                {
                    "indexed": true,
                    "internalType": "uint256",
                    "name": "tokenId",
                    "type": "uint256"
                }
            ],
            "name": "Transfer",
            "type": "event"
        },
        {
            "anonymous": false,
            "inputs": [
                {
                    "indexed": true,
                    "internalType": "uint256",
                    "name": "tokenId",
                    "type": "uint256"
                },
                {
                    "indexed": true,
                    "internalType": "address",
                    "name": "seller",
                    "type": "address"
                },
                {
                    "indexed": false,
                    "internalType": "address",
                    "name": "owner",
                    "type": "address"
                },
                {
                    "indexed": true,
                    "internalType": "uint256",
                    "name": "price",
                    "type": "uint256"
                },
                {
                    "indexed": false,
                    "internalType": "bool",
                    "name": "sold",
                    "type": "bool"
                },
                {
                    "indexed": false,
                    "internalType": "string",
                    "name": "link",
                    "type": "string"
                }
            ],
            "name": "idMarketItemCreated",
            "type": "event"
        },
        {
            "inputs": [
                {
                    "internalType": "address",
                    "name": "to",
                    "type": "address"
                },
                {
                    "internalType": "uint256",
                    "name": "tokenId",
                    "type": "uint256"
                }
            ],
            "name": "approve",
            "outputs": [],
            "stateMutability": "nonpayable",
            "type": "function"
        },
        {
            "inputs": [
                {
                    "internalType": "address",
                    "name": "owner",
                    "type": "address"
                }
            ],
            "name": "balanceOf",
            "outputs": [
                {
                    "internalType": "uint256",
                    "name": "",
                    "type": "uint256"
                }
            ],
            "stateMutability": "view",
            "type": "function"
        },
        {
            "inputs": [
                {
                    "internalType": "uint256",
                    "name": "tokenId",
                    "type": "uint256"
                }
            ],
            "name": "createMarketSale",
            "outputs": [],
            "stateMutability": "payable",
            "type": "function"
        },
        {
            "inputs": [
                {
                    "internalType": "string",
                    "name": "tokenURI",
                    "type": "string"
                },
                {
                    "internalType": "uint256",
                    "name": "price",
                    "type": "uint256"
                }
            ],
            "name": "createToken",
            "outputs": [
                {
                    "internalType": "uint256",
                    "name": "",
                    "type": "uint256"
                }
            ],
            "stateMutability": "payable",
            "type": "function"
        },
        {
            "inputs": [],
            "name": "fetchItemsListed",
            "outputs": [
                {
                    "components": [
                        {
                            "internalType": "uint256",
                            "name": "tokenId",
                            "type": "uint256"
                        },
                        {
                            "internalType": "address payable",
                            "name": "seller",
                            "type": "address"
                        },
                        {
                            "internalType": "address payable",
                            "name": "owner",
                            "type": "address"
                        },
                        {
                            "internalType": "uint256",
                            "name": "price",
                            "type": "uint256"
                        },
                        {
                            "internalType": "bool",
                            "name": "sold",
                            "type": "bool"
                        },
                        {
                            "internalType": "string",
                            "name": "link",
                            "type": "string"
                        }
                    ],
                    "internalType": "struct NFT_Marketplacev2.MarketItem[]",
                    "name": "",
                    "type": "tuple[]"
                }
            ],
            "stateMutability": "view",
            "type": "function"
        },
        {
            "inputs": [],
            "name": "fetchMarketItem",
            "outputs": [
                {
                    "components": [
                        {
                            "internalType": "uint256",
                            "name": "tokenId",
                            "type": "uint256"
                        },
                        {
                            "internalType": "address payable",
                            "name": "seller",
                            "type": "address"
                        },
                        {
                            "internalType": "address payable",
                            "name": "owner",
                            "type": "address"
                        },
                        {
                            "internalType": "uint256",
                            "name": "price",
                            "type": "uint256"
                        },
                        {
                            "internalType": "bool",
                            "name": "sold",
                            "type": "bool"
                        },
                        {
                            "internalType": "string",
                            "name": "link",
                            "type": "string"
                        }
                    ],
                    "internalType": "struct NFT_Marketplacev2.MarketItem[]",
                    "name": "",
                    "type": "tuple[]"
                }
            ],
            "stateMutability": "view",
            "type": "function"
        },
        {
            "inputs": [],
            "name": "fetchMyNFT",
            "outputs": [
                {
                    "components": [
                        {
                            "internalType": "uint256",
                            "name": "tokenId",
                            "type": "uint256"
                        },
                        {
                            "internalType": "address payable",
                            "name": "seller",
                            "type": "address"
                        },
                        {
                            "internalType": "address payable",
                            "name": "owner",
                            "type": "address"
                        },
                        {
                            "internalType": "uint256",
                            "name": "price",
                            "type": "uint256"
                        },
                        {
                            "internalType": "bool",
                            "name": "sold",
                            "type": "bool"
                        },
                        {
                            "internalType": "string",
                            "name": "link",
                            "type": "string"
                        }
                    ],
                    "internalType": "struct NFT_Marketplacev2.MarketItem[]",
                    "name": "",
                    "type": "tuple[]"
                }
            ],
            "stateMutability": "view",
            "type": "function"
        },
        {
            "inputs": [
                {
                    "internalType": "uint256",
                    "name": "tokenId",
                    "type": "uint256"
                }
            ],
            "name": "getAllOwners",
            "outputs": [
                {
                    "internalType": "address[]",
                    "name": "",
                    "type": "address[]"
                }
            ],
            "stateMutability": "view",
            "type": "function"
        },
        {
            "inputs": [
                {
                    "internalType": "uint256",
                    "name": "tokenId",
                    "type": "uint256"
                }
            ],
            "name": "getApproved",
            "outputs": [
                {
                    "internalType": "address",
                    "name": "",
                    "type": "address"
                }
            ],
            "stateMutability": "view",
            "type": "function"
        },
        {
            "inputs": [],
            "name": "getContractOwner",
            "outputs": [
                {
                    "internalType": "address payable",
                    "name": "",
                    "type": "address"
                }
            ],
            "stateMutability": "view",
            "type": "function"
        },
        {
            "inputs": [],
            "name": "getListingPrice",
            "outputs": [
                {
                    "internalType": "uint256",
                    "name": "",
                    "type": "uint256"
                }
            ],
            "stateMutability": "view",
            "type": "function"
        },
        {
            "inputs": [
                {
                    "internalType": "uint256",
                    "name": "",
                    "type": "uint256"
                }
            ],
            "name": "idMarketItem",
            "outputs": [
                {
                    "internalType": "uint256",
                    "name": "tokenId",
                    "type": "uint256"
                },
                {
                    "internalType": "address payable",
                    "name": "seller",
                    "type": "address"
                },
                {
                    "internalType": "address payable",
                    "name": "owner",
                    "type": "address"
                },
                {
                    "internalType": "uint256",
                    "name": "price",
                    "type": "uint256"
                },
                {
                    "internalType": "bool",
                    "name": "sold",
                    "type": "bool"
                },
                {
                    "internalType": "string",
                    "name": "link",
                    "type": "string"
                }
            ],
            "stateMutability": "view",
            "type": "function"
        },
        {
            "inputs": [],
            "name": "initialize",
            "outputs": [],
            "stateMutability": "nonpayable",
            "type": "function"
        },
        {
            "inputs": [
                {
                    "internalType": "address",
                    "name": "owner",
                    "type": "address"
                },
                {
                    "internalType": "address",
                    "name": "operator",
                    "type": "address"
                }
            ],
            "name": "isApprovedForAll",
            "outputs": [
                {
                    "internalType": "bool",
                    "name": "",
                    "type": "bool"
                }
            ],
            "stateMutability": "view",
            "type": "function"
        },
        {
            "inputs": [],
            "name": "name",
            "outputs": [
                {
                    "internalType": "string",
                    "name": "",
                    "type": "string"
                }
            ],
            "stateMutability": "view",
            "type": "function"
        },
        {
            "inputs": [
                {
                    "internalType": "uint256",
                    "name": "tokenId",
                    "type": "uint256"
                }
            ],
            "name": "ownerOf",
            "outputs": [
                {
                    "internalType": "address",
                    "name": "",
                    "type": "address"
                }
            ],
            "stateMutability": "view",
            "type": "function"
        },
        {
            "inputs": [
                {
                    "internalType": "uint256",
                    "name": "tokenId",
                    "type": "uint256"
                },
                {
                    "internalType": "uint256",
                    "name": "price",
                    "type": "uint256"
                }
            ],
            "name": "reSellToken",
            "outputs": [],
            "stateMutability": "payable",
            "type": "function"
        },
        {
            "inputs": [
                {
                    "internalType": "address",
                    "name": "from",
                    "type": "address"
                },
                {
                    "internalType": "address",
                    "name": "to",
                    "type": "address"
                },
                {
                    "internalType": "uint256",
                    "name": "tokenId",
                    "type": "uint256"
                }
            ],
            "name": "safeTransferFrom",
            "outputs": [],
            "stateMutability": "nonpayable",
            "type": "function"
        },
        {
            "inputs": [
                {
                    "internalType": "address",
                    "name": "from",
                    "type": "address"
                },
                {
                    "internalType": "address",
                    "name": "to",
                    "type": "address"
                },
                {
                    "internalType": "uint256",
                    "name": "tokenId",
                    "type": "uint256"
                },
                {
                    "internalType": "bytes",
                    "name": "data",
                    "type": "bytes"
                }
            ],
            "name": "safeTransferFrom",
            "outputs": [],
            "stateMutability": "nonpayable",
            "type": "function"
        },
        {
            "inputs": [
                {
                    "internalType": "address",
                    "name": "operator",
                    "type": "address"
                },
                {
                    "internalType": "bool",
                    "name": "approved",
                    "type": "bool"
                }
            ],
            "name": "setApprovalForAll",
            "outputs": [],
            "stateMutability": "nonpayable",
            "type": "function"
        },
        {
            "inputs": [
                {
                    "internalType": "bytes4",
                    "name": "interfaceId",
                    "type": "bytes4"
                }
            ],
            "name": "supportsInterface",
            "outputs": [
                {
                    "internalType": "bool",
                    "name": "",
                    "type": "bool"
                }
            ],
            "stateMutability": "view",
            "type": "function"
        },
        {
            "inputs": [],
            "name": "symbol",
            "outputs": [
                {
                    "internalType": "string",
                    "name": "",
                    "type": "string"
                }
            ],
            "stateMutability": "view",
            "type": "function"
        },
        {
            "inputs": [
                {
                    "internalType": "uint256",
                    "name": "tokenId",
                    "type": "uint256"
                }
            ],
            "name": "tokenURI",
            "outputs": [
                {
                    "internalType": "string",
                    "name": "",
                    "type": "string"
                }
            ],
            "stateMutability": "view",
            "type": "function"
        },
        {
            "inputs": [
                {
                    "internalType": "address",
                    "name": "from",
                    "type": "address"
                },
                {
                    "internalType": "address",
                    "name": "to",
                    "type": "address"
                },
                {
                    "internalType": "uint256",
                    "name": "tokenId",
                    "type": "uint256"
                }
            ],
            "name": "transferFrom",
            "outputs": [],
            "stateMutability": "nonpayable",
            "type": "function"
        },
        {
            "inputs": [
                {
                    "internalType": "uint256",
                    "name": "_listingPrice",
                    "type": "uint256"
                }
            ],
            "name": "updateListingPrice",
            "outputs": [],
            "stateMutability": "payable",
            "type": "function"
        }
    ],
    "bytecode": "0x608060405234801561001057600080fd5b50614cdb806100206000396000f3fe6080604052600436106101665760003560e01c806370a08231116100d1578063a22cb4651161008a578063be9af53611610064578063be9af5361461052c578063c18763f714610548578063c87b56dd14610573578063e985e9c5146105b057610166565b8063a22cb465146104be578063ae677aa3146104e7578063b88d4fde1461050357610166565b806370a08231146103c857806372b3b620146104055780638129fc1c1461043557806385535b251461044c5780638fafd0211461046857806395d89b411461049357610166565b806323b872dd1161012357806323b872dd146102a657806342842e0e146102cf578063442890d5146102f857806345f8fa801461032357806361253a041461034e5780636352211e1461038b57610166565b806301ffc9a71461016b57806306fdde03146101a8578063081812fc146101d3578063087ae8a214610210578063095ea7b31461025257806312e855851461027b575b600080fd5b34801561017757600080fd5b50610192600480360381019061018d9190613476565b6105ed565b60405161019f91906134be565b60405180910390f35b3480156101b457600080fd5b506101bd61064e565b6040516101ca9190613572565b60405180910390f35b3480156101df57600080fd5b506101fa60048036038101906101f591906135ca565b6106e0565b6040516102079190613638565b60405180910390f35b34801561021c57600080fd5b50610237600480360381019061023291906135ca565b610726565b60405161024996959493929190613683565b60405180910390f35b34801561025e57600080fd5b5061027960048036038101906102749190613717565b610837565b005b34801561028757600080fd5b5061029061094f565b60405161029d9190613757565b60405180910390f35b3480156102b257600080fd5b506102cd60048036038101906102c89190613772565b610959565b005b3480156102db57600080fd5b506102f660048036038101906102f19190613772565b6109b9565b005b34801561030457600080fd5b5061030d6109d9565b60405161031a91906137c5565b60405180910390f35b34801561032f57600080fd5b50610338610a03565b60405161034591906139a2565b60405180910390f35b34801561035a57600080fd5b50610375600480360381019061037091906135ca565b610d83565b6040516103829190613a82565b60405180910390f35b34801561039757600080fd5b506103b260048036038101906103ad91906135ca565b610e24565b6040516103bf9190613638565b60405180910390f35b3480156103d457600080fd5b506103ef60048036038101906103ea9190613aa4565b610eab565b6040516103fc9190613757565b60405180910390f35b61041f600480360381019061041a9190613c06565b610f63565b60405161042c9190613757565b60405180910390f35b34801561044157600080fd5b5061044a610fa6565b005b61046660048036038101906104619190613c62565b611184565b005b34801561047457600080fd5b5061047d611379565b60405161048a91906139a2565b60405180910390f35b34801561049f57600080fd5b506104a8611674565b6040516104b59190613572565b60405180910390f35b3480156104ca57600080fd5b506104e560048036038101906104e09190613cce565b611706565b005b61050160048036038101906104fc91906135ca565b61171c565b005b34801561050f57600080fd5b5061052a60048036038101906105259190613daf565b6117b6565b005b610546600480360381019061054191906135ca565b611818565b005b34801561055457600080fd5b5061055d611a66565b60405161056a91906139a2565b60405180910390f35b34801561057f57600080fd5b5061059a600480360381019061059591906135ca565b611de6565b6040516105a79190613572565b60405180910390f35b3480156105bc57600080fd5b506105d760048036038101906105d29190613e32565b611ef9565b6040516105e491906134be565b60405180910390f35b6000634906490660e01b7bffffffffffffffffffffffffffffffffffffffffffffffffffffffff1916827bffffffffffffffffffffffffffffffffffffffffffffffffffffffff19161480610647575061064682611f8d565b5b9050919050565b60606065805461065d90613ea1565b80601f016020809104026020016040519081016040528092919081815260200182805461068990613ea1565b80156106d65780601f106106ab576101008083540402835291602001916106d6565b820191906000526020600020905b8154815290600101906020018083116106b957829003601f168201915b5050505050905090565b60006106eb8261206f565b6069600083815260200190815260200160002060009054906101000a900473ffffffffffffffffffffffffffffffffffffffff169050919050565b60cd6020528060005260406000206000915090508060000154908060010160009054906101000a900473ffffffffffffffffffffffffffffffffffffffff16908060020160009054906101000a900473ffffffffffffffffffffffffffffffffffffffff16908060030154908060040160009054906101000a900460ff16908060050180546107b490613ea1565b80601f01602080910402602001604051908101604052809291908181526020018280546107e090613ea1565b801561082d5780601f106108025761010080835404028352916020019161082d565b820191906000526020600020905b81548152906001019060200180831161081057829003601f168201915b5050505050905086565b600061084282610e24565b90508073ffffffffffffffffffffffffffffffffffffffff168373ffffffffffffffffffffffffffffffffffffffff1614156108b3576040517f08c379a00000000000000000000000000000000000000000000000000000000081526004016108aa90613f45565b60405180910390fd5b8073ffffffffffffffffffffffffffffffffffffffff166108d26120ba565b73ffffffffffffffffffffffffffffffffffffffff1614806109015750610900816108fb6120ba565b611ef9565b5b610940576040517f08c379a000000000000000000000000000000000000000000000000000000000815260040161093790613fd7565b60405180910390fd5b61094a83836120c2565b505050565b600060cb54905090565b61096a6109646120ba565b8261217b565b6109a9576040517f08c379a00000000000000000000000000000000000000000000000000000000081526004016109a090614069565b60405180910390fd5b6109b4838383612210565b505050565b6109d4838383604051806020016040528060008152506117b6565b505050565b600060cc60009054906101000a900473ffffffffffffffffffffffffffffffffffffffff16905090565b60606000610a1160c961250a565b905060008060005b83811015610aba573373ffffffffffffffffffffffffffffffffffffffff1660cd6000600184610a4991906140b8565b815260200190815260200160002060010160009054906101000a900473ffffffffffffffffffffffffffffffffffffffff1673ffffffffffffffffffffffffffffffffffffffff161415610aa757600183610aa491906140b8565b92505b8080610ab29061410e565b915050610a19565b5060008267ffffffffffffffff811115610ad757610ad6613adb565b5b604051908082528060200260200182016040528015610b1057816020015b610afd613303565b815260200190600190039081610af55790505b50905060005b84811015610d78573373ffffffffffffffffffffffffffffffffffffffff1660cd6000600184610b4691906140b8565b815260200190815260200160002060010160009054906101000a900473ffffffffffffffffffffffffffffffffffffffff1673ffffffffffffffffffffffffffffffffffffffff161415610d65576000600182610ba391906140b8565b9050600060cd60008381526020019081526020016000209050806040518060c0016040529081600082015481526020016001820160009054906101000a900473ffffffffffffffffffffffffffffffffffffffff1673ffffffffffffffffffffffffffffffffffffffff1673ffffffffffffffffffffffffffffffffffffffff1681526020016002820160009054906101000a900473ffffffffffffffffffffffffffffffffffffffff1673ffffffffffffffffffffffffffffffffffffffff1673ffffffffffffffffffffffffffffffffffffffff168152602001600382015481526020016004820160009054906101000a900460ff16151515158152602001600582018054610cb390613ea1565b80601f0160208091040260200160405190810160405280929190818152602001828054610cdf90613ea1565b8015610d2c5780601f10610d0157610100808354040283529160200191610d2c565b820191906000526020600020905b815481529060010190602001808311610d0f57829003601f168201915b505050505081525050848681518110610d4857610d47614157565b5b6020026020010181905250600185610d6091906140b8565b945050505b8080610d709061410e565b915050610b16565b508094505050505090565b606060ce6000838152602001908152602001600020805480602002602001604051908101604052809291908181526020018280548015610e1857602002820191906000526020600020905b8160009054906101000a900473ffffffffffffffffffffffffffffffffffffffff1673ffffffffffffffffffffffffffffffffffffffff1681526020019060010190808311610dce575b50505050509050919050565b600080610e3083612518565b9050600073ffffffffffffffffffffffffffffffffffffffff168173ffffffffffffffffffffffffffffffffffffffff161415610ea2576040517f08c379a0000000000000000000000000000000000000000000000000000000008152600401610e99906141d2565b60405180910390fd5b80915050919050565b60008073ffffffffffffffffffffffffffffffffffffffff168273ffffffffffffffffffffffffffffffffffffffff161415610f1c576040517f08c379a0000000000000000000000000000000000000000000000000000000008152600401610f1390614264565b60405180910390fd5b606860008373ffffffffffffffffffffffffffffffffffffffff1673ffffffffffffffffffffffffffffffffffffffff168152602001908152602001600020549050919050565b6000610f6f60c9612555565b6000610f7b60c961250a565b9050610f87338261256b565b610f918185612789565b610f9c818486612834565b8091505092915050565b60008060019054906101000a900460ff16159050808015610fd75750600160008054906101000a900460ff1660ff16105b806110045750610fe630612ae5565b1580156110035750600160008054906101000a900460ff1660ff16145b5b611043576040517f08c379a000000000000000000000000000000000000000000000000000000000815260040161103a906142f6565b60405180910390fd5b60016000806101000a81548160ff021916908360ff1602179055508015611080576001600060016101000a81548160ff0219169083151502179055505b6110f46040518060400160405280601381526020017f4e4654204d657461766572736520546f6b656e000000000000000000000000008152506040518060400160405280600581526020017f4d594e4654000000000000000000000000000000000000000000000000000000815250612b08565b3373ffffffffffffffffffffffffffffffffffffffff1660cc60009054906101000a905050506605543df729c00060cb8190555080156111815760008060016101000a81548160ff0219169083151502179055507f7f26b83ff96e1f2b6a682f133852f6798a09c465da95921460cefb384740249860016040516111789190614368565b60405180910390a15b50565b3373ffffffffffffffffffffffffffffffffffffffff1660cd600084815260200190815260200160002060020160009054906101000a900473ffffffffffffffffffffffffffffffffffffffff1673ffffffffffffffffffffffffffffffffffffffff1614611228576040517f08c379a000000000000000000000000000000000000000000000000000000000815260040161121f906143cf565b60405180910390fd5b60cb54341461126c576040517f08c379a000000000000000000000000000000000000000000000000000000000815260040161126390614461565b60405180910390fd5b600060cd600084815260200190815260200160002060040160006101000a81548160ff0219169083151502179055508060cd6000848152602001908152602001600020600301819055503360cd600084815260200190815260200160002060010160006101000a81548173ffffffffffffffffffffffffffffffffffffffff021916908373ffffffffffffffffffffffffffffffffffffffff1602179055503060cd600084815260200190815260200160002060020160006101000a81548173ffffffffffffffffffffffffffffffffffffffff021916908373ffffffffffffffffffffffffffffffffffffffff16021790555061136a60ca612b65565b611375333084612210565b5050565b6060600061138760c961250a565b9050600061139560ca61250a565b61139f60c961250a565b6113a99190614481565b90506000808267ffffffffffffffff8111156113c8576113c7613adb565b5b60405190808252806020026020018201604052801561140157816020015b6113ee613303565b8152602001906001900390816113e65790505b50905060005b84811015611669573073ffffffffffffffffffffffffffffffffffffffff1660cd600060018461143791906140b8565b815260200190815260200160002060020160009054906101000a900473ffffffffffffffffffffffffffffffffffffffff1673ffffffffffffffffffffffffffffffffffffffff16141561165657600060018261149491906140b8565b9050600060cd60008381526020019081526020016000209050806040518060c0016040529081600082015481526020016001820160009054906101000a900473ffffffffffffffffffffffffffffffffffffffff1673ffffffffffffffffffffffffffffffffffffffff1673ffffffffffffffffffffffffffffffffffffffff1681526020016002820160009054906101000a900473ffffffffffffffffffffffffffffffffffffffff1673ffffffffffffffffffffffffffffffffffffffff1673ffffffffffffffffffffffffffffffffffffffff168152602001600382015481526020016004820160009054906101000a900460ff161515151581526020016005820180546115a490613ea1565b80601f01602080910402602001604051908101604052809291908181526020018280546115d090613ea1565b801561161d5780601f106115f25761010080835404028352916020019161161d565b820191906000526020600020905b81548152906001019060200180831161160057829003601f168201915b50505050508152505084868151811061163957611638614157565b5b602002602001018190525060018561165191906140b8565b945050505b80806116619061410e565b915050611407565b508094505050505090565b60606066805461168390613ea1565b80601f01602080910402602001604051908101604052809291908181526020018280546116af90613ea1565b80156116fc5780601f106116d1576101008083540402835291602001916116fc565b820191906000526020600020905b8154815290600101906020018083116116df57829003601f168201915b5050505050905090565b6117186117116120ba565b8383612bc1565b5050565b60cc60009054906101000a900473ffffffffffffffffffffffffffffffffffffffff1673ffffffffffffffffffffffffffffffffffffffff163373ffffffffffffffffffffffffffffffffffffffff16146117ac576040517f08c379a00000000000000000000000000000000000000000000000000000000081526004016117a390614527565b60405180910390fd5b8060cb8190555050565b6117c76117c16120ba565b8361217b565b611806576040517f08c379a00000000000000000000000000000000000000000000000000000000081526004016117fd90614069565b60405180910390fd5b61181284848484612d2e565b50505050565b600060cd600083815260200190815260200160002060030154905080341015611876576040517f08c379a000000000000000000000000000000000000000000000000000000000815260040161186d906145df565b60405180910390fd5b3360cd600084815260200190815260200160002060020160006101000a81548173ffffffffffffffffffffffffffffffffffffffff021916908373ffffffffffffffffffffffffffffffffffffffff160217905550600160cd600084815260200190815260200160002060040160006101000a81548160ff0219169083151502179055503360cd600084815260200190815260200160002060010160006101000a81548173ffffffffffffffffffffffffffffffffffffffff021916908373ffffffffffffffffffffffffffffffffffffffff16021790555061195960ca612555565b60ce6000838152602001908152602001600020339080600181540180825580915050600190039060005260206000200160009091909190916101000a81548173ffffffffffffffffffffffffffffffffffffffff021916908373ffffffffffffffffffffffffffffffffffffffff1602179055506119d8303384612210565b60cd600083815260200190815260200160002060010160009054906101000a900473ffffffffffffffffffffffffffffffffffffffff1673ffffffffffffffffffffffffffffffffffffffff166108fc60cb5434611a369190614481565b9081150290604051600060405180830381858888f19350505050158015611a61573d6000803e3d6000fd5b505050565b60606000611a7460c961250a565b905060008060005b83811015611b1d573373ffffffffffffffffffffffffffffffffffffffff1660cd6000600184611aac91906140b8565b815260200190815260200160002060020160009054906101000a900473ffffffffffffffffffffffffffffffffffffffff1673ffffffffffffffffffffffffffffffffffffffff161415611b0a57600183611b0791906140b8565b92505b8080611b159061410e565b915050611a7c565b5060008267ffffffffffffffff811115611b3a57611b39613adb565b5b604051908082528060200260200182016040528015611b7357816020015b611b60613303565b815260200190600190039081611b585790505b50905060005b84811015611ddb573373ffffffffffffffffffffffffffffffffffffffff1660cd6000600184611ba991906140b8565b815260200190815260200160002060020160009054906101000a900473ffffffffffffffffffffffffffffffffffffffff1673ffffffffffffffffffffffffffffffffffffffff161415611dc8576000600182611c0691906140b8565b9050600060cd60008381526020019081526020016000209050806040518060c0016040529081600082015481526020016001820160009054906101000a900473ffffffffffffffffffffffffffffffffffffffff1673ffffffffffffffffffffffffffffffffffffffff1673ffffffffffffffffffffffffffffffffffffffff1681526020016002820160009054906101000a900473ffffffffffffffffffffffffffffffffffffffff1673ffffffffffffffffffffffffffffffffffffffff1673ffffffffffffffffffffffffffffffffffffffff168152602001600382015481526020016004820160009054906101000a900460ff16151515158152602001600582018054611d1690613ea1565b80601f0160208091040260200160405190810160405280929190818152602001828054611d4290613ea1565b8015611d8f5780601f10611d6457610100808354040283529160200191611d8f565b820191906000526020600020905b815481529060010190602001808311611d7257829003601f168201915b505050505081525050848681518110611dab57611daa614157565b5b6020026020010181905250600185611dc391906140b8565b945050505b8080611dd39061410e565b915050611b79565b508094505050505090565b6060611df18261206f565b6000609760008481526020019081526020016000208054611e1190613ea1565b80601f0160208091040260200160405190810160405280929190818152602001828054611e3d90613ea1565b8015611e8a5780601f10611e5f57610100808354040283529160200191611e8a565b820191906000526020600020905b815481529060010190602001808311611e6d57829003601f168201915b505050505090506000611e9b612d8a565b9050600081511415611eb1578192505050611ef4565b600082511115611ee6578082604051602001611ece92919061463b565b60405160208183030381529060405292505050611ef4565b611eef84612da1565b925050505b919050565b6000606a60008473ffffffffffffffffffffffffffffffffffffffff1673ffffffffffffffffffffffffffffffffffffffff16815260200190815260200160002060008373ffffffffffffffffffffffffffffffffffffffff1673ffffffffffffffffffffffffffffffffffffffff16815260200190815260200160002060009054906101000a900460ff16905092915050565b60007f80ac58cd000000000000000000000000000000000000000000000000000000007bffffffffffffffffffffffffffffffffffffffffffffffffffffffff1916827bffffffffffffffffffffffffffffffffffffffffffffffffffffffff1916148061205857507f5b5e139f000000000000000000000000000000000000000000000000000000007bffffffffffffffffffffffffffffffffffffffffffffffffffffffff1916827bffffffffffffffffffffffffffffffffffffffffffffffffffffffff1916145b80612068575061206782612e09565b5b9050919050565b61207881612e73565b6120b7576040517f08c379a00000000000000000000000000000000000000000000000000000000081526004016120ae906141d2565b60405180910390fd5b50565b600033905090565b816069600083815260200190815260200160002060006101000a81548173ffffffffffffffffffffffffffffffffffffffff021916908373ffffffffffffffffffffffffffffffffffffffff160217905550808273ffffffffffffffffffffffffffffffffffffffff1661213583610e24565b73ffffffffffffffffffffffffffffffffffffffff167f8c5be1e5ebec7d5bd14f71427d1e84f3dd0314c0f7b2291e5b200ac8c7c3b92560405160405180910390a45050565b60008061218783610e24565b90508073ffffffffffffffffffffffffffffffffffffffff168473ffffffffffffffffffffffffffffffffffffffff1614806121c957506121c88185611ef9565b5b8061220757508373ffffffffffffffffffffffffffffffffffffffff166121ef846106e0565b73ffffffffffffffffffffffffffffffffffffffff16145b91505092915050565b8273ffffffffffffffffffffffffffffffffffffffff1661223082610e24565b73ffffffffffffffffffffffffffffffffffffffff1614612286576040517f08c379a000000000000000000000000000000000000000000000000000000000815260040161227d906146d1565b60405180910390fd5b600073ffffffffffffffffffffffffffffffffffffffff168273ffffffffffffffffffffffffffffffffffffffff1614156122f6576040517f08c379a00000000000000000000000000000000000000000000000000000000081526004016122ed90614763565b60405180910390fd5b6123038383836001612eb4565b8273ffffffffffffffffffffffffffffffffffffffff1661232382610e24565b73ffffffffffffffffffffffffffffffffffffffff1614612379576040517f08c379a0000000000000000000000000000000000000000000000000000000008152600401612370906146d1565b60405180910390fd5b6069600082815260200190815260200160002060006101000a81549073ffffffffffffffffffffffffffffffffffffffff02191690556001606860008573ffffffffffffffffffffffffffffffffffffffff1673ffffffffffffffffffffffffffffffffffffffff168152602001908152602001600020600082825403925050819055506001606860008473ffffffffffffffffffffffffffffffffffffffff1673ffffffffffffffffffffffffffffffffffffffff16815260200190815260200160002060008282540192505081905550816067600083815260200190815260200160002060006101000a81548173ffffffffffffffffffffffffffffffffffffffff021916908373ffffffffffffffffffffffffffffffffffffffff160217905550808273ffffffffffffffffffffffffffffffffffffffff168473ffffffffffffffffffffffffffffffffffffffff167fddf252ad1be2c89b69c2b068fc378daa952ba7f163c4a11628f55a4df523b3ef60405160405180910390a46125058383836001612eba565b505050565b600081600001549050919050565b60006067600083815260200190815260200160002060009054906101000a900473ffffffffffffffffffffffffffffffffffffffff169050919050565b6001816000016000828254019250508190555050565b600073ffffffffffffffffffffffffffffffffffffffff168273ffffffffffffffffffffffffffffffffffffffff1614156125db576040517f08c379a00000000000000000000000000000000000000000000000000000000081526004016125d2906147cf565b60405180910390fd5b6125e481612e73565b15612624576040517f08c379a000000000000000000000000000000000000000000000000000000000815260040161261b9061483b565b60405180910390fd5b612632600083836001612eb4565b61263b81612e73565b1561267b576040517f08c379a00000000000000000000000000000000000000000000000000000000081526004016126729061483b565b60405180910390fd5b6001606860008473ffffffffffffffffffffffffffffffffffffffff1673ffffffffffffffffffffffffffffffffffffffff16815260200190815260200160002060008282540192505081905550816067600083815260200190815260200160002060006101000a81548173ffffffffffffffffffffffffffffffffffffffff021916908373ffffffffffffffffffffffffffffffffffffffff160217905550808273ffffffffffffffffffffffffffffffffffffffff16600073ffffffffffffffffffffffffffffffffffffffff167fddf252ad1be2c89b69c2b068fc378daa952ba7f163c4a11628f55a4df523b3ef60405160405180910390a4612785600083836001612eba565b5050565b61279282612e73565b6127d1576040517f08c379a00000000000000000000000000000000000000000000000000000000081526004016127c8906148cd565b60405180910390fd5b806097600084815260200190815260200160002090805190602001906127f8929190613367565b507ff8e1a15aba9398e019f0b49df1a4fde98ee17ae345cb5f6b5e2c27f5033e8ce7826040516128289190613757565b60405180910390a15050565b60008211612877576040517f08c379a000000000000000000000000000000000000000000000000000000000815260040161286e90614939565b60405180910390fd5b60cb5434146128bb576040517f08c379a00000000000000000000000000000000000000000000000000000000081526004016128b290614461565b60405180910390fd5b6040518060c001604052808481526020013373ffffffffffffffffffffffffffffffffffffffff1681526020013073ffffffffffffffffffffffffffffffffffffffff1681526020018381526020016000151581526020018281525060cd60008581526020019081526020016000206000820151816000015560208201518160010160006101000a81548173ffffffffffffffffffffffffffffffffffffffff021916908373ffffffffffffffffffffffffffffffffffffffff16021790555060408201518160020160006101000a81548173ffffffffffffffffffffffffffffffffffffffff021916908373ffffffffffffffffffffffffffffffffffffffff1602179055506060820151816003015560808201518160040160006101000a81548160ff02191690831515021790555060a0820151816005019080519060200190612a08929190613367565b5090505060ce6000848152602001908152602001600020339080600181540180825580915050600190039060005260206000200160009091909190916101000a81548173ffffffffffffffffffffffffffffffffffffffff021916908373ffffffffffffffffffffffffffffffffffffffff160217905550612a8b333085612210565b813373ffffffffffffffffffffffffffffffffffffffff16847f11fe55ba678323aeef10b49af28be7401817951ef77bb5f8593137acb950523e30600086604051612ad893929190614959565b60405180910390a4505050565b6000808273ffffffffffffffffffffffffffffffffffffffff163b119050919050565b600060019054906101000a900460ff16612b57576040517f08c379a0000000000000000000000000000000000000000000000000000000008152600401612b4e90614a09565b60405180910390fd5b612b618282612ec0565b5050565b60008160000154905060008111612bb1576040517f08c379a0000000000000000000000000000000000000000000000000000000008152600401612ba890614a75565b60405180910390fd5b6001810382600001819055505050565b8173ffffffffffffffffffffffffffffffffffffffff168373ffffffffffffffffffffffffffffffffffffffff161415612c30576040517f08c379a0000000000000000000000000000000000000000000000000000000008152600401612c2790614ae1565b60405180910390fd5b80606a60008573ffffffffffffffffffffffffffffffffffffffff1673ffffffffffffffffffffffffffffffffffffffff16815260200190815260200160002060008473ffffffffffffffffffffffffffffffffffffffff1673ffffffffffffffffffffffffffffffffffffffff16815260200190815260200160002060006101000a81548160ff0219169083151502179055508173ffffffffffffffffffffffffffffffffffffffff168373ffffffffffffffffffffffffffffffffffffffff167f17307eab39ab6107e8899845ad3d59bd9653f200f220920489ca2b5937696c3183604051612d2191906134be565b60405180910390a3505050565b612d39848484612210565b612d4584848484612f41565b612d84576040517f08c379a0000000000000000000000000000000000000000000000000000000008152600401612d7b90614b73565b60405180910390fd5b50505050565b606060405180602001604052806000815250905090565b6060612dac8261206f565b6000612db6612d8a565b90506000815111612dd65760405180602001604052806000815250612e01565b80612de0846130d8565b604051602001612df192919061463b565b6040516020818303038152906040525b915050919050565b60007f01ffc9a7000000000000000000000000000000000000000000000000000000007bffffffffffffffffffffffffffffffffffffffffffffffffffffffff1916827bffffffffffffffffffffffffffffffffffffffffffffffffffffffff1916149050919050565b60008073ffffffffffffffffffffffffffffffffffffffff16612e9583612518565b73ffffffffffffffffffffffffffffffffffffffff1614159050919050565b50505050565b50505050565b600060019054906101000a900460ff16612f0f576040517f08c379a0000000000000000000000000000000000000000000000000000000008152600401612f0690614a09565b60405180910390fd5b8160659080519060200190612f25929190613367565b508060669080519060200190612f3c929190613367565b505050565b6000612f628473ffffffffffffffffffffffffffffffffffffffff16612ae5565b156130cb578373ffffffffffffffffffffffffffffffffffffffff1663150b7a02612f8b6120ba565b8786866040518563ffffffff1660e01b8152600401612fad9493929190614be8565b602060405180830381600087803b158015612fc757600080fd5b505af1925050508015612ff857506040513d601f19601f82011682018060405250810190612ff59190614c49565b60015b61307b573d8060008114613028576040519150601f19603f3d011682016040523d82523d6000602084013e61302d565b606091505b50600081511415613073576040517f08c379a000000000000000000000000000000000000000000000000000000000815260040161306a90614b73565b60405180910390fd5b805181602001fd5b63150b7a0260e01b7bffffffffffffffffffffffffffffffffffffffffffffffffffffffff1916817bffffffffffffffffffffffffffffffffffffffffffffffffffffffff1916149150506130d0565b600190505b949350505050565b6060600060016130e7846131b0565b01905060008167ffffffffffffffff81111561310657613105613adb565b5b6040519080825280601f01601f1916602001820160405280156131385781602001600182028036833780820191505090505b509050600082602001820190505b6001156131a5578080600190039150507f3031323334353637383961626364656600000000000000000000000000000000600a86061a8153600a858161318f5761318e614c76565b5b04945060008514156131a0576131a5565b613146565b819350505050919050565b600080600090507a184f03e93ff9f4daa797ed6e38ed64bf6a1f010000000000000000831061320e577a184f03e93ff9f4daa797ed6e38ed64bf6a1f010000000000000000838161320457613203614c76565b5b0492506040810190505b6d04ee2d6d415b85acef8100000000831061324b576d04ee2d6d415b85acef8100000000838161324157613240614c76565b5b0492506020810190505b662386f26fc10000831061327a57662386f26fc1000083816132705761326f614c76565b5b0492506010810190505b6305f5e10083106132a3576305f5e100838161329957613298614c76565b5b0492506008810190505b61271083106132c85761271083816132be576132bd614c76565b5b0492506004810190505b606483106132eb57606483816132e1576132e0614c76565b5b0492506002810190505b600a83106132fa576001810190505b80915050919050565b6040518060c0016040528060008152602001600073ffffffffffffffffffffffffffffffffffffffff168152602001600073ffffffffffffffffffffffffffffffffffffffff16815260200160008152602001600015158152602001606081525090565b82805461337390613ea1565b90600052602060002090601f01602090048101928261339557600085556133dc565b82601f106133ae57805160ff19168380011785556133dc565b828001600101855582156133dc579182015b828111156133db5782518255916020019190600101906133c0565b5b5090506133e991906133ed565b5090565b5b808211156134065760008160009055506001016133ee565b5090565b6000604051905090565b600080fd5b600080fd5b60007fffffffff0000000000000000000000000000000000000000000000000000000082169050919050565b6134538161341e565b811461345e57600080fd5b50565b6000813590506134708161344a565b92915050565b60006020828403121561348c5761348b613414565b5b600061349a84828501613461565b91505092915050565b60008115159050919050565b6134b8816134a3565b82525050565b60006020820190506134d360008301846134af565b92915050565b600081519050919050565b600082825260208201905092915050565b60005b838110156135135780820151818401526020810190506134f8565b83811115613522576000848401525b50505050565b6000601f19601f8301169050919050565b6000613544826134d9565b61354e81856134e4565b935061355e8185602086016134f5565b61356781613528565b840191505092915050565b6000602082019050818103600083015261358c8184613539565b905092915050565b6000819050919050565b6135a781613594565b81146135b257600080fd5b50565b6000813590506135c48161359e565b92915050565b6000602082840312156135e0576135df613414565b5b60006135ee848285016135b5565b91505092915050565b600073ffffffffffffffffffffffffffffffffffffffff82169050919050565b6000613622826135f7565b9050919050565b61363281613617565b82525050565b600060208201905061364d6000830184613629565b92915050565b61365c81613594565b82525050565b600061366d826135f7565b9050919050565b61367d81613662565b82525050565b600060c0820190506136986000830189613653565b6136a56020830188613674565b6136b26040830187613674565b6136bf6060830186613653565b6136cc60808301856134af565b81810360a08301526136de8184613539565b9050979650505050505050565b6136f481613617565b81146136ff57600080fd5b50565b600081359050613711816136eb565b92915050565b6000806040838503121561372e5761372d613414565b5b600061373c85828601613702565b925050602061374d858286016135b5565b9150509250929050565b600060208201905061376c6000830184613653565b92915050565b60008060006060848603121561378b5761378a613414565b5b600061379986828701613702565b93505060206137aa86828701613702565b92505060406137bb868287016135b5565b9150509250925092565b60006020820190506137da6000830184613674565b92915050565b600081519050919050565b600082825260208201905092915050565b6000819050602082019050919050565b61381581613594565b82525050565b61382481613662565b82525050565b613833816134a3565b82525050565b600082825260208201905092915050565b6000613855826134d9565b61385f8185613839565b935061386f8185602086016134f5565b61387881613528565b840191505092915050565b600060c08301600083015161389b600086018261380c565b5060208301516138ae602086018261381b565b5060408301516138c1604086018261381b565b5060608301516138d4606086018261380c565b5060808301516138e7608086018261382a565b5060a083015184820360a08601526138ff828261384a565b9150508091505092915050565b60006139188383613883565b905092915050565b6000602082019050919050565b6000613938826137e0565b61394281856137eb565b935083602082028501613954856137fc565b8060005b858110156139905784840389528151613971858261390c565b945061397c83613920565b925060208a01995050600181019050613958565b50829750879550505050505092915050565b600060208201905081810360008301526139bc818461392d565b905092915050565b600081519050919050565b600082825260208201905092915050565b6000819050602082019050919050565b6139f981613617565b82525050565b6000613a0b83836139f0565b60208301905092915050565b6000602082019050919050565b6000613a2f826139c4565b613a3981856139cf565b9350613a44836139e0565b8060005b83811015613a75578151613a5c88826139ff565b9750613a6783613a17565b925050600181019050613a48565b5085935050505092915050565b60006020820190508181036000830152613a9c8184613a24565b905092915050565b600060208284031215613aba57613ab9613414565b5b6000613ac884828501613702565b91505092915050565b600080fd5b600080fd5b7f4e487b7100000000000000000000000000000000000000000000000000000000600052604160045260246000fd5b613b1382613528565b810181811067ffffffffffffffff82111715613b3257613b31613adb565b5b80604052505050565b6000613b4561340a565b9050613b518282613b0a565b919050565b600067ffffffffffffffff821115613b7157613b70613adb565b5b613b7a82613528565b9050602081019050919050565b82818337600083830152505050565b6000613ba9613ba484613b56565b613b3b565b905082815260208101848484011115613bc557613bc4613ad6565b5b613bd0848285613b87565b509392505050565b600082601f830112613bed57613bec613ad1565b5b8135613bfd848260208601613b96565b91505092915050565b60008060408385031215613c1d57613c1c613414565b5b600083013567ffffffffffffffff811115613c3b57613c3a613419565b5b613c4785828601613bd8565b9250506020613c58858286016135b5565b9150509250929050565b60008060408385031215613c7957613c78613414565b5b6000613c87858286016135b5565b9250506020613c98858286016135b5565b9150509250929050565b613cab816134a3565b8114613cb657600080fd5b50565b600081359050613cc881613ca2565b92915050565b60008060408385031215613ce557613ce4613414565b5b6000613cf385828601613702565b9250506020613d0485828601613cb9565b9150509250929050565b600067ffffffffffffffff821115613d2957613d28613adb565b5b613d3282613528565b9050602081019050919050565b6000613d52613d4d84613d0e565b613b3b565b905082815260208101848484011115613d6e57613d6d613ad6565b5b613d79848285613b87565b509392505050565b600082601f830112613d9657613d95613ad1565b5b8135613da6848260208601613d3f565b91505092915050565b60008060008060808587031215613dc957613dc8613414565b5b6000613dd787828801613702565b9450506020613de887828801613702565b9350506040613df9878288016135b5565b925050606085013567ffffffffffffffff811115613e1a57613e19613419565b5b613e2687828801613d81565b91505092959194509250565b60008060408385031215613e4957613e48613414565b5b6000613e5785828601613702565b9250506020613e6885828601613702565b9150509250929050565b7f4e487b7100000000000000000000000000000000000000000000000000000000600052602260045260246000fd5b60006002820490506001821680613eb957607f821691505b60208210811415613ecd57613ecc613e72565b5b50919050565b7f4552433732313a20617070726f76616c20746f2063757272656e74206f776e6560008201527f7200000000000000000000000000000000000000000000000000000000000000602082015250565b6000613f2f6021836134e4565b9150613f3a82613ed3565b604082019050919050565b60006020820190508181036000830152613f5e81613f22565b9050919050565b7f4552433732313a20617070726f76652063616c6c6572206973206e6f7420746f60008201527f6b656e206f776e6572206f7220617070726f76656420666f7220616c6c000000602082015250565b6000613fc1603d836134e4565b9150613fcc82613f65565b604082019050919050565b60006020820190508181036000830152613ff081613fb4565b9050919050565b7f4552433732313a2063616c6c6572206973206e6f7420746f6b656e206f776e6560008201527f72206f7220617070726f76656400000000000000000000000000000000000000602082015250565b6000614053602d836134e4565b915061405e82613ff7565b604082019050919050565b6000602082019050818103600083015261408281614046565b9050919050565b7f4e487b7100000000000000000000000000000000000000000000000000000000600052601160045260246000fd5b60006140c382613594565b91506140ce83613594565b9250827fffffffffffffffffffffffffffffffffffffffffffffffffffffffffffffffff0382111561410357614102614089565b5b828201905092915050565b600061411982613594565b91507fffffffffffffffffffffffffffffffffffffffffffffffffffffffffffffffff82141561414c5761414b614089565b5b600182019050919050565b7f4e487b7100000000000000000000000000000000000000000000000000000000600052603260045260246000fd5b7f4552433732313a20696e76616c696420746f6b656e2049440000000000000000600082015250565b60006141bc6018836134e4565b91506141c782614186565b602082019050919050565b600060208201905081810360008301526141eb816141af565b9050919050565b7f4552433732313a2061646472657373207a65726f206973206e6f74206120766160008201527f6c6964206f776e65720000000000000000000000000000000000000000000000602082015250565b600061424e6029836134e4565b9150614259826141f2565b604082019050919050565b6000602082019050818103600083015261427d81614241565b9050919050565b7f496e697469616c697a61626c653a20636f6e747261637420697320616c72656160008201527f647920696e697469616c697a6564000000000000000000000000000000000000602082015250565b60006142e0602e836134e4565b91506142eb82614284565b604082019050919050565b6000602082019050818103600083015261430f816142d3565b9050919050565b6000819050919050565b600060ff82169050919050565b6000819050919050565b600061435261434d61434884614316565b61432d565b614320565b9050919050565b61436281614337565b82525050565b600060208201905061437d6000830184614359565b92915050565b7f4f6e6c79206f776e65722063616e2073656c6c20746869730000000000000000600082015250565b60006143b96018836134e4565b91506143c482614383565b602082019050919050565b600060208201905081810360008301526143e8816143ac565b9050919050565b7f5072696365206d75737420626520657175616c20746f206c697374696e67207060008201527f7269636500000000000000000000000000000000000000000000000000000000602082015250565b600061444b6024836134e4565b9150614456826143ef565b604082019050919050565b6000602082019050818103600083015261447a8161443e565b9050919050565b600061448c82613594565b915061449783613594565b9250828210156144aa576144a9614089565b5b828203905092915050565b7f4f6e6c79206f776e65722063616e206368616e676520746865206c697374696e60008201527f6720707269636500000000000000000000000000000000000000000000000000602082015250565b60006145116027836134e4565b915061451c826144b5565b604082019050919050565b6000602082019050818103600083015261454081614504565b9050919050565b7f506c65617365207375626d6974207468652061736b696e67207072696365206960008201527f6e206f7264657220746f20636f6d706c65746520746865207472616e7361637460208201527f696f6e0000000000000000000000000000000000000000000000000000000000604082015250565b60006145c96043836134e4565b91506145d482614547565b606082019050919050565b600060208201905081810360008301526145f8816145bc565b9050919050565b600081905092915050565b6000614615826134d9565b61461f81856145ff565b935061462f8185602086016134f5565b80840191505092915050565b6000614647828561460a565b9150614653828461460a565b91508190509392505050565b7f4552433732313a207472616e736665722066726f6d20696e636f72726563742060008201527f6f776e6572000000000000000000000000000000000000000000000000000000602082015250565b60006146bb6025836134e4565b91506146c68261465f565b604082019050919050565b600060208201905081810360008301526146ea816146ae565b9050919050565b7f4552433732313a207472616e7366657220746f20746865207a65726f2061646460008201527f7265737300000000000000000000000000000000000000000000000000000000602082015250565b600061474d6024836134e4565b9150614758826146f1565b604082019050919050565b6000602082019050818103600083015261477c81614740565b9050919050565b7f4552433732313a206d696e7420746f20746865207a65726f2061646472657373600082015250565b60006147b96020836134e4565b91506147c482614783565b602082019050919050565b600060208201905081810360008301526147e8816147ac565b9050919050565b7f4552433732313a20746f6b656e20616c7265616479206d696e74656400000000600082015250565b6000614825601c836134e4565b9150614830826147ef565b602082019050919050565b6000602082019050818103600083015261485481614818565b9050919050565b7f45524337323155524953746f726167653a2055524920736574206f66206e6f6e60008201527f6578697374656e7420746f6b656e000000000000000000000000000000000000602082015250565b60006148b7602e836134e4565b91506148c28261485b565b604082019050919050565b600060208201905081810360008301526148e6816148aa565b9050919050565b7f5072696365206d757374206265206174206c6561737420310000000000000000600082015250565b60006149236018836134e4565b915061492e826148ed565b602082019050919050565b6000602082019050818103600083015261495281614916565b9050919050565b600060608201905061496e6000830186613629565b61497b60208301856134af565b818103604083015261498d8184613539565b9050949350505050565b7f496e697469616c697a61626c653a20636f6e7472616374206973206e6f74206960008201527f6e697469616c697a696e67000000000000000000000000000000000000000000602082015250565b60006149f3602b836134e4565b91506149fe82614997565b604082019050919050565b60006020820190508181036000830152614a22816149e6565b9050919050565b7f436f756e7465723a2064656372656d656e74206f766572666c6f770000000000600082015250565b6000614a5f601b836134e4565b9150614a6a82614a29565b602082019050919050565b60006020820190508181036000830152614a8e81614a52565b9050919050565b7f4552433732313a20617070726f766520746f2063616c6c657200000000000000600082015250565b6000614acb6019836134e4565b9150614ad682614a95565b602082019050919050565b60006020820190508181036000830152614afa81614abe565b9050919050565b7f4552433732313a207472616e7366657220746f206e6f6e20455243373231526560008201527f63656976657220696d706c656d656e7465720000000000000000000000000000602082015250565b6000614b5d6032836134e4565b9150614b6882614b01565b604082019050919050565b60006020820190508181036000830152614b8c81614b50565b9050919050565b600081519050919050565b600082825260208201905092915050565b6000614bba82614b93565b614bc48185614b9e565b9350614bd48185602086016134f5565b614bdd81613528565b840191505092915050565b6000608082019050614bfd6000830187613629565b614c0a6020830186613629565b614c176040830185613653565b8181036060830152614c298184614baf565b905095945050505050565b600081519050614c438161344a565b92915050565b600060208284031215614c5f57614c5e613414565b5b6000614c6d84828501614c34565b91505092915050565b7f4e487b7100000000000000000000000000000000000000000000000000000000600052601260045260246000fdfea2646970667358221220fc95d1dcec736fd2caf7800f48b911f4c6a4cff87416f4533a6db358cf23cecf64736f6c63430008090033",
    "linkReferences": {},
    "deployedLinkReferences": {}
}