{
  "_format": "hh-sol-artifact-1",
  "contractName": "NFT_Marketplace",
  "sourceName": "contracts/NFT_Marketplace.sol",
  "abi": [
    {
      "anonymous": false,
      "inputs": [
        {
          "indexed": true,
          "internalType": "address",
          "name": "owner",
          "type": "address"
        },
        {
          "indexed": true,
          "internalType": "address",
          "name": "approved",
          "type": "address"
        },
        {
          "indexed": true,
          "internalType": "uint256",
          "name": "tokenId",
          "type": "uint256"
        }
      ],
      "name": "Approval",
      "type": "event"
    },
    {
      "anonymous": false,
      "inputs": [
        {
          "indexed": true,
          "internalType": "address",
          "name": "owner",
          "type": "address"
        },
        {
          "indexed": true,
          "internalType": "address",
          "name": "operator",
          "type": "address"
        },
        {
          "indexed": false,
          "internalType": "bool",
          "name": "approved",
          "type": "bool"
        }
      ],
      "name": "ApprovalForAll",
      "type": "event"
    },
    {
      "anonymous": false,
      "inputs": [
        {
          "indexed": false,
          "internalType": "uint256",
          "name": "_fromTokenId",
          "type": "uint256"
        },
        {
          "indexed": false,
          "internalType": "uint256",
          "name": "_toTokenId",
          "type": "uint256"
        }
      ],
      "name": "BatchMetadataUpdate",
      "type": "event"
    },
    {
      "anonymous": false,
      "inputs": [
        {
          "indexed": false,
          "internalType": "uint8",
          "name": "version",
          "type": "uint8"
        }
      ],
      "name": "Initialized",
      "type": "event"
    },
    {
      "anonymous": false,
      "inputs": [
        {
          "indexed": false,
          "internalType": "uint256",
          "name": "_tokenId",
          "type": "uint256"
        }
      ],
      "name": "MetadataUpdate",
      "type": "event"
    },
    {
      "anonymous": false,
      "inputs": [
        {
          "indexed": true,
          "internalType": "address",
          "name": "from",
          "type": "address"
        },
        {
          "indexed": true,
          "internalType": "address",
          "name": "to",
          "type": "address"
        },
        {
          "indexed": true,
          "internalType": "uint256",
          "name": "tokenId",
          "type": "uint256"
        }
      ],
      "name": "Transfer",
      "type": "event"
    },
    {
      "anonymous": false,
      "inputs": [
        {
          "indexed": true,
          "internalType": "uint256",
          "name": "tokenId",
          "type": "uint256"
        },
        {
          "indexed": false,
          "internalType": "address",
          "name": "seller",
          "type": "address"
        },
        {
          "indexed": true,
          "internalType": "string",
          "name": "about",
          "type": "string"
        },
        {
          "indexed": false,
          "internalType": "address",
          "name": "owner",
          "type": "address"
        },
        {
          "indexed": true,
          "internalType": "uint256",
          "name": "price",
          "type": "uint256"
        },
        {
          "indexed": false,
          "internalType": "bool",
          "name": "sold",
          "type": "bool"
        },
        {
          "indexed": false,
          "internalType": "string",
          "name": "link",
          "type": "string"
        }
      ],
      "name": "idMarketItemCreated",
      "type": "event"
    },
    {
      "inputs": [
        {
          "internalType": "address",
          "name": "to",
          "type": "address"
        },
        {
          "internalType": "uint256",
          "name": "tokenId",
          "type": "uint256"
        }
      ],
      "name": "approve",
      "outputs": [],
      "stateMutability": "nonpayable",
      "type": "function"
    },
    {
      "inputs": [
        {
          "internalType": "address",
          "name": "owner",
          "type": "address"
        }
      ],
      "name": "balanceOf",
      "outputs": [
        {
          "internalType": "uint256",
          "name": "",
          "type": "uint256"
        }
      ],
      "stateMutability": "view",
      "type": "function"
    },
    {
      "inputs": [
        {
          "internalType": "uint256",
          "name": "tokenId",
          "type": "uint256"
        }
      ],
      "name": "createMarketSale",
      "outputs": [],
      "stateMutability": "payable",
      "type": "function"
    },
    {
      "inputs": [
        {
          "internalType": "string",
          "name": "tokenURI",
          "type": "string"
        },
        {
          "internalType": "uint256",
          "name": "price",
          "type": "uint256"
        },
        {
          "internalType": "string",
          "name": "aboutNFT",
          "type": "string"
        }
      ],
      "name": "createToken",
      "outputs": [
        {
          "internalType": "uint256",
          "name": "",
          "type": "uint256"
        }
      ],
      "stateMutability": "payable",
      "type": "function"
    },
    {
      "inputs": [],
      "name": "fetchItemsListed",
      "outputs": [
        {
          "components": [
            {
              "internalType": "uint256",
              "name": "tokenId",
              "type": "uint256"
            },
            {
              "internalType": "address payable",
              "name": "seller",
              "type": "address"
            },
            {
              "internalType": "address payable",
              "name": "owner",
              "type": "address"
            },
            {
              "internalType": "uint256",
              "name": "price",
              "type": "uint256"
            },
            {
              "internalType": "bool",
              "name": "sold",
              "type": "bool"
            },
            {
              "internalType": "string",
              "name": "link",
              "type": "string"
            },
            {
              "internalType": "string",
              "name": "about",
              "type": "string"
            }
          ],
          "internalType": "struct NFT_Marketplace.MarketItem[]",
          "name": "",
          "type": "tuple[]"
        }
      ],
      "stateMutability": "view",
      "type": "function"
    },
    {
      "inputs": [],
      "name": "fetchMarketItem",
      "outputs": [
        {
          "components": [
            {
              "internalType": "uint256",
              "name": "tokenId",
              "type": "uint256"
            },
            {
              "internalType": "address payable",
              "name": "seller",
              "type": "address"
            },
            {
              "internalType": "address payable",
              "name": "owner",
              "type": "address"
            },
            {
              "internalType": "uint256",
              "name": "price",
              "type": "uint256"
            },
            {
              "internalType": "bool",
              "name": "sold",
              "type": "bool"
            },
            {
              "internalType": "string",
              "name": "link",
              "type": "string"
            },
            {
              "internalType": "string",
              "name": "about",
              "type": "string"
            }
          ],
          "internalType": "struct NFT_Marketplace.MarketItem[]",
          "name": "",
          "type": "tuple[]"
        }
      ],
      "stateMutability": "view",
      "type": "function"
    },
    {
      "inputs": [],
      "name": "fetchMyNFT",
      "outputs": [
        {
          "components": [
            {
              "internalType": "uint256",
              "name": "tokenId",
              "type": "uint256"
            },
            {
              "internalType": "address payable",
              "name": "seller",
              "type": "address"
            },
            {
              "internalType": "address payable",
              "name": "owner",
              "type": "address"
            },
            {
              "internalType": "uint256",
              "name": "price",
              "type": "uint256"
            },
            {
              "internalType": "bool",
              "name": "sold",
              "type": "bool"
            },
            {
              "internalType": "string",
              "name": "link",
              "type": "string"
            },
            {
              "internalType": "string",
              "name": "about",
              "type": "string"
            }
          ],
          "internalType": "struct NFT_Marketplace.MarketItem[]",
          "name": "",
          "type": "tuple[]"
        }
      ],
      "stateMutability": "view",
      "type": "function"
    },
    {
      "inputs": [
        {
          "internalType": "uint256",
          "name": "tokenId",
          "type": "uint256"
        }
      ],
      "name": "getAllOwners",
      "outputs": [
        {
          "internalType": "address[]",
          "name": "",
          "type": "address[]"
        }
      ],
      "stateMutability": "view",
      "type": "function"
    },
    {
      "inputs": [
        {
          "internalType": "uint256",
          "name": "tokenId",
          "type": "uint256"
        }
      ],
      "name": "getApproved",
      "outputs": [
        {
          "internalType": "address",
          "name": "",
          "type": "address"
        }
      ],
      "stateMutability": "view",
      "type": "function"
    },
    {
      "inputs": [],
      "name": "getContractOwner",
      "outputs": [
        {
          "internalType": "address payable",
          "name": "",
          "type": "address"
        }
      ],
      "stateMutability": "view",
      "type": "function"
    },
    {
      "inputs": [],
      "name": "getGenre",
      "outputs": [
        {
          "internalType": "string[6]",
          "name": "",
          "type": "string[6]"
        }
      ],
      "stateMutability": "view",
      "type": "function"
    },
    {
      "inputs": [],
      "name": "getListingPrice",
      "outputs": [
        {
          "internalType": "uint256",
          "name": "",
          "type": "uint256"
        }
      ],
      "stateMutability": "view",
      "type": "function"
    },
    {
      "inputs": [
        {
          "internalType": "address",
          "name": "visitor",
          "type": "address"
        }
      ],
      "name": "getMaxNFTData",
      "outputs": [
        {
          "internalType": "string",
          "name": "",
          "type": "string"
        }
      ],
      "stateMutability": "view",
      "type": "function"
    },
    {
      "inputs": [
        {
          "internalType": "uint256",
          "name": "",
          "type": "uint256"
        }
      ],
      "name": "idMarketItem",
      "outputs": [
        {
          "internalType": "uint256",
          "name": "tokenId",
          "type": "uint256"
        },
        {
          "internalType": "address payable",
          "name": "seller",
          "type": "address"
        },
        {
          "internalType": "address payable",
          "name": "owner",
          "type": "address"
        },
        {
          "internalType": "uint256",
          "name": "price",
          "type": "uint256"
        },
        {
          "internalType": "bool",
          "name": "sold",
          "type": "bool"
        },
        {
          "internalType": "string",
          "name": "link",
          "type": "string"
        },
        {
          "internalType": "string",
          "name": "about",
          "type": "string"
        }
      ],
      "stateMutability": "view",
      "type": "function"
    },
    {
      "inputs": [
        {
          "internalType": "uint256",
          "name": "listPrice",
          "type": "uint256"
        }
      ],
      "name": "initialize",
      "outputs": [],
      "stateMutability": "nonpayable",
      "type": "function"
    },
    {
      "inputs": [
        {
          "internalType": "address",
          "name": "owner",
          "type": "address"
        },
        {
          "internalType": "address",
          "name": "operator",
          "type": "address"
        }
      ],
      "name": "isApprovedForAll",
      "outputs": [
        {
          "internalType": "bool",
          "name": "",
          "type": "bool"
        }
      ],
      "stateMutability": "view",
      "type": "function"
    },
    {
      "inputs": [],
      "name": "name",
      "outputs": [
        {
          "internalType": "string",
          "name": "",
          "type": "string"
        }
      ],
      "stateMutability": "view",
      "type": "function"
    },
    {
      "inputs": [
        {
          "internalType": "uint256",
          "name": "tokenId",
          "type": "uint256"
        }
      ],
      "name": "ownerOf",
      "outputs": [
        {
          "internalType": "address",
          "name": "",
          "type": "address"
        }
      ],
      "stateMutability": "view",
      "type": "function"
    },
    {
      "inputs": [
        {
          "internalType": "uint256",
          "name": "tokenId",
          "type": "uint256"
        },
        {
          "internalType": "uint256",
          "name": "price",
          "type": "uint256"
        }
      ],
      "name": "reSellToken",
      "outputs": [],
      "stateMutability": "payable",
      "type": "function"
    },
    {
      "inputs": [
        {
          "internalType": "address",
          "name": "from",
          "type": "address"
        },
        {
          "internalType": "address",
          "name": "to",
          "type": "address"
        },
        {
          "internalType": "uint256",
          "name": "tokenId",
          "type": "uint256"
        }
      ],
      "name": "safeTransferFrom",
      "outputs": [],
      "stateMutability": "nonpayable",
      "type": "function"
    },
    {
      "inputs": [
        {
          "internalType": "address",
          "name": "from",
          "type": "address"
        },
        {
          "internalType": "address",
          "name": "to",
          "type": "address"
        },
        {
          "internalType": "uint256",
          "name": "tokenId",
          "type": "uint256"
        },
        {
          "internalType": "bytes",
          "name": "data",
          "type": "bytes"
        }
      ],
      "name": "safeTransferFrom",
      "outputs": [],
      "stateMutability": "nonpayable",
      "type": "function"
    },
    {
      "inputs": [
        {
          "internalType": "address",
          "name": "operator",
          "type": "address"
        },
        {
          "internalType": "bool",
          "name": "approved",
          "type": "bool"
        }
      ],
      "name": "setApprovalForAll",
      "outputs": [],
      "stateMutability": "nonpayable",
      "type": "function"
    },
    {
      "inputs": [
        {
          "internalType": "bytes4",
          "name": "interfaceId",
          "type": "bytes4"
        }
      ],
      "name": "supportsInterface",
      "outputs": [
        {
          "internalType": "bool",
          "name": "",
          "type": "bool"
        }
      ],
      "stateMutability": "view",
      "type": "function"
    },
    {
      "inputs": [],
      "name": "symbol",
      "outputs": [
        {
          "internalType": "string",
          "name": "",
          "type": "string"
        }
      ],
      "stateMutability": "view",
      "type": "function"
    },
    {
      "inputs": [
        {
          "internalType": "uint256",
          "name": "tokenId",
          "type": "uint256"
        }
      ],
      "name": "tokenURI",
      "outputs": [
        {
          "internalType": "string",
          "name": "",
          "type": "string"
        }
      ],
      "stateMutability": "view",
      "type": "function"
    },
    {
      "inputs": [
        {
          "internalType": "address",
          "name": "from",
          "type": "address"
        },
        {
          "internalType": "address",
          "name": "to",
          "type": "address"
        },
        {
          "internalType": "uint256",
          "name": "tokenId",
          "type": "uint256"
        }
      ],
      "name": "transferFrom",
      "outputs": [],
      "stateMutability": "nonpayable",
      "type": "function"
    },
    {
      "inputs": [
        {
          "internalType": "uint256",
          "name": "_listingPrice",
          "type": "uint256"
        }
      ],
      "name": "updateListingPrice",
      "outputs": [],
      "stateMutability": "payable",
      "type": "function"
    }
  ],
  "bytecode": "0x608060405234801561001057600080fd5b50615b5a80620000216000396000f3fe60806040526004361061019c5760003560e01c806370a08231116100ec578063be9af5361161008a578063c87b56dd11610064578063c87b56dd146105be578063e985e9c5146105fb578063f474a80214610638578063fe4b84df146106755761019c565b8063be9af53614610547578063c18763f714610563578063c6c9b5b11461058e5761019c565b806395d89b41116100c657806395d89b41146104ae578063a22cb465146104d9578063ae677aa314610502578063b88d4fde1461051e5761019c565b806370a082311461042a57806385535b25146104675780638fafd021146104835761019c565b806320fe84f111610159578063442890d511610133578063442890d51461035a57806345f8fa801461038557806361253a04146103b05780636352211e146103ed5761019c565b806320fe84f1146102dd57806323b872dd1461030857806342842e0e146103315761019c565b806301ffc9a7146101a157806306fdde03146101de578063081812fc14610209578063087ae8a214610246578063095ea7b31461028957806312e85585146102b2575b600080fd5b3480156101ad57600080fd5b506101c860048036038101906101c39190614083565b61069e565b6040516101d591906140cb565b60405180910390f35b3480156101ea57600080fd5b506101f36106ff565b604051610200919061417f565b60405180910390f35b34801561021557600080fd5b50610230600480360381019061022b91906141d7565b610791565b60405161023d9190614245565b60405180910390f35b34801561025257600080fd5b5061026d600480360381019061026891906141d7565b6107d7565b6040516102809796959493929190614290565b60405180910390f35b34801561029557600080fd5b506102b060048036038101906102ab9190614339565b610976565b005b3480156102be57600080fd5b506102c7610a8e565b6040516102d49190614379565b60405180910390f35b3480156102e957600080fd5b506102f2610a98565b6040516102ff9190614494565b60405180910390f35b34801561031457600080fd5b5061032f600480360381019061032a91906144b6565b610b65565b005b34801561033d57600080fd5b50610358600480360381019061035391906144b6565b610bc5565b005b34801561036657600080fd5b5061036f610be5565b60405161037c9190614509565b60405180910390f35b34801561039157600080fd5b5061039a610c0f565b6040516103a791906146b6565b60405180910390f35b3480156103bc57600080fd5b506103d760048036038101906103d291906141d7565b611021565b6040516103e49190614796565b60405180910390f35b3480156103f957600080fd5b50610414600480360381019061040f91906141d7565b6110c2565b6040516104219190614245565b60405180910390f35b34801561043657600080fd5b50610451600480360381019061044c91906147b8565b611149565b60405161045e9190614379565b60405180910390f35b610481600480360381019061047c91906147e5565b611201565b005b34801561048f57600080fd5b50610498611487565b6040516104a591906146b6565b60405180910390f35b3480156104ba57600080fd5b506104c3611814565b6040516104d0919061417f565b60405180910390f35b3480156104e557600080fd5b5061050060048036038101906104fb9190614851565b6118a6565b005b61051c600480360381019061051791906141d7565b6118bc565b005b34801561052a57600080fd5b50610545600480360381019061054091906149c6565b611956565b005b610561600480360381019061055c91906141d7565b6119b8565b005b34801561056f57600080fd5b50610578611c97565b60405161058591906146b6565b60405180910390f35b6105a860048036038101906105a39190614aea565b6120a9565b6040516105b59190614379565b60405180910390f35b3480156105ca57600080fd5b506105e560048036038101906105e091906141d7565b6120ee565b6040516105f2919061417f565b60405180910390f35b34801561060757600080fd5b50610622600480360381019061061d9190614b75565b612201565b60405161062f91906140cb565b60405180910390f35b34801561064457600080fd5b5061065f600480360381019061065a91906147b8565b612295565b60405161066c919061417f565b60405180910390f35b34801561068157600080fd5b5061069c600480360381019061069791906141d7565b612369565b005b6000634906490660e01b7bffffffffffffffffffffffffffffffffffffffffffffffffffffffff1916827bffffffffffffffffffffffffffffffffffffffffffffffffffffffff191614806106f857506106f7826126d8565b5b9050919050565b60606065805461070e90614be4565b80601f016020809104026020016040519081016040528092919081815260200182805461073a90614be4565b80156107875780601f1061075c57610100808354040283529160200191610787565b820191906000526020600020905b81548152906001019060200180831161076a57829003601f168201915b5050505050905090565b600061079c826127ba565b6069600083815260200190815260200160002060009054906101000a900473ffffffffffffffffffffffffffffffffffffffff169050919050565b60cd6020528060005260406000206000915090508060000154908060010160009054906101000a900473ffffffffffffffffffffffffffffffffffffffff16908060020160009054906101000a900473ffffffffffffffffffffffffffffffffffffffff16908060030154908060040160009054906101000a900460ff169080600501805461086590614be4565b80601f016020809104026020016040519081016040528092919081815260200182805461089190614be4565b80156108de5780601f106108b3576101008083540402835291602001916108de565b820191906000526020600020905b8154815290600101906020018083116108c157829003601f168201915b5050505050908060060180546108f390614be4565b80601f016020809104026020016040519081016040528092919081815260200182805461091f90614be4565b801561096c5780601f106109415761010080835404028352916020019161096c565b820191906000526020600020905b81548152906001019060200180831161094f57829003601f168201915b5050505050905087565b6000610981826110c2565b90508073ffffffffffffffffffffffffffffffffffffffff168373ffffffffffffffffffffffffffffffffffffffff1614156109f2576040517f08c379a00000000000000000000000000000000000000000000000000000000081526004016109e990614c88565b60405180910390fd5b8073ffffffffffffffffffffffffffffffffffffffff16610a11612805565b73ffffffffffffffffffffffffffffffffffffffff161480610a405750610a3f81610a3a612805565b612201565b5b610a7f576040517f08c379a0000000000000000000000000000000000000000000000000000000008152600401610a7690614d1a565b60405180910390fd5b610a89838361280d565b505050565b600060cb54905090565b610aa0613e2b565b60d1600680602002604051908101604052809291906000905b82821015610b5c578382018054610acf90614be4565b80601f0160208091040260200160405190810160405280929190818152602001828054610afb90614be4565b8015610b485780601f10610b1d57610100808354040283529160200191610b48565b820191906000526020600020905b815481529060010190602001808311610b2b57829003601f168201915b505050505081526020019060010190610ab9565b50505050905090565b610b76610b70612805565b826128c6565b610bb5576040517f08c379a0000000000000000000000000000000000000000000000000000000008152600401610bac90614dac565b60405180910390fd5b610bc083838361295b565b505050565b610be083838360405180602001604052806000815250611956565b505050565b600060cc60009054906101000a900473ffffffffffffffffffffffffffffffffffffffff16905090565b60606000610c1d60c9612c55565b905060008060005b83811015610cc6573373ffffffffffffffffffffffffffffffffffffffff1660cd6000600184610c559190614dfb565b815260200190815260200160002060010160009054906101000a900473ffffffffffffffffffffffffffffffffffffffff1673ffffffffffffffffffffffffffffffffffffffff161415610cb357600183610cb09190614dfb565b92505b8080610cbe90614e51565b915050610c25565b5060008267ffffffffffffffff811115610ce357610ce261489b565b5b604051908082528060200260200182016040528015610d1c57816020015b610d09613e52565b815260200190600190039081610d015790505b50905060005b84811015611016573373ffffffffffffffffffffffffffffffffffffffff1660cd6000600184610d529190614dfb565b815260200190815260200160002060010160009054906101000a900473ffffffffffffffffffffffffffffffffffffffff1673ffffffffffffffffffffffffffffffffffffffff161415611003576000600182610daf9190614dfb565b9050600060cd60008381526020019081526020016000209050806040518060e0016040529081600082015481526020016001820160009054906101000a900473ffffffffffffffffffffffffffffffffffffffff1673ffffffffffffffffffffffffffffffffffffffff1673ffffffffffffffffffffffffffffffffffffffff1681526020016002820160009054906101000a900473ffffffffffffffffffffffffffffffffffffffff1673ffffffffffffffffffffffffffffffffffffffff1673ffffffffffffffffffffffffffffffffffffffff168152602001600382015481526020016004820160009054906101000a900460ff16151515158152602001600582018054610ebf90614be4565b80601f0160208091040260200160405190810160405280929190818152602001828054610eeb90614be4565b8015610f385780601f10610f0d57610100808354040283529160200191610f38565b820191906000526020600020905b815481529060010190602001808311610f1b57829003601f168201915b50505050508152602001600682018054610f5190614be4565b80601f0160208091040260200160405190810160405280929190818152602001828054610f7d90614be4565b8015610fca5780601f10610f9f57610100808354040283529160200191610fca565b820191906000526020600020905b815481529060010190602001808311610fad57829003601f168201915b505050505081525050848681518110610fe657610fe5614e9a565b5b6020026020010181905250600185610ffe9190614dfb565b945050505b808061100e90614e51565b915050610d22565b508094505050505090565b606060ce60008381526020019081526020016000208054806020026020016040519081016040528092919081815260200182805480156110b657602002820191906000526020600020905b8160009054906101000a900473ffffffffffffffffffffffffffffffffffffffff1673ffffffffffffffffffffffffffffffffffffffff168152602001906001019080831161106c575b50505050509050919050565b6000806110ce83612c63565b9050600073ffffffffffffffffffffffffffffffffffffffff168173ffffffffffffffffffffffffffffffffffffffff161415611140576040517f08c379a000000000000000000000000000000000000000000000000000000000815260040161113790614f15565b60405180910390fd5b80915050919050565b60008073ffffffffffffffffffffffffffffffffffffffff168273ffffffffffffffffffffffffffffffffffffffff1614156111ba576040517f08c379a00000000000000000000000000000000000000000000000000000000081526004016111b190614fa7565b60405180910390fd5b606860008373ffffffffffffffffffffffffffffffffffffffff1673ffffffffffffffffffffffffffffffffffffffff168152602001908152602001600020549050919050565b3373ffffffffffffffffffffffffffffffffffffffff1660cd600084815260200190815260200160002060020160009054906101000a900473ffffffffffffffffffffffffffffffffffffffff1673ffffffffffffffffffffffffffffffffffffffff16146112a5576040517f08c379a000000000000000000000000000000000000000000000000000000000815260040161129c90615013565b60405180910390fd5b60cb5434146112e9576040517f08c379a00000000000000000000000000000000000000000000000000000000081526004016112e0906150a5565b60405180910390fd5b600060cd600084815260200190815260200160002060040160006101000a81548160ff0219169083151502179055508060cd6000848152602001908152602001600020600301819055503360cd600084815260200190815260200160002060010160006101000a81548173ffffffffffffffffffffffffffffffffffffffff021916908373ffffffffffffffffffffffffffffffffffffffff1602179055503060cd600084815260200190815260200160002060020160006101000a81548173ffffffffffffffffffffffffffffffffffffffff021916908373ffffffffffffffffffffffffffffffffffffffff1602179055506113e760ca612ca0565b600160cf60003373ffffffffffffffffffffffffffffffffffffffff1673ffffffffffffffffffffffffffffffffffffffff16815260200190815260200160002060cd600085815260200190815260200160002060060160405161144b9190615164565b90815260200160405180910390206000828254611468919061517b565b9250508190555061147833612cfc565b61148333308461295b565b5050565b6060600061149560c9612c55565b905060006114a360ca612c55565b6114ad60c9612c55565b6114b7919061517b565b90506000808267ffffffffffffffff8111156114d6576114d561489b565b5b60405190808252806020026020018201604052801561150f57816020015b6114fc613e52565b8152602001906001900390816114f45790505b50905060005b84811015611809573073ffffffffffffffffffffffffffffffffffffffff1660cd60006001846115459190614dfb565b815260200190815260200160002060020160009054906101000a900473ffffffffffffffffffffffffffffffffffffffff1673ffffffffffffffffffffffffffffffffffffffff1614156117f65760006001826115a29190614dfb565b9050600060cd60008381526020019081526020016000209050806040518060e0016040529081600082015481526020016001820160009054906101000a900473ffffffffffffffffffffffffffffffffffffffff1673ffffffffffffffffffffffffffffffffffffffff1673ffffffffffffffffffffffffffffffffffffffff1681526020016002820160009054906101000a900473ffffffffffffffffffffffffffffffffffffffff1673ffffffffffffffffffffffffffffffffffffffff1673ffffffffffffffffffffffffffffffffffffffff168152602001600382015481526020016004820160009054906101000a900460ff161515151581526020016005820180546116b290614be4565b80601f01602080910402602001604051908101604052809291908181526020018280546116de90614be4565b801561172b5780601f106117005761010080835404028352916020019161172b565b820191906000526020600020905b81548152906001019060200180831161170e57829003601f168201915b5050505050815260200160068201805461174490614be4565b80601f016020809104026020016040519081016040528092919081815260200182805461177090614be4565b80156117bd5780601f10611792576101008083540402835291602001916117bd565b820191906000526020600020905b8154815290600101906020018083116117a057829003601f168201915b5050505050815250508486815181106117d9576117d8614e9a565b5b60200260200101819052506001856117f19190614dfb565b945050505b808061180190614e51565b915050611515565b508094505050505090565b60606066805461182390614be4565b80601f016020809104026020016040519081016040528092919081815260200182805461184f90614be4565b801561189c5780601f106118715761010080835404028352916020019161189c565b820191906000526020600020905b81548152906001019060200180831161187f57829003601f168201915b5050505050905090565b6118b86118b1612805565b8383612f06565b5050565b60cc60009054906101000a900473ffffffffffffffffffffffffffffffffffffffff1673ffffffffffffffffffffffffffffffffffffffff163373ffffffffffffffffffffffffffffffffffffffff161461194c576040517f08c379a000000000000000000000000000000000000000000000000000000000815260040161194390615221565b60405180910390fd5b8060cb8190555050565b611967611961612805565b836128c6565b6119a6576040517f08c379a000000000000000000000000000000000000000000000000000000000815260040161199d90614dac565b60405180910390fd5b6119b284848484613073565b50505050565b600060cd600083815260200190815260200160002060030154905060cb54816119e19190614dfb565b341015611a23576040517f08c379a0000000000000000000000000000000000000000000000000000000008152600401611a1a906152d9565b60405180910390fd5b60cd600083815260200190815260200160002060010160009054906101000a900473ffffffffffffffffffffffffffffffffffffffff1673ffffffffffffffffffffffffffffffffffffffff166108fc349081150290604051600060405180830381858888f19350505050158015611a9f573d6000803e3d6000fd5b503360cd600084815260200190815260200160002060020160006101000a81548173ffffffffffffffffffffffffffffffffffffffff021916908373ffffffffffffffffffffffffffffffffffffffff160217905550600160cd600084815260200190815260200160002060040160006101000a81548160ff0219169083151502179055503360cd600084815260200190815260200160002060010160006101000a81548173ffffffffffffffffffffffffffffffffffffffff021916908373ffffffffffffffffffffffffffffffffffffffff160217905550611b8360ca6130cf565b60ce6000838152602001908152602001600020339080600181540180825580915050600190039060005260206000200160009091909190916101000a81548173ffffffffffffffffffffffffffffffffffffffff021916908373ffffffffffffffffffffffffffffffffffffffff160217905550600160cf60003373ffffffffffffffffffffffffffffffffffffffff1673ffffffffffffffffffffffffffffffffffffffff16815260200190815260200160002060cd6000858152602001908152602001600020600601604051611c5b9190615164565b90815260200160405180910390206000828254611c789190614dfb565b92505081905550611c8833612cfc565b611c9330338461295b565b5050565b60606000611ca560c9612c55565b905060008060005b83811015611d4e573373ffffffffffffffffffffffffffffffffffffffff1660cd6000600184611cdd9190614dfb565b815260200190815260200160002060020160009054906101000a900473ffffffffffffffffffffffffffffffffffffffff1673ffffffffffffffffffffffffffffffffffffffff161415611d3b57600183611d389190614dfb565b92505b8080611d4690614e51565b915050611cad565b5060008267ffffffffffffffff811115611d6b57611d6a61489b565b5b604051908082528060200260200182016040528015611da457816020015b611d91613e52565b815260200190600190039081611d895790505b50905060005b8481101561209e573373ffffffffffffffffffffffffffffffffffffffff1660cd6000600184611dda9190614dfb565b815260200190815260200160002060020160009054906101000a900473ffffffffffffffffffffffffffffffffffffffff1673ffffffffffffffffffffffffffffffffffffffff16141561208b576000600182611e379190614dfb565b9050600060cd60008381526020019081526020016000209050806040518060e0016040529081600082015481526020016001820160009054906101000a900473ffffffffffffffffffffffffffffffffffffffff1673ffffffffffffffffffffffffffffffffffffffff1673ffffffffffffffffffffffffffffffffffffffff1681526020016002820160009054906101000a900473ffffffffffffffffffffffffffffffffffffffff1673ffffffffffffffffffffffffffffffffffffffff1673ffffffffffffffffffffffffffffffffffffffff168152602001600382015481526020016004820160009054906101000a900460ff16151515158152602001600582018054611f4790614be4565b80601f0160208091040260200160405190810160405280929190818152602001828054611f7390614be4565b8015611fc05780601f10611f9557610100808354040283529160200191611fc0565b820191906000526020600020905b815481529060010190602001808311611fa357829003601f168201915b50505050508152602001600682018054611fd990614be4565b80601f016020809104026020016040519081016040528092919081815260200182805461200590614be4565b80156120525780601f1061202757610100808354040283529160200191612052565b820191906000526020600020905b81548152906001019060200180831161203557829003601f168201915b50505050508152505084868151811061206e5761206d614e9a565b5b60200260200101819052506001856120869190614dfb565b945050505b808061209690614e51565b915050611daa565b508094505050505090565b60006120b560c96130cf565b60006120c160c9612c55565b90506120cd33826130e5565b6120d78186613303565b6120e3818587866133ae565b809150509392505050565b60606120f9826127ba565b600060976000848152602001908152602001600020805461211990614be4565b80601f016020809104026020016040519081016040528092919081815260200182805461214590614be4565b80156121925780601f1061216757610100808354040283529160200191612192565b820191906000526020600020905b81548152906001019060200180831161217557829003601f168201915b5050505050905060006121a36136cc565b90506000815114156121b95781925050506121fc565b6000825111156121ee5780826040516020016121d692919061532a565b604051602081830303815290604052925050506121fc565b6121f7846136e3565b925050505b919050565b6000606a60008473ffffffffffffffffffffffffffffffffffffffff1673ffffffffffffffffffffffffffffffffffffffff16815260200190815260200160002060008373ffffffffffffffffffffffffffffffffffffffff1673ffffffffffffffffffffffffffffffffffffffff16815260200190815260200160002060009054906101000a900460ff16905092915050565b606060d060008373ffffffffffffffffffffffffffffffffffffffff1673ffffffffffffffffffffffffffffffffffffffff16815260200190815260200160002060000180546122e490614be4565b80601f016020809104026020016040519081016040528092919081815260200182805461231090614be4565b801561235d5780601f106123325761010080835404028352916020019161235d565b820191906000526020600020905b81548152906001019060200180831161234057829003601f168201915b50505050509050919050565b60008060019054906101000a900460ff1615905080801561239a5750600160008054906101000a900460ff1660ff16105b806123c757506123a93061374b565b1580156123c65750600160008054906101000a900460ff1660ff16145b5b612406576040517f08c379a00000000000000000000000000000000000000000000000000000000081526004016123fd906153c0565b60405180910390fd5b60016000806101000a81548160ff021916908360ff1602179055508015612443576001600060016101000a81548160ff0219169083151502179055505b6124b76040518060400160405280601381526020017f4e4654204d657461766572736520546f6b656e000000000000000000000000008152506040518060400160405280600581526020017f4d594e465400000000000000000000000000000000000000000000000000000081525061376e565b3360cc60006101000a81548173ffffffffffffffffffffffffffffffffffffffff021916908373ffffffffffffffffffffffffffffffffffffffff1602179055508160cb819055506040518060c001604052806040518060400160405280600681526020017f67616d696e67000000000000000000000000000000000000000000000000000081525081526020016040518060400160405280600681526020017f686f72726f72000000000000000000000000000000000000000000000000000081525081526020016040518060400160405280600681526020017f6d6f6e6b6579000000000000000000000000000000000000000000000000000081525081526020016040518060400160405280600581526020017f616e696d6500000000000000000000000000000000000000000000000000000081525081526020016040518060400160405280600381526020017f617274000000000000000000000000000000000000000000000000000000000081525081526020016040518060400160405280600581526020017f6d6f76696500000000000000000000000000000000000000000000000000000081525081525060d190600661267a929190613ebd565b5080156126d45760008060016101000a81548160ff0219169083151502179055507f7f26b83ff96e1f2b6a682f133852f6798a09c465da95921460cefb384740249860016040516126cb9190615432565b60405180910390a15b5050565b60007f80ac58cd000000000000000000000000000000000000000000000000000000007bffffffffffffffffffffffffffffffffffffffffffffffffffffffff1916827bffffffffffffffffffffffffffffffffffffffffffffffffffffffff191614806127a357507f5b5e139f000000000000000000000000000000000000000000000000000000007bffffffffffffffffffffffffffffffffffffffffffffffffffffffff1916827bffffffffffffffffffffffffffffffffffffffffffffffffffffffff1916145b806127b357506127b2826137cb565b5b9050919050565b6127c381613835565b612802576040517f08c379a00000000000000000000000000000000000000000000000000000000081526004016127f990614f15565b60405180910390fd5b50565b600033905090565b816069600083815260200190815260200160002060006101000a81548173ffffffffffffffffffffffffffffffffffffffff021916908373ffffffffffffffffffffffffffffffffffffffff160217905550808273ffffffffffffffffffffffffffffffffffffffff16612880836110c2565b73ffffffffffffffffffffffffffffffffffffffff167f8c5be1e5ebec7d5bd14f71427d1e84f3dd0314c0f7b2291e5b200ac8c7c3b92560405160405180910390a45050565b6000806128d2836110c2565b90508073ffffffffffffffffffffffffffffffffffffffff168473ffffffffffffffffffffffffffffffffffffffff16148061291457506129138185612201565b5b8061295257508373ffffffffffffffffffffffffffffffffffffffff1661293a84610791565b73ffffffffffffffffffffffffffffffffffffffff16145b91505092915050565b8273ffffffffffffffffffffffffffffffffffffffff1661297b826110c2565b73ffffffffffffffffffffffffffffffffffffffff16146129d1576040517f08c379a00000000000000000000000000000000000000000000000000000000081526004016129c8906154bf565b60405180910390fd5b600073ffffffffffffffffffffffffffffffffffffffff168273ffffffffffffffffffffffffffffffffffffffff161415612a41576040517f08c379a0000000000000000000000000000000000000000000000000000000008152600401612a3890615551565b60405180910390fd5b612a4e8383836001613876565b8273ffffffffffffffffffffffffffffffffffffffff16612a6e826110c2565b73ffffffffffffffffffffffffffffffffffffffff1614612ac4576040517f08c379a0000000000000000000000000000000000000000000000000000000008152600401612abb906154bf565b60405180910390fd5b6069600082815260200190815260200160002060006101000a81549073ffffffffffffffffffffffffffffffffffffffff02191690556001606860008573ffffffffffffffffffffffffffffffffffffffff1673ffffffffffffffffffffffffffffffffffffffff168152602001908152602001600020600082825403925050819055506001606860008473ffffffffffffffffffffffffffffffffffffffff1673ffffffffffffffffffffffffffffffffffffffff16815260200190815260200160002060008282540192505081905550816067600083815260200190815260200160002060006101000a81548173ffffffffffffffffffffffffffffffffffffffff021916908373ffffffffffffffffffffffffffffffffffffffff160217905550808273ffffffffffffffffffffffffffffffffffffffff168473ffffffffffffffffffffffffffffffffffffffff167fddf252ad1be2c89b69c2b068fc378daa952ba7f163c4a11628f55a4df523b3ef60405160405180910390a4612c50838383600161387c565b505050565b600081600001549050919050565b60006067600083815260200190815260200160002060009054906101000a900473ffffffffffffffffffffffffffffffffffffffff169050919050565b60008160000154905060008111612cec576040517f08c379a0000000000000000000000000000000000000000000000000000000008152600401612ce3906155bd565b60405180910390fd5b6001810382600001819055505050565b600060d1600680602002604051908101604052809291906000905b82821015612dba578382018054612d2d90614be4565b80601f0160208091040260200160405190810160405280929190818152602001828054612d5990614be4565b8015612da65780601f10612d7b57610100808354040283529160200191612da6565b820191906000526020600020905b815481529060010190602001808311612d8957829003601f168201915b505050505081526020019060010190612d17565b5050505090506000606060005b6006811015612e8157600060cf60008773ffffffffffffffffffffffffffffffffffffffff1673ffffffffffffffffffffffffffffffffffffffff168152602001908152602001600020858360068110612e2457612e23614e9a565b5b6020020151604051612e3691906155dd565b908152602001604051809103902054905083811115612e6d57809350848260068110612e6557612e64614e9a565b5b602002015192505b508080612e7990614e51565b915050612dc7565b5060405180604001604052808281526020018381525060d060008673ffffffffffffffffffffffffffffffffffffffff1673ffffffffffffffffffffffffffffffffffffffff1681526020019081526020016000206000820151816000019080519060200190612ef2929190613f10565b506020820151816001015590505050505050565b8173ffffffffffffffffffffffffffffffffffffffff168373ffffffffffffffffffffffffffffffffffffffff161415612f75576040517f08c379a0000000000000000000000000000000000000000000000000000000008152600401612f6c90615640565b60405180910390fd5b80606a60008573ffffffffffffffffffffffffffffffffffffffff1673ffffffffffffffffffffffffffffffffffffffff16815260200190815260200160002060008473ffffffffffffffffffffffffffffffffffffffff1673ffffffffffffffffffffffffffffffffffffffff16815260200190815260200160002060006101000a81548160ff0219169083151502179055508173ffffffffffffffffffffffffffffffffffffffff168373ffffffffffffffffffffffffffffffffffffffff167f17307eab39ab6107e8899845ad3d59bd9653f200f220920489ca2b5937696c318360405161306691906140cb565b60405180910390a3505050565b61307e84848461295b565b61308a84848484613882565b6130c9576040517f08c379a00000000000000000000000000000000000000000000000000000000081526004016130c0906156d2565b60405180910390fd5b50505050565b6001816000016000828254019250508190555050565b600073ffffffffffffffffffffffffffffffffffffffff168273ffffffffffffffffffffffffffffffffffffffff161415613155576040517f08c379a000000000000000000000000000000000000000000000000000000000815260040161314c9061573e565b60405180910390fd5b61315e81613835565b1561319e576040517f08c379a0000000000000000000000000000000000000000000000000000000008152600401613195906157aa565b60405180910390fd5b6131ac600083836001613876565b6131b581613835565b156131f5576040517f08c379a00000000000000000000000000000000000000000000000000000000081526004016131ec906157aa565b60405180910390fd5b6001606860008473ffffffffffffffffffffffffffffffffffffffff1673ffffffffffffffffffffffffffffffffffffffff16815260200190815260200160002060008282540192505081905550816067600083815260200190815260200160002060006101000a81548173ffffffffffffffffffffffffffffffffffffffff021916908373ffffffffffffffffffffffffffffffffffffffff160217905550808273ffffffffffffffffffffffffffffffffffffffff16600073ffffffffffffffffffffffffffffffffffffffff167fddf252ad1be2c89b69c2b068fc378daa952ba7f163c4a11628f55a4df523b3ef60405160405180910390a46132ff60008383600161387c565b5050565b61330c82613835565b61334b576040517f08c379a00000000000000000000000000000000000000000000000000000000081526004016133429061583c565b60405180910390fd5b80609760008481526020019081526020016000209080519060200190613372929190613f10565b507ff8e1a15aba9398e019f0b49df1a4fde98ee17ae345cb5f6b5e2c27f5033e8ce7826040516133a29190614379565b60405180910390a15050565b600083116133f1576040517f08c379a00000000000000000000000000000000000000000000000000000000081526004016133e8906158a8565b60405180910390fd5b60cb543414613435576040517f08c379a000000000000000000000000000000000000000000000000000000000815260040161342c906150a5565b60405180910390fd5b61343e81613a19565b61347d576040517f08c379a000000000000000000000000000000000000000000000000000000000815260040161347490615914565b60405180910390fd5b6040518060e001604052808581526020013373ffffffffffffffffffffffffffffffffffffffff1681526020013073ffffffffffffffffffffffffffffffffffffffff1681526020018481526020016000151581526020018381526020018281525060cd60008681526020019081526020016000206000820151816000015560208201518160010160006101000a81548173ffffffffffffffffffffffffffffffffffffffff021916908373ffffffffffffffffffffffffffffffffffffffff16021790555060408201518160020160006101000a81548173ffffffffffffffffffffffffffffffffffffffff021916908373ffffffffffffffffffffffffffffffffffffffff1602179055506060820151816003015560808201518160040160006101000a81548160ff02191690831515021790555060a08201518160050190805190602001906135d0929190613f10565b5060c08201518160060190805190602001906135ed929190613f10565b5090505060ce6000858152602001908152602001600020339080600181540180825580915050600190039060005260206000200160009091909190916101000a81548173ffffffffffffffffffffffffffffffffffffffff021916908373ffffffffffffffffffffffffffffffffffffffff16021790555061367033308661295b565b828160405161367f91906155dd565b6040518091039020857f749b9c6647f5237b100ae8062d7028d1bc4b53224324e62ebd6eaaf040aaf57e33306000886040516136be9493929190615934565b60405180910390a450505050565b606060405180602001604052806000815250905090565b60606136ee826127ba565b60006136f86136cc565b905060008151116137185760405180602001604052806000815250613743565b8061372284613b7f565b60405160200161373392919061532a565b6040516020818303038152906040525b915050919050565b6000808273ffffffffffffffffffffffffffffffffffffffff163b119050919050565b600060019054906101000a900460ff166137bd576040517f08c379a00000000000000000000000000000000000000000000000000000000081526004016137b4906159f2565b60405180910390fd5b6137c78282613c57565b5050565b60007f01ffc9a7000000000000000000000000000000000000000000000000000000007bffffffffffffffffffffffffffffffffffffffffffffffffffffffff1916827bffffffffffffffffffffffffffffffffffffffffffffffffffffffff1916149050919050565b60008073ffffffffffffffffffffffffffffffffffffffff1661385783612c63565b73ffffffffffffffffffffffffffffffffffffffff1614159050919050565b50505050565b50505050565b60006138a38473ffffffffffffffffffffffffffffffffffffffff1661374b565b15613a0c578373ffffffffffffffffffffffffffffffffffffffff1663150b7a026138cc612805565b8786866040518563ffffffff1660e01b81526004016138ee9493929190615a67565b602060405180830381600087803b15801561390857600080fd5b505af192505050801561393957506040513d601f19601f820116820180604052508101906139369190615ac8565b60015b6139bc573d8060008114613969576040519150601f19603f3d011682016040523d82523d6000602084013e61396e565b606091505b506000815114156139b4576040517f08c379a00000000000000000000000000000000000000000000000000000000081526004016139ab906156d2565b60405180910390fd5b805181602001fd5b63150b7a0260e01b7bffffffffffffffffffffffffffffffffffffffffffffffffffffffff1916817bffffffffffffffffffffffffffffffffffffffffffffffffffffffff191614915050613a11565b600190505b949350505050565b60008060d1600680602002604051908101604052809291906000905b82821015613ad8578382018054613a4b90614be4565b80601f0160208091040260200160405190810160405280929190818152602001828054613a7790614be4565b8015613ac45780601f10613a9957610100808354040283529160200191613ac4565b820191906000526020600020905b815481529060010190602001808311613aa757829003601f168201915b505050505081526020019060010190613a35565b50505050905060005b6006811015613b7357818160068110613afd57613afc614e9a565b5b6020020151604051602001613b1291906155dd565b6040516020818303038152906040528051906020012084604051602001613b3991906155dd565b604051602081830303815290604052805190602001201415613b6057600192505050613b7a565b8080613b6b90614e51565b915050613ae1565b5060009150505b919050565b606060006001613b8e84613cd8565b01905060008167ffffffffffffffff811115613bad57613bac61489b565b5b6040519080825280601f01601f191660200182016040528015613bdf5781602001600182028036833780820191505090505b509050600082602001820190505b600115613c4c578080600190039150507f3031323334353637383961626364656600000000000000000000000000000000600a86061a8153600a8581613c3657613c35615af5565b5b0494506000851415613c4757613c4c565b613bed565b819350505050919050565b600060019054906101000a900460ff16613ca6576040517f08c379a0000000000000000000000000000000000000000000000000000000008152600401613c9d906159f2565b60405180910390fd5b8160659080519060200190613cbc929190613f10565b508060669080519060200190613cd3929190613f10565b505050565b600080600090507a184f03e93ff9f4daa797ed6e38ed64bf6a1f0100000000000000008310613d36577a184f03e93ff9f4daa797ed6e38ed64bf6a1f0100000000000000008381613d2c57613d2b615af5565b5b0492506040810190505b6d04ee2d6d415b85acef81000000008310613d73576d04ee2d6d415b85acef81000000008381613d6957613d68615af5565b5b0492506020810190505b662386f26fc100008310613da257662386f26fc100008381613d9857613d97615af5565b5b0492506010810190505b6305f5e1008310613dcb576305f5e1008381613dc157613dc0615af5565b5b0492506008810190505b6127108310613df0576127108381613de657613de5615af5565b5b0492506004810190505b60648310613e135760648381613e0957613e08615af5565b5b0492506002810190505b600a8310613e22576001810190505b80915050919050565b6040518060c001604052806006905b6060815260200190600190039081613e3a5790505090565b6040518060e0016040528060008152602001600073ffffffffffffffffffffffffffffffffffffffff168152602001600073ffffffffffffffffffffffffffffffffffffffff1681526020016000815260200160001515815260200160608152602001606081525090565b8260068101928215613eff579160200282015b82811115613efe578251829080519060200190613eee929190613f10565b5091602001919060010190613ed0565b5b509050613f0c9190613f96565b5090565b828054613f1c90614be4565b90600052602060002090601f016020900481019282613f3e5760008555613f85565b82601f10613f5757805160ff1916838001178555613f85565b82800160010185558215613f85579182015b82811115613f84578251825591602001919060010190613f69565b5b509050613f929190613fba565b5090565b5b80821115613fb65760008181613fad9190613fd7565b50600101613f97565b5090565b5b80821115613fd3576000816000905550600101613fbb565b5090565b508054613fe390614be4565b6000825580601f10613ff55750614014565b601f0160209004906000526020600020908101906140139190613fba565b5b50565b6000604051905090565b600080fd5b600080fd5b60007fffffffff0000000000000000000000000000000000000000000000000000000082169050919050565b6140608161402b565b811461406b57600080fd5b50565b60008135905061407d81614057565b92915050565b60006020828403121561409957614098614021565b5b60006140a78482850161406e565b91505092915050565b60008115159050919050565b6140c5816140b0565b82525050565b60006020820190506140e060008301846140bc565b92915050565b600081519050919050565b600082825260208201905092915050565b60005b83811015614120578082015181840152602081019050614105565b8381111561412f576000848401525b50505050565b6000601f19601f8301169050919050565b6000614151826140e6565b61415b81856140f1565b935061416b818560208601614102565b61417481614135565b840191505092915050565b600060208201905081810360008301526141998184614146565b905092915050565b6000819050919050565b6141b4816141a1565b81146141bf57600080fd5b50565b6000813590506141d1816141ab565b92915050565b6000602082840312156141ed576141ec614021565b5b60006141fb848285016141c2565b91505092915050565b600073ffffffffffffffffffffffffffffffffffffffff82169050919050565b600061422f82614204565b9050919050565b61423f81614224565b82525050565b600060208201905061425a6000830184614236565b92915050565b614269816141a1565b82525050565b600061427a82614204565b9050919050565b61428a8161426f565b82525050565b600060e0820190506142a5600083018a614260565b6142b26020830189614281565b6142bf6040830188614281565b6142cc6060830187614260565b6142d960808301866140bc565b81810360a08301526142eb8185614146565b905081810360c08301526142ff8184614146565b905098975050505050505050565b61431681614224565b811461432157600080fd5b50565b6000813590506143338161430d565b92915050565b600080604083850312156143505761434f614021565b5b600061435e85828601614324565b925050602061436f858286016141c2565b9150509250929050565b600060208201905061438e6000830184614260565b92915050565b600060069050919050565b600081905092915050565b6000819050919050565b600082825260208201905092915050565b60006143d0826140e6565b6143da81856143b4565b93506143ea818560208601614102565b6143f381614135565b840191505092915050565b600061440a83836143c5565b905092915050565b6000602082019050919050565b600061442a82614394565b614434818561439f565b935083602082028501614446856143aa565b8060005b85811015614482578484038952815161446385826143fe565b945061446e83614412565b925060208a0199505060018101905061444a565b50829750879550505050505092915050565b600060208201905081810360008301526144ae818461441f565b905092915050565b6000806000606084860312156144cf576144ce614021565b5b60006144dd86828701614324565b93505060206144ee86828701614324565b92505060406144ff868287016141c2565b9150509250925092565b600060208201905061451e6000830184614281565b92915050565b600081519050919050565b600082825260208201905092915050565b6000819050602082019050919050565b614559816141a1565b82525050565b6145688161426f565b82525050565b614577816140b0565b82525050565b600060e0830160008301516145956000860182614550565b5060208301516145a8602086018261455f565b5060408301516145bb604086018261455f565b5060608301516145ce6060860182614550565b5060808301516145e1608086018261456e565b5060a083015184820360a08601526145f982826143c5565b91505060c083015184820360c086015261461382826143c5565b9150508091505092915050565b600061462c838361457d565b905092915050565b6000602082019050919050565b600061464c82614524565b614656818561452f565b93508360208202850161466885614540565b8060005b858110156146a457848403895281516146858582614620565b945061469083614634565b925060208a0199505060018101905061466c565b50829750879550505050505092915050565b600060208201905081810360008301526146d08184614641565b905092915050565b600081519050919050565b600082825260208201905092915050565b6000819050602082019050919050565b61470d81614224565b82525050565b600061471f8383614704565b60208301905092915050565b6000602082019050919050565b6000614743826146d8565b61474d81856146e3565b9350614758836146f4565b8060005b838110156147895781516147708882614713565b975061477b8361472b565b92505060018101905061475c565b5085935050505092915050565b600060208201905081810360008301526147b08184614738565b905092915050565b6000602082840312156147ce576147cd614021565b5b60006147dc84828501614324565b91505092915050565b600080604083850312156147fc576147fb614021565b5b600061480a858286016141c2565b925050602061481b858286016141c2565b9150509250929050565b61482e816140b0565b811461483957600080fd5b50565b60008135905061484b81614825565b92915050565b6000806040838503121561486857614867614021565b5b600061487685828601614324565b92505060206148878582860161483c565b9150509250929050565b600080fd5b600080fd5b7f4e487b7100000000000000000000000000000000000000000000000000000000600052604160045260246000fd5b6148d382614135565b810181811067ffffffffffffffff821117156148f2576148f161489b565b5b80604052505050565b6000614905614017565b905061491182826148ca565b919050565b600067ffffffffffffffff8211156149315761493061489b565b5b61493a82614135565b9050602081019050919050565b82818337600083830152505050565b600061496961496484614916565b6148fb565b90508281526020810184848401111561498557614984614896565b5b614990848285614947565b509392505050565b600082601f8301126149ad576149ac614891565b5b81356149bd848260208601614956565b91505092915050565b600080600080608085870312156149e0576149df614021565b5b60006149ee87828801614324565b94505060206149ff87828801614324565b9350506040614a10878288016141c2565b925050606085013567ffffffffffffffff811115614a3157614a30614026565b5b614a3d87828801614998565b91505092959194509250565b600067ffffffffffffffff821115614a6457614a6361489b565b5b614a6d82614135565b9050602081019050919050565b6000614a8d614a8884614a49565b6148fb565b905082815260208101848484011115614aa957614aa8614896565b5b614ab4848285614947565b509392505050565b600082601f830112614ad157614ad0614891565b5b8135614ae1848260208601614a7a565b91505092915050565b600080600060608486031215614b0357614b02614021565b5b600084013567ffffffffffffffff811115614b2157614b20614026565b5b614b2d86828701614abc565b9350506020614b3e868287016141c2565b925050604084013567ffffffffffffffff811115614b5f57614b5e614026565b5b614b6b86828701614abc565b9150509250925092565b60008060408385031215614b8c57614b8b614021565b5b6000614b9a85828601614324565b9250506020614bab85828601614324565b9150509250929050565b7f4e487b7100000000000000000000000000000000000000000000000000000000600052602260045260246000fd5b60006002820490506001821680614bfc57607f821691505b60208210811415614c1057614c0f614bb5565b5b50919050565b7f4552433732313a20617070726f76616c20746f2063757272656e74206f776e6560008201527f7200000000000000000000000000000000000000000000000000000000000000602082015250565b6000614c726021836140f1565b9150614c7d82614c16565b604082019050919050565b60006020820190508181036000830152614ca181614c65565b9050919050565b7f4552433732313a20617070726f76652063616c6c6572206973206e6f7420746f60008201527f6b656e206f776e6572206f7220617070726f76656420666f7220616c6c000000602082015250565b6000614d04603d836140f1565b9150614d0f82614ca8565b604082019050919050565b60006020820190508181036000830152614d3381614cf7565b9050919050565b7f4552433732313a2063616c6c6572206973206e6f7420746f6b656e206f776e6560008201527f72206f7220617070726f76656400000000000000000000000000000000000000602082015250565b6000614d96602d836140f1565b9150614da182614d3a565b604082019050919050565b60006020820190508181036000830152614dc581614d89565b9050919050565b7f4e487b7100000000000000000000000000000000000000000000000000000000600052601160045260246000fd5b6000614e06826141a1565b9150614e11836141a1565b9250827fffffffffffffffffffffffffffffffffffffffffffffffffffffffffffffffff03821115614e4657614e45614dcc565b5b828201905092915050565b6000614e5c826141a1565b91507fffffffffffffffffffffffffffffffffffffffffffffffffffffffffffffffff821415614e8f57614e8e614dcc565b5b600182019050919050565b7f4e487b7100000000000000000000000000000000000000000000000000000000600052603260045260246000fd5b7f4552433732313a20696e76616c696420746f6b656e2049440000000000000000600082015250565b6000614eff6018836140f1565b9150614f0a82614ec9565b602082019050919050565b60006020820190508181036000830152614f2e81614ef2565b9050919050565b7f4552433732313a2061646472657373207a65726f206973206e6f74206120766160008201527f6c6964206f776e65720000000000000000000000000000000000000000000000602082015250565b6000614f916029836140f1565b9150614f9c82614f35565b604082019050919050565b60006020820190508181036000830152614fc081614f84565b9050919050565b7f4f6e6c79206f776e65722063616e2073656c6c20746869730000000000000000600082015250565b6000614ffd6018836140f1565b915061500882614fc7565b602082019050919050565b6000602082019050818103600083015261502c81614ff0565b9050919050565b7f5072696365206d75737420626520657175616c20746f206c697374696e67207060008201527f7269636500000000000000000000000000000000000000000000000000000000602082015250565b600061508f6024836140f1565b915061509a82615033565b604082019050919050565b600060208201905081810360008301526150be81615082565b9050919050565b600081905092915050565b60008190508160005260206000209050919050565b600081546150f281614be4565b6150fc81866150c5565b9450600182166000811461511757600181146151285761515b565b60ff1983168652818601935061515b565b615131856150d0565b60005b8381101561515357815481890152600182019150602081019050615134565b838801955050505b50505092915050565b600061517082846150e5565b915081905092915050565b6000615186826141a1565b9150615191836141a1565b9250828210156151a4576151a3614dcc565b5b828203905092915050565b7f4f6e6c79206f776e65722063616e206368616e676520746865206c697374696e60008201527f6720707269636500000000000000000000000000000000000000000000000000602082015250565b600061520b6027836140f1565b9150615216826151af565b604082019050919050565b6000602082019050818103600083015261523a816151fe565b9050919050565b7f506c65617365207375626d6974207468652061736b696e67207072696365206960008201527f6e206f7264657220746f20636f6d706c65746520746865207472616e7361637460208201527f696f6e0000000000000000000000000000000000000000000000000000000000604082015250565b60006152c36043836140f1565b91506152ce82615241565b606082019050919050565b600060208201905081810360008301526152f2816152b6565b9050919050565b6000615304826140e6565b61530e81856150c5565b935061531e818560208601614102565b80840191505092915050565b600061533682856152f9565b915061534282846152f9565b91508190509392505050565b7f496e697469616c697a61626c653a20636f6e747261637420697320616c72656160008201527f647920696e697469616c697a6564000000000000000000000000000000000000602082015250565b60006153aa602e836140f1565b91506153b58261534e565b604082019050919050565b600060208201905081810360008301526153d98161539d565b9050919050565b6000819050919050565b600060ff82169050919050565b6000819050919050565b600061541c615417615412846153e0565b6153f7565b6153ea565b9050919050565b61542c81615401565b82525050565b60006020820190506154476000830184615423565b92915050565b7f4552433732313a207472616e736665722066726f6d20696e636f72726563742060008201527f6f776e6572000000000000000000000000000000000000000000000000000000602082015250565b60006154a96025836140f1565b91506154b48261544d565b604082019050919050565b600060208201905081810360008301526154d88161549c565b9050919050565b7f4552433732313a207472616e7366657220746f20746865207a65726f2061646460008201527f7265737300000000000000000000000000000000000000000000000000000000602082015250565b600061553b6024836140f1565b9150615546826154df565b604082019050919050565b6000602082019050818103600083015261556a8161552e565b9050919050565b7f436f756e7465723a2064656372656d656e74206f766572666c6f770000000000600082015250565b60006155a7601b836140f1565b91506155b282615571565b602082019050919050565b600060208201905081810360008301526155d68161559a565b9050919050565b60006155e982846152f9565b915081905092915050565b7f4552433732313a20617070726f766520746f2063616c6c657200000000000000600082015250565b600061562a6019836140f1565b9150615635826155f4565b602082019050919050565b600060208201905081810360008301526156598161561d565b9050919050565b7f4552433732313a207472616e7366657220746f206e6f6e20455243373231526560008201527f63656976657220696d706c656d656e7465720000000000000000000000000000602082015250565b60006156bc6032836140f1565b91506156c782615660565b604082019050919050565b600060208201905081810360008301526156eb816156af565b9050919050565b7f4552433732313a206d696e7420746f20746865207a65726f2061646472657373600082015250565b60006157286020836140f1565b9150615733826156f2565b602082019050919050565b600060208201905081810360008301526157578161571b565b9050919050565b7f4552433732313a20746f6b656e20616c7265616479206d696e74656400000000600082015250565b6000615794601c836140f1565b915061579f8261575e565b602082019050919050565b600060208201905081810360008301526157c381615787565b9050919050565b7f45524337323155524953746f726167653a2055524920736574206f66206e6f6e60008201527f6578697374656e7420746f6b656e000000000000000000000000000000000000602082015250565b6000615826602e836140f1565b9150615831826157ca565b604082019050919050565b6000602082019050818103600083015261585581615819565b9050919050565b7f5072696365206d757374206265206174206c6561737420310000000000000000600082015250565b60006158926018836140f1565b915061589d8261585c565b602082019050919050565b600060208201905081810360008301526158c181615885565b9050919050565b7f5468652067656e7265206973206e6f7420636f72726563740000000000000000600082015250565b60006158fe6018836140f1565b9150615909826158c8565b602082019050919050565b6000602082019050818103600083015261592d816158f1565b9050919050565b60006080820190506159496000830187614236565b6159566020830186614236565b61596360408301856140bc565b81810360608301526159758184614146565b905095945050505050565b7f496e697469616c697a61626c653a20636f6e7472616374206973206e6f74206960008201527f6e697469616c697a696e67000000000000000000000000000000000000000000602082015250565b60006159dc602b836140f1565b91506159e782615980565b604082019050919050565b60006020820190508181036000830152615a0b816159cf565b9050919050565b600081519050919050565b600082825260208201905092915050565b6000615a3982615a12565b615a438185615a1d565b9350615a53818560208601614102565b615a5c81614135565b840191505092915050565b6000608082019050615a7c6000830187614236565b615a896020830186614236565b615a966040830185614260565b8181036060830152615aa88184615a2e565b905095945050505050565b600081519050615ac281614057565b92915050565b600060208284031215615ade57615add614021565b5b6000615aec84828501615ab3565b91505092915050565b7f4e487b7100000000000000000000000000000000000000000000000000000000600052601260045260246000fdfea26469706673582212206256e1e12be0e3ffc9969825336ce2939adf3ca5445a3750c4b4501cffea155864736f6c63430008090033",
  "linkReferences": {},
  "deployedLinkReferences": {}
}