{
  "_format": "hh-sol-artifact-1",
  "contractName": "NFT_Marketplace",
  "sourceName": "contracts/NFT_Marketplace.sol",
  "abi": [
    {
      "inputs": [],
      "stateMutability": "nonpayable",
      "type": "constructor"
    },
    {
      "anonymous": false,
      "inputs": [
        {
          "indexed": true,
          "internalType": "address",
          "name": "owner",
          "type": "address"
        },
        {
          "indexed": true,
          "internalType": "address",
          "name": "approved",
          "type": "address"
        },
        {
          "indexed": true,
          "internalType": "uint256",
          "name": "tokenId",
          "type": "uint256"
        }
      ],
      "name": "Approval",
      "type": "event"
    },
    {
      "anonymous": false,
      "inputs": [
        {
          "indexed": true,
          "internalType": "address",
          "name": "owner",
          "type": "address"
        },
        {
          "indexed": true,
          "internalType": "address",
          "name": "operator",
          "type": "address"
        },
        {
          "indexed": false,
          "internalType": "bool",
          "name": "approved",
          "type": "bool"
        }
      ],
      "name": "ApprovalForAll",
      "type": "event"
    },
    {
      "anonymous": false,
      "inputs": [
        {
          "indexed": false,
          "internalType": "uint256",
          "name": "_fromTokenId",
          "type": "uint256"
        },
        {
          "indexed": false,
          "internalType": "uint256",
          "name": "_toTokenId",
          "type": "uint256"
        }
      ],
      "name": "BatchMetadataUpdate",
      "type": "event"
    },
    {
      "anonymous": false,
      "inputs": [
        {
          "indexed": false,
          "internalType": "uint256",
          "name": "_tokenId",
          "type": "uint256"
        }
      ],
      "name": "MetadataUpdate",
      "type": "event"
    },
    {
      "anonymous": false,
      "inputs": [
        {
          "indexed": true,
          "internalType": "address",
          "name": "from",
          "type": "address"
        },
        {
          "indexed": true,
          "internalType": "address",
          "name": "to",
          "type": "address"
        },
        {
          "indexed": true,
          "internalType": "uint256",
          "name": "tokenId",
          "type": "uint256"
        }
      ],
      "name": "Transfer",
      "type": "event"
    },
    {
      "anonymous": false,
      "inputs": [
        {
          "indexed": true,
          "internalType": "uint256",
          "name": "tokenId",
          "type": "uint256"
        },
        {
          "indexed": true,
          "internalType": "address",
          "name": "seller",
          "type": "address"
        },
        {
          "indexed": false,
          "internalType": "address",
          "name": "owner",
          "type": "address"
        },
        {
          "indexed": true,
          "internalType": "uint256",
          "name": "price",
          "type": "uint256"
        },
        {
          "indexed": false,
          "internalType": "bool",
          "name": "sold",
          "type": "bool"
        },
        {
          "indexed": false,
          "internalType": "string",
          "name": "link",
          "type": "string"
        }
      ],
      "name": "idMarketItemCreated",
      "type": "event"
    },
    {
      "inputs": [
        {
          "internalType": "address",
          "name": "to",
          "type": "address"
        },
        {
          "internalType": "uint256",
          "name": "tokenId",
          "type": "uint256"
        }
      ],
      "name": "approve",
      "outputs": [],
      "stateMutability": "nonpayable",
      "type": "function"
    },
    {
      "inputs": [
        {
          "internalType": "address",
          "name": "owner",
          "type": "address"
        }
      ],
      "name": "balanceOf",
      "outputs": [
        {
          "internalType": "uint256",
          "name": "",
          "type": "uint256"
        }
      ],
      "stateMutability": "view",
      "type": "function"
    },
    {
      "inputs": [
        {
          "internalType": "uint256",
          "name": "tokenId",
          "type": "uint256"
        }
      ],
      "name": "createMarketSale",
      "outputs": [],
      "stateMutability": "payable",
      "type": "function"
    },
    {
      "inputs": [
        {
          "internalType": "string",
          "name": "tokenURI",
          "type": "string"
        },
        {
          "internalType": "uint256",
          "name": "price",
          "type": "uint256"
        }
      ],
      "name": "createToken",
      "outputs": [
        {
          "internalType": "uint256",
          "name": "",
          "type": "uint256"
        }
      ],
      "stateMutability": "payable",
      "type": "function"
    },
    {
      "inputs": [],
      "name": "fetchItemsListed",
      "outputs": [
        {
          "components": [
            {
              "internalType": "uint256",
              "name": "tokenId",
              "type": "uint256"
            },
            {
              "internalType": "address payable",
              "name": "seller",
              "type": "address"
            },
            {
              "internalType": "address payable",
              "name": "owner",
              "type": "address"
            },
            {
              "internalType": "uint256",
              "name": "price",
              "type": "uint256"
            },
            {
              "internalType": "bool",
              "name": "sold",
              "type": "bool"
            },
            {
              "internalType": "string",
              "name": "link",
              "type": "string"
            }
          ],
          "internalType": "struct NFT_Marketplace.MarketItem[]",
          "name": "",
          "type": "tuple[]"
        }
      ],
      "stateMutability": "view",
      "type": "function"
    },
    {
      "inputs": [],
      "name": "fetchMarketItem",
      "outputs": [
        {
          "components": [
            {
              "internalType": "uint256",
              "name": "tokenId",
              "type": "uint256"
            },
            {
              "internalType": "address payable",
              "name": "seller",
              "type": "address"
            },
            {
              "internalType": "address payable",
              "name": "owner",
              "type": "address"
            },
            {
              "internalType": "uint256",
              "name": "price",
              "type": "uint256"
            },
            {
              "internalType": "bool",
              "name": "sold",
              "type": "bool"
            },
            {
              "internalType": "string",
              "name": "link",
              "type": "string"
            }
          ],
          "internalType": "struct NFT_Marketplace.MarketItem[]",
          "name": "",
          "type": "tuple[]"
        }
      ],
      "stateMutability": "view",
      "type": "function"
    },
    {
      "inputs": [],
      "name": "fetchMyNFT",
      "outputs": [
        {
          "components": [
            {
              "internalType": "uint256",
              "name": "tokenId",
              "type": "uint256"
            },
            {
              "internalType": "address payable",
              "name": "seller",
              "type": "address"
            },
            {
              "internalType": "address payable",
              "name": "owner",
              "type": "address"
            },
            {
              "internalType": "uint256",
              "name": "price",
              "type": "uint256"
            },
            {
              "internalType": "bool",
              "name": "sold",
              "type": "bool"
            },
            {
              "internalType": "string",
              "name": "link",
              "type": "string"
            }
          ],
          "internalType": "struct NFT_Marketplace.MarketItem[]",
          "name": "",
          "type": "tuple[]"
        }
      ],
      "stateMutability": "view",
      "type": "function"
    },
    {
      "inputs": [
        {
          "internalType": "uint256",
          "name": "tokenId",
          "type": "uint256"
        }
      ],
      "name": "getAllOwners",
      "outputs": [
        {
          "internalType": "address[]",
          "name": "",
          "type": "address[]"
        }
      ],
      "stateMutability": "view",
      "type": "function"
    },
    {
      "inputs": [
        {
          "internalType": "uint256",
          "name": "tokenId",
          "type": "uint256"
        }
      ],
      "name": "getApproved",
      "outputs": [
        {
          "internalType": "address",
          "name": "",
          "type": "address"
        }
      ],
      "stateMutability": "view",
      "type": "function"
    },
    {
      "inputs": [],
      "name": "getListingPrice",
      "outputs": [
        {
          "internalType": "uint256",
          "name": "",
          "type": "uint256"
        }
      ],
      "stateMutability": "view",
      "type": "function"
    },
    {
      "inputs": [
        {
          "internalType": "uint256",
          "name": "",
          "type": "uint256"
        }
      ],
      "name": "idMarketItem",
      "outputs": [
        {
          "internalType": "uint256",
          "name": "tokenId",
          "type": "uint256"
        },
        {
          "internalType": "address payable",
          "name": "seller",
          "type": "address"
        },
        {
          "internalType": "address payable",
          "name": "owner",
          "type": "address"
        },
        {
          "internalType": "uint256",
          "name": "price",
          "type": "uint256"
        },
        {
          "internalType": "bool",
          "name": "sold",
          "type": "bool"
        },
        {
          "internalType": "string",
          "name": "link",
          "type": "string"
        }
      ],
      "stateMutability": "view",
      "type": "function"
    },
    {
      "inputs": [
        {
          "internalType": "address",
          "name": "owner",
          "type": "address"
        },
        {
          "internalType": "address",
          "name": "operator",
          "type": "address"
        }
      ],
      "name": "isApprovedForAll",
      "outputs": [
        {
          "internalType": "bool",
          "name": "",
          "type": "bool"
        }
      ],
      "stateMutability": "view",
      "type": "function"
    },
    {
      "inputs": [],
      "name": "name",
      "outputs": [
        {
          "internalType": "string",
          "name": "",
          "type": "string"
        }
      ],
      "stateMutability": "view",
      "type": "function"
    },
    {
      "inputs": [
        {
          "internalType": "uint256",
          "name": "tokenId",
          "type": "uint256"
        }
      ],
      "name": "ownerOf",
      "outputs": [
        {
          "internalType": "address",
          "name": "",
          "type": "address"
        }
      ],
      "stateMutability": "view",
      "type": "function"
    },
    {
      "inputs": [
        {
          "internalType": "uint256",
          "name": "tokenId",
          "type": "uint256"
        },
        {
          "internalType": "uint256",
          "name": "price",
          "type": "uint256"
        }
      ],
      "name": "reSellToken",
      "outputs": [],
      "stateMutability": "payable",
      "type": "function"
    },
    {
      "inputs": [
        {
          "internalType": "address",
          "name": "from",
          "type": "address"
        },
        {
          "internalType": "address",
          "name": "to",
          "type": "address"
        },
        {
          "internalType": "uint256",
          "name": "tokenId",
          "type": "uint256"
        }
      ],
      "name": "safeTransferFrom",
      "outputs": [],
      "stateMutability": "nonpayable",
      "type": "function"
    },
    {
      "inputs": [
        {
          "internalType": "address",
          "name": "from",
          "type": "address"
        },
        {
          "internalType": "address",
          "name": "to",
          "type": "address"
        },
        {
          "internalType": "uint256",
          "name": "tokenId",
          "type": "uint256"
        },
        {
          "internalType": "bytes",
          "name": "data",
          "type": "bytes"
        }
      ],
      "name": "safeTransferFrom",
      "outputs": [],
      "stateMutability": "nonpayable",
      "type": "function"
    },
    {
      "inputs": [
        {
          "internalType": "address",
          "name": "operator",
          "type": "address"
        },
        {
          "internalType": "bool",
          "name": "approved",
          "type": "bool"
        }
      ],
      "name": "setApprovalForAll",
      "outputs": [],
      "stateMutability": "nonpayable",
      "type": "function"
    },
    {
      "inputs": [
        {
          "internalType": "bytes4",
          "name": "interfaceId",
          "type": "bytes4"
        }
      ],
      "name": "supportsInterface",
      "outputs": [
        {
          "internalType": "bool",
          "name": "",
          "type": "bool"
        }
      ],
      "stateMutability": "view",
      "type": "function"
    },
    {
      "inputs": [],
      "name": "symbol",
      "outputs": [
        {
          "internalType": "string",
          "name": "",
          "type": "string"
        }
      ],
      "stateMutability": "view",
      "type": "function"
    },
    {
      "inputs": [
        {
          "internalType": "uint256",
          "name": "tokenId",
          "type": "uint256"
        }
      ],
      "name": "tokenURI",
      "outputs": [
        {
          "internalType": "string",
          "name": "",
          "type": "string"
        }
      ],
      "stateMutability": "view",
      "type": "function"
    },
    {
      "inputs": [
        {
          "internalType": "address",
          "name": "from",
          "type": "address"
        },
        {
          "internalType": "address",
          "name": "to",
          "type": "address"
        },
        {
          "internalType": "uint256",
          "name": "tokenId",
          "type": "uint256"
        }
      ],
      "name": "transferFrom",
      "outputs": [],
      "stateMutability": "nonpayable",
      "type": "function"
    },
    {
      "inputs": [
        {
          "internalType": "uint256",
          "name": "_listingPrice",
          "type": "uint256"
        }
      ],
      "name": "updateListingPrice",
      "outputs": [],
      "stateMutability": "payable",
      "type": "function"
    }
  ],
  "bytecode": "0x60806040526605543df729c0006009553480156200001c57600080fd5b506040518060400160405280601381526020017f4e4654204d657461766572736520546f6b656e000000000000000000000000008152506040518060400160405280600581526020017f4d594e46540000000000000000000000000000000000000000000000000000008152508160009080519060200190620000a1929190620000e9565b508060019080519060200190620000ba929190620000e9565b5050503373ffffffffffffffffffffffffffffffffffffffff16600a60009054906101000a90505050620001fe565b828054620000f790620001c8565b90600052602060002090601f0160209004810192826200011b576000855562000167565b82601f106200013657805160ff191683800117855562000167565b8280016001018555821562000167579182015b828111156200016657825182559160200191906001019062000149565b5b5090506200017691906200017a565b5090565b5b80821115620001955760008160009055506001016200017b565b5090565b7f4e487b7100000000000000000000000000000000000000000000000000000000600052602260045260246000fd5b60006002820490506001821680620001e157607f821691505b60208210811415620001f857620001f762000199565b5b50919050565b6147e1806200020e6000396000f3fe6080604052600436106101405760003560e01c806370a08231116100b6578063ae677aa31161006f578063ae677aa31461047f578063b88d4fde1461049b578063be9af536146104c4578063c18763f7146104e0578063c87b56dd1461050b578063e985e9c51461054857610140565b806370a082311461037757806372b3b620146103b457806385535b25146103e45780638fafd0211461040057806395d89b411461042b578063a22cb4651461045657610140565b806312e855851161010857806312e855851461025557806323b872dd1461028057806342842e0e146102a957806345f8fa80146102d257806361253a04146102fd5780636352211e1461033a57610140565b806301ffc9a71461014557806306fdde0314610182578063081812fc146101ad578063087ae8a2146101ea578063095ea7b31461022c575b600080fd5b34801561015157600080fd5b5061016c60048036038101906101679190613128565b610585565b6040516101799190613170565b60405180910390f35b34801561018e57600080fd5b506101976105e6565b6040516101a49190613224565b60405180910390f35b3480156101b957600080fd5b506101d460048036038101906101cf919061327c565b610678565b6040516101e191906132ea565b60405180910390f35b3480156101f657600080fd5b50610211600480360381019061020c919061327c565b6106be565b60405161022396959493929190613335565b60405180910390f35b34801561023857600080fd5b50610253600480360381019061024e91906133c9565b6107cf565b005b34801561026157600080fd5b5061026a6108e7565b6040516102779190613409565b60405180910390f35b34801561028c57600080fd5b506102a760048036038101906102a29190613424565b6108f1565b005b3480156102b557600080fd5b506102d060048036038101906102cb9190613424565b610951565b005b3480156102de57600080fd5b506102e7610971565b6040516102f49190613639565b60405180910390f35b34801561030957600080fd5b50610324600480360381019061031f919061327c565b610cf1565b6040516103319190613719565b60405180910390f35b34801561034657600080fd5b50610361600480360381019061035c919061327c565b610d92565b60405161036e91906132ea565b60405180910390f35b34801561038357600080fd5b5061039e6004803603810190610399919061373b565b610e19565b6040516103ab9190613409565b60405180910390f35b6103ce60048036038101906103c9919061389d565b610ed1565b6040516103db9190613409565b60405180910390f35b6103fe60048036038101906103f991906138f9565b610f14565b005b34801561040c57600080fd5b50610415611109565b6040516104229190613639565b60405180910390f35b34801561043757600080fd5b50610440611404565b60405161044d9190613224565b60405180910390f35b34801561046257600080fd5b5061047d60048036038101906104789190613965565b611496565b005b6104996004803603810190610494919061327c565b6114ac565b005b3480156104a757600080fd5b506104c260048036038101906104bd9190613a46565b611546565b005b6104de60048036038101906104d9919061327c565b6115a8565b005b3480156104ec57600080fd5b506104f56117f6565b6040516105029190613639565b60405180910390f35b34801561051757600080fd5b50610532600480360381019061052d919061327c565b611b76565b60405161053f9190613224565b60405180910390f35b34801561055457600080fd5b5061056f600480360381019061056a9190613ac9565b611c89565b60405161057c9190613170565b60405180910390f35b6000634906490660e01b7bffffffffffffffffffffffffffffffffffffffffffffffffffffffff1916827bffffffffffffffffffffffffffffffffffffffffffffffffffffffff191614806105df57506105de82611d1d565b5b9050919050565b6060600080546105f590613b38565b80601f016020809104026020016040519081016040528092919081815260200182805461062190613b38565b801561066e5780601f106106435761010080835404028352916020019161066e565b820191906000526020600020905b81548152906001019060200180831161065157829003601f168201915b5050505050905090565b600061068382611dff565b6004600083815260200190815260200160002060009054906101000a900473ffffffffffffffffffffffffffffffffffffffff169050919050565b600b6020528060005260406000206000915090508060000154908060010160009054906101000a900473ffffffffffffffffffffffffffffffffffffffff16908060020160009054906101000a900473ffffffffffffffffffffffffffffffffffffffff16908060030154908060040160009054906101000a900460ff169080600501805461074c90613b38565b80601f016020809104026020016040519081016040528092919081815260200182805461077890613b38565b80156107c55780601f1061079a576101008083540402835291602001916107c5565b820191906000526020600020905b8154815290600101906020018083116107a857829003601f168201915b5050505050905086565b60006107da82610d92565b90508073ffffffffffffffffffffffffffffffffffffffff168373ffffffffffffffffffffffffffffffffffffffff16141561084b576040517f08c379a000000000000000000000000000000000000000000000000000000000815260040161084290613bdc565b60405180910390fd5b8073ffffffffffffffffffffffffffffffffffffffff1661086a611e4a565b73ffffffffffffffffffffffffffffffffffffffff161480610899575061089881610893611e4a565b611c89565b5b6108d8576040517f08c379a00000000000000000000000000000000000000000000000000000000081526004016108cf90613c6e565b60405180910390fd5b6108e28383611e52565b505050565b6000600954905090565b6109026108fc611e4a565b82611f0b565b610941576040517f08c379a000000000000000000000000000000000000000000000000000000000815260040161093890613d00565b60405180910390fd5b61094c838383611fa0565b505050565b61096c83838360405180602001604052806000815250611546565b505050565b6060600061097f600761229a565b905060008060005b83811015610a28573373ffffffffffffffffffffffffffffffffffffffff16600b60006001846109b79190613d4f565b815260200190815260200160002060010160009054906101000a900473ffffffffffffffffffffffffffffffffffffffff1673ffffffffffffffffffffffffffffffffffffffff161415610a1557600183610a129190613d4f565b92505b8080610a2090613da5565b915050610987565b5060008267ffffffffffffffff811115610a4557610a44613772565b5b604051908082528060200260200182016040528015610a7e57816020015b610a6b612fb5565b815260200190600190039081610a635790505b50905060005b84811015610ce6573373ffffffffffffffffffffffffffffffffffffffff16600b6000600184610ab49190613d4f565b815260200190815260200160002060010160009054906101000a900473ffffffffffffffffffffffffffffffffffffffff1673ffffffffffffffffffffffffffffffffffffffff161415610cd3576000600182610b119190613d4f565b90506000600b60008381526020019081526020016000209050806040518060c0016040529081600082015481526020016001820160009054906101000a900473ffffffffffffffffffffffffffffffffffffffff1673ffffffffffffffffffffffffffffffffffffffff1673ffffffffffffffffffffffffffffffffffffffff1681526020016002820160009054906101000a900473ffffffffffffffffffffffffffffffffffffffff1673ffffffffffffffffffffffffffffffffffffffff1673ffffffffffffffffffffffffffffffffffffffff168152602001600382015481526020016004820160009054906101000a900460ff16151515158152602001600582018054610c2190613b38565b80601f0160208091040260200160405190810160405280929190818152602001828054610c4d90613b38565b8015610c9a5780601f10610c6f57610100808354040283529160200191610c9a565b820191906000526020600020905b815481529060010190602001808311610c7d57829003601f168201915b505050505081525050848681518110610cb657610cb5613dee565b5b6020026020010181905250600185610cce9190613d4f565b945050505b8080610cde90613da5565b915050610a84565b508094505050505090565b6060600c6000838152602001908152602001600020805480602002602001604051908101604052809291908181526020018280548015610d8657602002820191906000526020600020905b8160009054906101000a900473ffffffffffffffffffffffffffffffffffffffff1673ffffffffffffffffffffffffffffffffffffffff1681526020019060010190808311610d3c575b50505050509050919050565b600080610d9e836122a8565b9050600073ffffffffffffffffffffffffffffffffffffffff168173ffffffffffffffffffffffffffffffffffffffff161415610e10576040517f08c379a0000000000000000000000000000000000000000000000000000000008152600401610e0790613e69565b60405180910390fd5b80915050919050565b60008073ffffffffffffffffffffffffffffffffffffffff168273ffffffffffffffffffffffffffffffffffffffff161415610e8a576040517f08c379a0000000000000000000000000000000000000000000000000000000008152600401610e8190613efb565b60405180910390fd5b600360008373ffffffffffffffffffffffffffffffffffffffff1673ffffffffffffffffffffffffffffffffffffffff168152602001908152602001600020549050919050565b6000610edd60076122e5565b6000610ee9600761229a565b9050610ef533826122fb565b610eff8185612519565b610f0a8184866125c4565b8091505092915050565b3373ffffffffffffffffffffffffffffffffffffffff16600b600084815260200190815260200160002060020160009054906101000a900473ffffffffffffffffffffffffffffffffffffffff1673ffffffffffffffffffffffffffffffffffffffff1614610fb8576040517f08c379a0000000000000000000000000000000000000000000000000000000008152600401610faf90613f67565b60405180910390fd5b6009543414610ffc576040517f08c379a0000000000000000000000000000000000000000000000000000000008152600401610ff390613ff9565b60405180910390fd5b6000600b600084815260200190815260200160002060040160006101000a81548160ff02191690831515021790555080600b60008481526020019081526020016000206003018190555033600b600084815260200190815260200160002060010160006101000a81548173ffffffffffffffffffffffffffffffffffffffff021916908373ffffffffffffffffffffffffffffffffffffffff16021790555030600b600084815260200190815260200160002060020160006101000a81548173ffffffffffffffffffffffffffffffffffffffff021916908373ffffffffffffffffffffffffffffffffffffffff1602179055506110fa6008612875565b611105333084611fa0565b5050565b60606000611117600761229a565b90506000611125600861229a565b61112f600761229a565b6111399190614019565b90506000808267ffffffffffffffff81111561115857611157613772565b5b60405190808252806020026020018201604052801561119157816020015b61117e612fb5565b8152602001906001900390816111765790505b50905060005b848110156113f9573073ffffffffffffffffffffffffffffffffffffffff16600b60006001846111c79190613d4f565b815260200190815260200160002060020160009054906101000a900473ffffffffffffffffffffffffffffffffffffffff1673ffffffffffffffffffffffffffffffffffffffff1614156113e65760006001826112249190613d4f565b90506000600b60008381526020019081526020016000209050806040518060c0016040529081600082015481526020016001820160009054906101000a900473ffffffffffffffffffffffffffffffffffffffff1673ffffffffffffffffffffffffffffffffffffffff1673ffffffffffffffffffffffffffffffffffffffff1681526020016002820160009054906101000a900473ffffffffffffffffffffffffffffffffffffffff1673ffffffffffffffffffffffffffffffffffffffff1673ffffffffffffffffffffffffffffffffffffffff168152602001600382015481526020016004820160009054906101000a900460ff1615151515815260200160058201805461133490613b38565b80601f016020809104026020016040519081016040528092919081815260200182805461136090613b38565b80156113ad5780601f10611382576101008083540402835291602001916113ad565b820191906000526020600020905b81548152906001019060200180831161139057829003601f168201915b5050505050815250508486815181106113c9576113c8613dee565b5b60200260200101819052506001856113e19190613d4f565b945050505b80806113f190613da5565b915050611197565b508094505050505090565b60606001805461141390613b38565b80601f016020809104026020016040519081016040528092919081815260200182805461143f90613b38565b801561148c5780601f106114615761010080835404028352916020019161148c565b820191906000526020600020905b81548152906001019060200180831161146f57829003601f168201915b5050505050905090565b6114a86114a1611e4a565b83836128d1565b5050565b600a60009054906101000a900473ffffffffffffffffffffffffffffffffffffffff1673ffffffffffffffffffffffffffffffffffffffff163373ffffffffffffffffffffffffffffffffffffffff161461153c576040517f08c379a0000000000000000000000000000000000000000000000000000000008152600401611533906140bf565b60405180910390fd5b8060098190555050565b611557611551611e4a565b83611f0b565b611596576040517f08c379a000000000000000000000000000000000000000000000000000000000815260040161158d90613d00565b60405180910390fd5b6115a284848484612a3e565b50505050565b6000600b600083815260200190815260200160002060030154905080341015611606576040517f08c379a00000000000000000000000000000000000000000000000000000000081526004016115fd90614177565b60405180910390fd5b33600b600084815260200190815260200160002060020160006101000a81548173ffffffffffffffffffffffffffffffffffffffff021916908373ffffffffffffffffffffffffffffffffffffffff1602179055506001600b600084815260200190815260200160002060040160006101000a81548160ff02191690831515021790555033600b600084815260200190815260200160002060010160006101000a81548173ffffffffffffffffffffffffffffffffffffffff021916908373ffffffffffffffffffffffffffffffffffffffff1602179055506116e960086122e5565b600c6000838152602001908152602001600020339080600181540180825580915050600190039060005260206000200160009091909190916101000a81548173ffffffffffffffffffffffffffffffffffffffff021916908373ffffffffffffffffffffffffffffffffffffffff160217905550611768303384611fa0565b600b600083815260200190815260200160002060010160009054906101000a900473ffffffffffffffffffffffffffffffffffffffff1673ffffffffffffffffffffffffffffffffffffffff166108fc600954346117c69190614019565b9081150290604051600060405180830381858888f193505050501580156117f1573d6000803e3d6000fd5b505050565b60606000611804600761229a565b905060008060005b838110156118ad573373ffffffffffffffffffffffffffffffffffffffff16600b600060018461183c9190613d4f565b815260200190815260200160002060020160009054906101000a900473ffffffffffffffffffffffffffffffffffffffff1673ffffffffffffffffffffffffffffffffffffffff16141561189a576001836118979190613d4f565b92505b80806118a590613da5565b91505061180c565b5060008267ffffffffffffffff8111156118ca576118c9613772565b5b60405190808252806020026020018201604052801561190357816020015b6118f0612fb5565b8152602001906001900390816118e85790505b50905060005b84811015611b6b573373ffffffffffffffffffffffffffffffffffffffff16600b60006001846119399190613d4f565b815260200190815260200160002060020160009054906101000a900473ffffffffffffffffffffffffffffffffffffffff1673ffffffffffffffffffffffffffffffffffffffff161415611b585760006001826119969190613d4f565b90506000600b60008381526020019081526020016000209050806040518060c0016040529081600082015481526020016001820160009054906101000a900473ffffffffffffffffffffffffffffffffffffffff1673ffffffffffffffffffffffffffffffffffffffff1673ffffffffffffffffffffffffffffffffffffffff1681526020016002820160009054906101000a900473ffffffffffffffffffffffffffffffffffffffff1673ffffffffffffffffffffffffffffffffffffffff1673ffffffffffffffffffffffffffffffffffffffff168152602001600382015481526020016004820160009054906101000a900460ff16151515158152602001600582018054611aa690613b38565b80601f0160208091040260200160405190810160405280929190818152602001828054611ad290613b38565b8015611b1f5780601f10611af457610100808354040283529160200191611b1f565b820191906000526020600020905b815481529060010190602001808311611b0257829003601f168201915b505050505081525050848681518110611b3b57611b3a613dee565b5b6020026020010181905250600185611b539190613d4f565b945050505b8080611b6390613da5565b915050611909565b508094505050505090565b6060611b8182611dff565b6000600660008481526020019081526020016000208054611ba190613b38565b80601f0160208091040260200160405190810160405280929190818152602001828054611bcd90613b38565b8015611c1a5780601f10611bef57610100808354040283529160200191611c1a565b820191906000526020600020905b815481529060010190602001808311611bfd57829003601f168201915b505050505090506000611c2b612a9a565b9050600081511415611c41578192505050611c84565b600082511115611c76578082604051602001611c5e9291906141d3565b60405160208183030381529060405292505050611c84565b611c7f84612ab1565b925050505b919050565b6000600560008473ffffffffffffffffffffffffffffffffffffffff1673ffffffffffffffffffffffffffffffffffffffff16815260200190815260200160002060008373ffffffffffffffffffffffffffffffffffffffff1673ffffffffffffffffffffffffffffffffffffffff16815260200190815260200160002060009054906101000a900460ff16905092915050565b60007f80ac58cd000000000000000000000000000000000000000000000000000000007bffffffffffffffffffffffffffffffffffffffffffffffffffffffff1916827bffffffffffffffffffffffffffffffffffffffffffffffffffffffff19161480611de857507f5b5e139f000000000000000000000000000000000000000000000000000000007bffffffffffffffffffffffffffffffffffffffffffffffffffffffff1916827bffffffffffffffffffffffffffffffffffffffffffffffffffffffff1916145b80611df85750611df782612b19565b5b9050919050565b611e0881612b83565b611e47576040517f08c379a0000000000000000000000000000000000000000000000000000000008152600401611e3e90613e69565b60405180910390fd5b50565b600033905090565b816004600083815260200190815260200160002060006101000a81548173ffffffffffffffffffffffffffffffffffffffff021916908373ffffffffffffffffffffffffffffffffffffffff160217905550808273ffffffffffffffffffffffffffffffffffffffff16611ec583610d92565b73ffffffffffffffffffffffffffffffffffffffff167f8c5be1e5ebec7d5bd14f71427d1e84f3dd0314c0f7b2291e5b200ac8c7c3b92560405160405180910390a45050565b600080611f1783610d92565b90508073ffffffffffffffffffffffffffffffffffffffff168473ffffffffffffffffffffffffffffffffffffffff161480611f595750611f588185611c89565b5b80611f9757508373ffffffffffffffffffffffffffffffffffffffff16611f7f84610678565b73ffffffffffffffffffffffffffffffffffffffff16145b91505092915050565b8273ffffffffffffffffffffffffffffffffffffffff16611fc082610d92565b73ffffffffffffffffffffffffffffffffffffffff1614612016576040517f08c379a000000000000000000000000000000000000000000000000000000000815260040161200d90614269565b60405180910390fd5b600073ffffffffffffffffffffffffffffffffffffffff168273ffffffffffffffffffffffffffffffffffffffff161415612086576040517f08c379a000000000000000000000000000000000000000000000000000000000815260040161207d906142fb565b60405180910390fd5b6120938383836001612bc4565b8273ffffffffffffffffffffffffffffffffffffffff166120b382610d92565b73ffffffffffffffffffffffffffffffffffffffff1614612109576040517f08c379a000000000000000000000000000000000000000000000000000000000815260040161210090614269565b60405180910390fd5b6004600082815260200190815260200160002060006101000a81549073ffffffffffffffffffffffffffffffffffffffff02191690556001600360008573ffffffffffffffffffffffffffffffffffffffff1673ffffffffffffffffffffffffffffffffffffffff168152602001908152602001600020600082825403925050819055506001600360008473ffffffffffffffffffffffffffffffffffffffff1673ffffffffffffffffffffffffffffffffffffffff16815260200190815260200160002060008282540192505081905550816002600083815260200190815260200160002060006101000a81548173ffffffffffffffffffffffffffffffffffffffff021916908373ffffffffffffffffffffffffffffffffffffffff160217905550808273ffffffffffffffffffffffffffffffffffffffff168473ffffffffffffffffffffffffffffffffffffffff167fddf252ad1be2c89b69c2b068fc378daa952ba7f163c4a11628f55a4df523b3ef60405160405180910390a46122958383836001612bca565b505050565b600081600001549050919050565b60006002600083815260200190815260200160002060009054906101000a900473ffffffffffffffffffffffffffffffffffffffff169050919050565b6001816000016000828254019250508190555050565b600073ffffffffffffffffffffffffffffffffffffffff168273ffffffffffffffffffffffffffffffffffffffff16141561236b576040517f08c379a000000000000000000000000000000000000000000000000000000000815260040161236290614367565b60405180910390fd5b61237481612b83565b156123b4576040517f08c379a00000000000000000000000000000000000000000000000000000000081526004016123ab906143d3565b60405180910390fd5b6123c2600083836001612bc4565b6123cb81612b83565b1561240b576040517f08c379a0000000000000000000000000000000000000000000000000000000008152600401612402906143d3565b60405180910390fd5b6001600360008473ffffffffffffffffffffffffffffffffffffffff1673ffffffffffffffffffffffffffffffffffffffff16815260200190815260200160002060008282540192505081905550816002600083815260200190815260200160002060006101000a81548173ffffffffffffffffffffffffffffffffffffffff021916908373ffffffffffffffffffffffffffffffffffffffff160217905550808273ffffffffffffffffffffffffffffffffffffffff16600073ffffffffffffffffffffffffffffffffffffffff167fddf252ad1be2c89b69c2b068fc378daa952ba7f163c4a11628f55a4df523b3ef60405160405180910390a4612515600083836001612bca565b5050565b61252282612b83565b612561576040517f08c379a000000000000000000000000000000000000000000000000000000000815260040161255890614465565b60405180910390fd5b80600660008481526020019081526020016000209080519060200190612588929190613019565b507ff8e1a15aba9398e019f0b49df1a4fde98ee17ae345cb5f6b5e2c27f5033e8ce7826040516125b89190613409565b60405180910390a15050565b60008211612607576040517f08c379a00000000000000000000000000000000000000000000000000000000081526004016125fe906144d1565b60405180910390fd5b600954341461264b576040517f08c379a000000000000000000000000000000000000000000000000000000000815260040161264290613ff9565b60405180910390fd5b6040518060c001604052808481526020013373ffffffffffffffffffffffffffffffffffffffff1681526020013073ffffffffffffffffffffffffffffffffffffffff16815260200183815260200160001515815260200182815250600b60008581526020019081526020016000206000820151816000015560208201518160010160006101000a81548173ffffffffffffffffffffffffffffffffffffffff021916908373ffffffffffffffffffffffffffffffffffffffff16021790555060408201518160020160006101000a81548173ffffffffffffffffffffffffffffffffffffffff021916908373ffffffffffffffffffffffffffffffffffffffff1602179055506060820151816003015560808201518160040160006101000a81548160ff02191690831515021790555060a0820151816005019080519060200190612798929190613019565b50905050600c6000848152602001908152602001600020339080600181540180825580915050600190039060005260206000200160009091909190916101000a81548173ffffffffffffffffffffffffffffffffffffffff021916908373ffffffffffffffffffffffffffffffffffffffff16021790555061281b333085611fa0565b813373ffffffffffffffffffffffffffffffffffffffff16847f11fe55ba678323aeef10b49af28be7401817951ef77bb5f8593137acb950523e30600086604051612868939291906144f1565b60405180910390a4505050565b600081600001549050600081116128c1576040517f08c379a00000000000000000000000000000000000000000000000000000000081526004016128b89061457b565b60405180910390fd5b6001810382600001819055505050565b8173ffffffffffffffffffffffffffffffffffffffff168373ffffffffffffffffffffffffffffffffffffffff161415612940576040517f08c379a0000000000000000000000000000000000000000000000000000000008152600401612937906145e7565b60405180910390fd5b80600560008573ffffffffffffffffffffffffffffffffffffffff1673ffffffffffffffffffffffffffffffffffffffff16815260200190815260200160002060008473ffffffffffffffffffffffffffffffffffffffff1673ffffffffffffffffffffffffffffffffffffffff16815260200190815260200160002060006101000a81548160ff0219169083151502179055508173ffffffffffffffffffffffffffffffffffffffff168373ffffffffffffffffffffffffffffffffffffffff167f17307eab39ab6107e8899845ad3d59bd9653f200f220920489ca2b5937696c3183604051612a319190613170565b60405180910390a3505050565b612a49848484611fa0565b612a5584848484612bd0565b612a94576040517f08c379a0000000000000000000000000000000000000000000000000000000008152600401612a8b90614679565b60405180910390fd5b50505050565b606060405180602001604052806000815250905090565b6060612abc82611dff565b6000612ac6612a9a565b90506000815111612ae65760405180602001604052806000815250612b11565b80612af084612d67565b604051602001612b019291906141d3565b6040516020818303038152906040525b915050919050565b60007f01ffc9a7000000000000000000000000000000000000000000000000000000007bffffffffffffffffffffffffffffffffffffffffffffffffffffffff1916827bffffffffffffffffffffffffffffffffffffffffffffffffffffffff1916149050919050565b60008073ffffffffffffffffffffffffffffffffffffffff16612ba5836122a8565b73ffffffffffffffffffffffffffffffffffffffff1614159050919050565b50505050565b50505050565b6000612bf18473ffffffffffffffffffffffffffffffffffffffff16612e3f565b15612d5a578373ffffffffffffffffffffffffffffffffffffffff1663150b7a02612c1a611e4a565b8786866040518563ffffffff1660e01b8152600401612c3c94939291906146ee565b602060405180830381600087803b158015612c5657600080fd5b505af1925050508015612c8757506040513d601f19601f82011682018060405250810190612c84919061474f565b60015b612d0a573d8060008114612cb7576040519150601f19603f3d011682016040523d82523d6000602084013e612cbc565b606091505b50600081511415612d02576040517f08c379a0000000000000000000000000000000000000000000000000000000008152600401612cf990614679565b60405180910390fd5b805181602001fd5b63150b7a0260e01b7bffffffffffffffffffffffffffffffffffffffffffffffffffffffff1916817bffffffffffffffffffffffffffffffffffffffffffffffffffffffff191614915050612d5f565b600190505b949350505050565b606060006001612d7684612e62565b01905060008167ffffffffffffffff811115612d9557612d94613772565b5b6040519080825280601f01601f191660200182016040528015612dc75781602001600182028036833780820191505090505b509050600082602001820190505b600115612e34578080600190039150507f3031323334353637383961626364656600000000000000000000000000000000600a86061a8153600a8581612e1e57612e1d61477c565b5b0494506000851415612e2f57612e34565b612dd5565b819350505050919050565b6000808273ffffffffffffffffffffffffffffffffffffffff163b119050919050565b600080600090507a184f03e93ff9f4daa797ed6e38ed64bf6a1f0100000000000000008310612ec0577a184f03e93ff9f4daa797ed6e38ed64bf6a1f0100000000000000008381612eb657612eb561477c565b5b0492506040810190505b6d04ee2d6d415b85acef81000000008310612efd576d04ee2d6d415b85acef81000000008381612ef357612ef261477c565b5b0492506020810190505b662386f26fc100008310612f2c57662386f26fc100008381612f2257612f2161477c565b5b0492506010810190505b6305f5e1008310612f55576305f5e1008381612f4b57612f4a61477c565b5b0492506008810190505b6127108310612f7a576127108381612f7057612f6f61477c565b5b0492506004810190505b60648310612f9d5760648381612f9357612f9261477c565b5b0492506002810190505b600a8310612fac576001810190505b80915050919050565b6040518060c0016040528060008152602001600073ffffffffffffffffffffffffffffffffffffffff168152602001600073ffffffffffffffffffffffffffffffffffffffff16815260200160008152602001600015158152602001606081525090565b82805461302590613b38565b90600052602060002090601f016020900481019282613047576000855561308e565b82601f1061306057805160ff191683800117855561308e565b8280016001018555821561308e579182015b8281111561308d578251825591602001919060010190613072565b5b50905061309b919061309f565b5090565b5b808211156130b85760008160009055506001016130a0565b5090565b6000604051905090565b600080fd5b600080fd5b60007fffffffff0000000000000000000000000000000000000000000000000000000082169050919050565b613105816130d0565b811461311057600080fd5b50565b600081359050613122816130fc565b92915050565b60006020828403121561313e5761313d6130c6565b5b600061314c84828501613113565b91505092915050565b60008115159050919050565b61316a81613155565b82525050565b60006020820190506131856000830184613161565b92915050565b600081519050919050565b600082825260208201905092915050565b60005b838110156131c55780820151818401526020810190506131aa565b838111156131d4576000848401525b50505050565b6000601f19601f8301169050919050565b60006131f68261318b565b6132008185613196565b93506132108185602086016131a7565b613219816131da565b840191505092915050565b6000602082019050818103600083015261323e81846131eb565b905092915050565b6000819050919050565b61325981613246565b811461326457600080fd5b50565b60008135905061327681613250565b92915050565b600060208284031215613292576132916130c6565b5b60006132a084828501613267565b91505092915050565b600073ffffffffffffffffffffffffffffffffffffffff82169050919050565b60006132d4826132a9565b9050919050565b6132e4816132c9565b82525050565b60006020820190506132ff60008301846132db565b92915050565b61330e81613246565b82525050565b600061331f826132a9565b9050919050565b61332f81613314565b82525050565b600060c08201905061334a6000830189613305565b6133576020830188613326565b6133646040830187613326565b6133716060830186613305565b61337e6080830185613161565b81810360a083015261339081846131eb565b9050979650505050505050565b6133a6816132c9565b81146133b157600080fd5b50565b6000813590506133c38161339d565b92915050565b600080604083850312156133e0576133df6130c6565b5b60006133ee858286016133b4565b92505060206133ff85828601613267565b9150509250929050565b600060208201905061341e6000830184613305565b92915050565b60008060006060848603121561343d5761343c6130c6565b5b600061344b868287016133b4565b935050602061345c868287016133b4565b925050604061346d86828701613267565b9150509250925092565b600081519050919050565b600082825260208201905092915050565b6000819050602082019050919050565b6134ac81613246565b82525050565b6134bb81613314565b82525050565b6134ca81613155565b82525050565b600082825260208201905092915050565b60006134ec8261318b565b6134f681856134d0565b93506135068185602086016131a7565b61350f816131da565b840191505092915050565b600060c08301600083015161353260008601826134a3565b50602083015161354560208601826134b2565b50604083015161355860408601826134b2565b50606083015161356b60608601826134a3565b50608083015161357e60808601826134c1565b5060a083015184820360a086015261359682826134e1565b9150508091505092915050565b60006135af838361351a565b905092915050565b6000602082019050919050565b60006135cf82613477565b6135d98185613482565b9350836020820285016135eb85613493565b8060005b85811015613627578484038952815161360885826135a3565b9450613613836135b7565b925060208a019950506001810190506135ef565b50829750879550505050505092915050565b6000602082019050818103600083015261365381846135c4565b905092915050565b600081519050919050565b600082825260208201905092915050565b6000819050602082019050919050565b613690816132c9565b82525050565b60006136a28383613687565b60208301905092915050565b6000602082019050919050565b60006136c68261365b565b6136d08185613666565b93506136db83613677565b8060005b8381101561370c5781516136f38882613696565b97506136fe836136ae565b9250506001810190506136df565b5085935050505092915050565b6000602082019050818103600083015261373381846136bb565b905092915050565b600060208284031215613751576137506130c6565b5b600061375f848285016133b4565b91505092915050565b600080fd5b600080fd5b7f4e487b7100000000000000000000000000000000000000000000000000000000600052604160045260246000fd5b6137aa826131da565b810181811067ffffffffffffffff821117156137c9576137c8613772565b5b80604052505050565b60006137dc6130bc565b90506137e882826137a1565b919050565b600067ffffffffffffffff82111561380857613807613772565b5b613811826131da565b9050602081019050919050565b82818337600083830152505050565b600061384061383b846137ed565b6137d2565b90508281526020810184848401111561385c5761385b61376d565b5b61386784828561381e565b509392505050565b600082601f83011261388457613883613768565b5b813561389484826020860161382d565b91505092915050565b600080604083850312156138b4576138b36130c6565b5b600083013567ffffffffffffffff8111156138d2576138d16130cb565b5b6138de8582860161386f565b92505060206138ef85828601613267565b9150509250929050565b600080604083850312156139105761390f6130c6565b5b600061391e85828601613267565b925050602061392f85828601613267565b9150509250929050565b61394281613155565b811461394d57600080fd5b50565b60008135905061395f81613939565b92915050565b6000806040838503121561397c5761397b6130c6565b5b600061398a858286016133b4565b925050602061399b85828601613950565b9150509250929050565b600067ffffffffffffffff8211156139c0576139bf613772565b5b6139c9826131da565b9050602081019050919050565b60006139e96139e4846139a5565b6137d2565b905082815260208101848484011115613a0557613a0461376d565b5b613a1084828561381e565b509392505050565b600082601f830112613a2d57613a2c613768565b5b8135613a3d8482602086016139d6565b91505092915050565b60008060008060808587031215613a6057613a5f6130c6565b5b6000613a6e878288016133b4565b9450506020613a7f878288016133b4565b9350506040613a9087828801613267565b925050606085013567ffffffffffffffff811115613ab157613ab06130cb565b5b613abd87828801613a18565b91505092959194509250565b60008060408385031215613ae057613adf6130c6565b5b6000613aee858286016133b4565b9250506020613aff858286016133b4565b9150509250929050565b7f4e487b7100000000000000000000000000000000000000000000000000000000600052602260045260246000fd5b60006002820490506001821680613b5057607f821691505b60208210811415613b6457613b63613b09565b5b50919050565b7f4552433732313a20617070726f76616c20746f2063757272656e74206f776e6560008201527f7200000000000000000000000000000000000000000000000000000000000000602082015250565b6000613bc6602183613196565b9150613bd182613b6a565b604082019050919050565b60006020820190508181036000830152613bf581613bb9565b9050919050565b7f4552433732313a20617070726f76652063616c6c6572206973206e6f7420746f60008201527f6b656e206f776e6572206f7220617070726f76656420666f7220616c6c000000602082015250565b6000613c58603d83613196565b9150613c6382613bfc565b604082019050919050565b60006020820190508181036000830152613c8781613c4b565b9050919050565b7f4552433732313a2063616c6c6572206973206e6f7420746f6b656e206f776e6560008201527f72206f7220617070726f76656400000000000000000000000000000000000000602082015250565b6000613cea602d83613196565b9150613cf582613c8e565b604082019050919050565b60006020820190508181036000830152613d1981613cdd565b9050919050565b7f4e487b7100000000000000000000000000000000000000000000000000000000600052601160045260246000fd5b6000613d5a82613246565b9150613d6583613246565b9250827fffffffffffffffffffffffffffffffffffffffffffffffffffffffffffffffff03821115613d9a57613d99613d20565b5b828201905092915050565b6000613db082613246565b91507fffffffffffffffffffffffffffffffffffffffffffffffffffffffffffffffff821415613de357613de2613d20565b5b600182019050919050565b7f4e487b7100000000000000000000000000000000000000000000000000000000600052603260045260246000fd5b7f4552433732313a20696e76616c696420746f6b656e2049440000000000000000600082015250565b6000613e53601883613196565b9150613e5e82613e1d565b602082019050919050565b60006020820190508181036000830152613e8281613e46565b9050919050565b7f4552433732313a2061646472657373207a65726f206973206e6f74206120766160008201527f6c6964206f776e65720000000000000000000000000000000000000000000000602082015250565b6000613ee5602983613196565b9150613ef082613e89565b604082019050919050565b60006020820190508181036000830152613f1481613ed8565b9050919050565b7f4f6e6c79206f776e65722063616e2073656c6c20746869730000000000000000600082015250565b6000613f51601883613196565b9150613f5c82613f1b565b602082019050919050565b60006020820190508181036000830152613f8081613f44565b9050919050565b7f5072696365206d75737420626520657175616c20746f206c697374696e67207060008201527f7269636500000000000000000000000000000000000000000000000000000000602082015250565b6000613fe3602483613196565b9150613fee82613f87565b604082019050919050565b6000602082019050818103600083015261401281613fd6565b9050919050565b600061402482613246565b915061402f83613246565b92508282101561404257614041613d20565b5b828203905092915050565b7f4f6e6c79206f776e65722063616e206368616e676520746865206c697374696e60008201527f6720707269636500000000000000000000000000000000000000000000000000602082015250565b60006140a9602783613196565b91506140b48261404d565b604082019050919050565b600060208201905081810360008301526140d88161409c565b9050919050565b7f506c65617365207375626d6974207468652061736b696e67207072696365206960008201527f6e206f7264657220746f20636f6d706c65746520746865207472616e7361637460208201527f696f6e0000000000000000000000000000000000000000000000000000000000604082015250565b6000614161604383613196565b915061416c826140df565b606082019050919050565b6000602082019050818103600083015261419081614154565b9050919050565b600081905092915050565b60006141ad8261318b565b6141b78185614197565b93506141c78185602086016131a7565b80840191505092915050565b60006141df82856141a2565b91506141eb82846141a2565b91508190509392505050565b7f4552433732313a207472616e736665722066726f6d20696e636f72726563742060008201527f6f776e6572000000000000000000000000000000000000000000000000000000602082015250565b6000614253602583613196565b915061425e826141f7565b604082019050919050565b6000602082019050818103600083015261428281614246565b9050919050565b7f4552433732313a207472616e7366657220746f20746865207a65726f2061646460008201527f7265737300000000000000000000000000000000000000000000000000000000602082015250565b60006142e5602483613196565b91506142f082614289565b604082019050919050565b60006020820190508181036000830152614314816142d8565b9050919050565b7f4552433732313a206d696e7420746f20746865207a65726f2061646472657373600082015250565b6000614351602083613196565b915061435c8261431b565b602082019050919050565b6000602082019050818103600083015261438081614344565b9050919050565b7f4552433732313a20746f6b656e20616c7265616479206d696e74656400000000600082015250565b60006143bd601c83613196565b91506143c882614387565b602082019050919050565b600060208201905081810360008301526143ec816143b0565b9050919050565b7f45524337323155524953746f726167653a2055524920736574206f66206e6f6e60008201527f6578697374656e7420746f6b656e000000000000000000000000000000000000602082015250565b600061444f602e83613196565b915061445a826143f3565b604082019050919050565b6000602082019050818103600083015261447e81614442565b9050919050565b7f5072696365206d757374206265206174206c6561737420310000000000000000600082015250565b60006144bb601883613196565b91506144c682614485565b602082019050919050565b600060208201905081810360008301526144ea816144ae565b9050919050565b600060608201905061450660008301866132db565b6145136020830185613161565b818103604083015261452581846131eb565b9050949350505050565b7f436f756e7465723a2064656372656d656e74206f766572666c6f770000000000600082015250565b6000614565601b83613196565b91506145708261452f565b602082019050919050565b6000602082019050818103600083015261459481614558565b9050919050565b7f4552433732313a20617070726f766520746f2063616c6c657200000000000000600082015250565b60006145d1601983613196565b91506145dc8261459b565b602082019050919050565b60006020820190508181036000830152614600816145c4565b9050919050565b7f4552433732313a207472616e7366657220746f206e6f6e20455243373231526560008201527f63656976657220696d706c656d656e7465720000000000000000000000000000602082015250565b6000614663603283613196565b915061466e82614607565b604082019050919050565b6000602082019050818103600083015261469281614656565b9050919050565b600081519050919050565b600082825260208201905092915050565b60006146c082614699565b6146ca81856146a4565b93506146da8185602086016131a7565b6146e3816131da565b840191505092915050565b600060808201905061470360008301876132db565b61471060208301866132db565b61471d6040830185613305565b818103606083015261472f81846146b5565b905095945050505050565b600081519050614749816130fc565b92915050565b600060208284031215614765576147646130c6565b5b60006147738482850161473a565b91505092915050565b7f4e487b7100000000000000000000000000000000000000000000000000000000600052601260045260246000fdfea2646970667358221220212ce012c7a3de6ef26e61850da78b4424b22e69f688a6af39a7dff2c5c5ddb964736f6c63430008090033",
  "linkReferences": {},
  "deployedLinkReferences": {}
}