{
  "_format": "hh-sol-artifact-1",
  "contractName": "NFT_Marketplace",
  "sourceName": "contracts/NFT_Marketplace.sol",
  "abi": [
    {
      "anonymous": false,
      "inputs": [
        {
          "indexed": true,
          "internalType": "address",
          "name": "owner",
          "type": "address"
        },
        {
          "indexed": true,
          "internalType": "address",
          "name": "approved",
          "type": "address"
        },
        {
          "indexed": true,
          "internalType": "uint256",
          "name": "tokenId",
          "type": "uint256"
        }
      ],
      "name": "Approval",
      "type": "event"
    },
    {
      "anonymous": false,
      "inputs": [
        {
          "indexed": true,
          "internalType": "address",
          "name": "owner",
          "type": "address"
        },
        {
          "indexed": true,
          "internalType": "address",
          "name": "operator",
          "type": "address"
        },
        {
          "indexed": false,
          "internalType": "bool",
          "name": "approved",
          "type": "bool"
        }
      ],
      "name": "ApprovalForAll",
      "type": "event"
    },
    {
      "anonymous": false,
      "inputs": [
        {
          "indexed": false,
          "internalType": "uint256",
          "name": "_fromTokenId",
          "type": "uint256"
        },
        {
          "indexed": false,
          "internalType": "uint256",
          "name": "_toTokenId",
          "type": "uint256"
        }
      ],
      "name": "BatchMetadataUpdate",
      "type": "event"
    },
    {
      "anonymous": false,
      "inputs": [
        {
          "indexed": false,
          "internalType": "uint8",
          "name": "version",
          "type": "uint8"
        }
      ],
      "name": "Initialized",
      "type": "event"
    },
    {
      "anonymous": false,
      "inputs": [
        {
          "indexed": false,
          "internalType": "uint256",
          "name": "_tokenId",
          "type": "uint256"
        }
      ],
      "name": "MetadataUpdate",
      "type": "event"
    },
    {
      "anonymous": false,
      "inputs": [
        {
          "indexed": true,
          "internalType": "address",
          "name": "from",
          "type": "address"
        },
        {
          "indexed": true,
          "internalType": "address",
          "name": "to",
          "type": "address"
        },
        {
          "indexed": true,
          "internalType": "uint256",
          "name": "tokenId",
          "type": "uint256"
        }
      ],
      "name": "Transfer",
      "type": "event"
    },
    {
      "inputs": [
        {
          "internalType": "uint256",
          "name": "tokenId",
          "type": "uint256"
        }
      ],
      "name": "EndAuc",
      "outputs": [],
      "stateMutability": "nonpayable",
      "type": "function"
    },
    {
      "inputs": [],
      "name": "_itemsSold",
      "outputs": [
        {
          "internalType": "uint256",
          "name": "",
          "type": "uint256"
        }
      ],
      "stateMutability": "view",
      "type": "function"
    },
    {
      "inputs": [],
      "name": "_tokenIds",
      "outputs": [
        {
          "internalType": "uint256",
          "name": "",
          "type": "uint256"
        }
      ],
      "stateMutability": "view",
      "type": "function"
    },
    {
      "inputs": [
        {
          "internalType": "address",
          "name": "to",
          "type": "address"
        },
        {
          "internalType": "uint256",
          "name": "tokenId",
          "type": "uint256"
        }
      ],
      "name": "approve",
      "outputs": [],
      "stateMutability": "nonpayable",
      "type": "function"
    },
    {
      "inputs": [
        {
          "internalType": "uint256",
          "name": "",
          "type": "uint256"
        }
      ],
      "name": "auctionHappend",
      "outputs": [
        {
          "internalType": "bool",
          "name": "",
          "type": "bool"
        }
      ],
      "stateMutability": "view",
      "type": "function"
    },
    {
      "inputs": [
        {
          "internalType": "address",
          "name": "owner",
          "type": "address"
        }
      ],
      "name": "balanceOf",
      "outputs": [
        {
          "internalType": "uint256",
          "name": "",
          "type": "uint256"
        }
      ],
      "stateMutability": "view",
      "type": "function"
    },
    {
      "inputs": [],
      "name": "bidInc",
      "outputs": [
        {
          "internalType": "uint256",
          "name": "",
          "type": "uint256"
        }
      ],
      "stateMutability": "view",
      "type": "function"
    },
    {
      "inputs": [
        {
          "internalType": "uint256",
          "name": "",
          "type": "uint256"
        },
        {
          "internalType": "address",
          "name": "",
          "type": "address"
        }
      ],
      "name": "bids",
      "outputs": [
        {
          "internalType": "uint256",
          "name": "",
          "type": "uint256"
        }
      ],
      "stateMutability": "view",
      "type": "function"
    },
    {
      "inputs": [
        {
          "internalType": "uint256",
          "name": "",
          "type": "uint256"
        },
        {
          "internalType": "uint256",
          "name": "",
          "type": "uint256"
        }
      ],
      "name": "bidsAddresses",
      "outputs": [
        {
          "internalType": "address",
          "name": "",
          "type": "address"
        }
      ],
      "stateMutability": "view",
      "type": "function"
    },
    {
      "inputs": [
        {
          "internalType": "uint256",
          "name": "tokenId",
          "type": "uint256"
        },
        {
          "internalType": "address payable",
          "name": "newOwner",
          "type": "address"
        },
        {
          "internalType": "uint256",
          "name": "value",
          "type": "uint256"
        }
      ],
      "name": "buyNFT",
      "outputs": [],
      "stateMutability": "nonpayable",
      "type": "function"
    },
    {
      "inputs": [
        {
          "internalType": "uint256",
          "name": "tokenId",
          "type": "uint256"
        }
      ],
      "name": "createMarketSale",
      "outputs": [],
      "stateMutability": "payable",
      "type": "function"
    },
    {
      "inputs": [
        {
          "internalType": "string",
          "name": "tokenURI",
          "type": "string"
        },
        {
          "internalType": "uint256",
          "name": "price",
          "type": "uint256"
        },
        {
          "internalType": "string",
          "name": "aboutNFT",
          "type": "string"
        }
      ],
      "name": "createToken",
      "outputs": [
        {
          "internalType": "uint256",
          "name": "",
          "type": "uint256"
        }
      ],
      "stateMutability": "payable",
      "type": "function"
    },
    {
      "inputs": [],
      "name": "fetchMarketItem",
      "outputs": [
        {
          "components": [
            {
              "internalType": "uint256",
              "name": "tokenId",
              "type": "uint256"
            },
            {
              "internalType": "address payable",
              "name": "seller",
              "type": "address"
            },
            {
              "internalType": "address payable",
              "name": "owner",
              "type": "address"
            },
            {
              "internalType": "uint256",
              "name": "price",
              "type": "uint256"
            },
            {
              "internalType": "bool",
              "name": "sold",
              "type": "bool"
            },
            {
              "internalType": "string",
              "name": "link",
              "type": "string"
            },
            {
              "internalType": "string",
              "name": "about",
              "type": "string"
            },
            {
              "internalType": "uint256",
              "name": "endTime",
              "type": "uint256"
            },
            {
              "internalType": "address payable",
              "name": "highestBiddder",
              "type": "address"
            },
            {
              "internalType": "uint256",
              "name": "highestPayableBid",
              "type": "uint256"
            },
            {
              "internalType": "uint256",
              "name": "bidCount",
              "type": "uint256"
            }
          ],
          "internalType": "struct NFT_Marketplace.MarketItem[]",
          "name": "",
          "type": "tuple[]"
        }
      ],
      "stateMutability": "view",
      "type": "function"
    },
    {
      "inputs": [],
      "name": "fetchMyNFT",
      "outputs": [
        {
          "components": [
            {
              "internalType": "uint256",
              "name": "tokenId",
              "type": "uint256"
            },
            {
              "internalType": "address payable",
              "name": "seller",
              "type": "address"
            },
            {
              "internalType": "address payable",
              "name": "owner",
              "type": "address"
            },
            {
              "internalType": "uint256",
              "name": "price",
              "type": "uint256"
            },
            {
              "internalType": "bool",
              "name": "sold",
              "type": "bool"
            },
            {
              "internalType": "string",
              "name": "link",
              "type": "string"
            },
            {
              "internalType": "string",
              "name": "about",
              "type": "string"
            },
            {
              "internalType": "uint256",
              "name": "endTime",
              "type": "uint256"
            },
            {
              "internalType": "address payable",
              "name": "highestBiddder",
              "type": "address"
            },
            {
              "internalType": "uint256",
              "name": "highestPayableBid",
              "type": "uint256"
            },
            {
              "internalType": "uint256",
              "name": "bidCount",
              "type": "uint256"
            }
          ],
          "internalType": "struct NFT_Marketplace.MarketItem[]",
          "name": "",
          "type": "tuple[]"
        }
      ],
      "stateMutability": "view",
      "type": "function"
    },
    {
      "inputs": [
        {
          "internalType": "uint256",
          "name": "tokenId",
          "type": "uint256"
        }
      ],
      "name": "finalizeBid",
      "outputs": [],
      "stateMutability": "nonpayable",
      "type": "function"
    },
    {
      "inputs": [
        {
          "internalType": "uint256",
          "name": "tokenId",
          "type": "uint256"
        }
      ],
      "name": "getAllOwners",
      "outputs": [
        {
          "internalType": "address[]",
          "name": "",
          "type": "address[]"
        }
      ],
      "stateMutability": "view",
      "type": "function"
    },
    {
      "inputs": [
        {
          "internalType": "uint256",
          "name": "tokenId",
          "type": "uint256"
        }
      ],
      "name": "getApproved",
      "outputs": [
        {
          "internalType": "address",
          "name": "",
          "type": "address"
        }
      ],
      "stateMutability": "view",
      "type": "function"
    },
    {
      "inputs": [
        {
          "internalType": "address",
          "name": "visitor",
          "type": "address"
        }
      ],
      "name": "getMaxNFTData",
      "outputs": [
        {
          "internalType": "string",
          "name": "",
          "type": "string"
        }
      ],
      "stateMutability": "view",
      "type": "function"
    },
    {
      "inputs": [
        {
          "internalType": "uint256",
          "name": "",
          "type": "uint256"
        }
      ],
      "name": "idMarketItem",
      "outputs": [
        {
          "internalType": "uint256",
          "name": "tokenId",
          "type": "uint256"
        },
        {
          "internalType": "address payable",
          "name": "seller",
          "type": "address"
        },
        {
          "internalType": "address payable",
          "name": "owner",
          "type": "address"
        },
        {
          "internalType": "uint256",
          "name": "price",
          "type": "uint256"
        },
        {
          "internalType": "bool",
          "name": "sold",
          "type": "bool"
        },
        {
          "internalType": "string",
          "name": "link",
          "type": "string"
        },
        {
          "internalType": "string",
          "name": "about",
          "type": "string"
        },
        {
          "internalType": "uint256",
          "name": "endTime",
          "type": "uint256"
        },
        {
          "internalType": "address payable",
          "name": "highestBiddder",
          "type": "address"
        },
        {
          "internalType": "uint256",
          "name": "highestPayableBid",
          "type": "uint256"
        },
        {
          "internalType": "uint256",
          "name": "bidCount",
          "type": "uint256"
        }
      ],
      "stateMutability": "view",
      "type": "function"
    },
    {
      "inputs": [
        {
          "internalType": "uint256",
          "name": "listPrice",
          "type": "uint256"
        }
      ],
      "name": "initialize",
      "outputs": [],
      "stateMutability": "nonpayable",
      "type": "function"
    },
    {
      "inputs": [
        {
          "internalType": "address",
          "name": "owner",
          "type": "address"
        },
        {
          "internalType": "address",
          "name": "operator",
          "type": "address"
        }
      ],
      "name": "isApprovedForAll",
      "outputs": [
        {
          "internalType": "bool",
          "name": "",
          "type": "bool"
        }
      ],
      "stateMutability": "view",
      "type": "function"
    },
    {
      "inputs": [],
      "name": "name",
      "outputs": [
        {
          "internalType": "string",
          "name": "",
          "type": "string"
        }
      ],
      "stateMutability": "view",
      "type": "function"
    },
    {
      "inputs": [
        {
          "internalType": "uint256",
          "name": "tokenId",
          "type": "uint256"
        }
      ],
      "name": "ownerOf",
      "outputs": [
        {
          "internalType": "address",
          "name": "",
          "type": "address"
        }
      ],
      "stateMutability": "view",
      "type": "function"
    },
    {
      "inputs": [
        {
          "internalType": "uint256",
          "name": "",
          "type": "uint256"
        },
        {
          "internalType": "uint256",
          "name": "",
          "type": "uint256"
        }
      ],
      "name": "owners",
      "outputs": [
        {
          "internalType": "address",
          "name": "",
          "type": "address"
        }
      ],
      "stateMutability": "view",
      "type": "function"
    },
    {
      "inputs": [
        {
          "internalType": "uint256",
          "name": "tokenId",
          "type": "uint256"
        }
      ],
      "name": "placeBid",
      "outputs": [],
      "stateMutability": "payable",
      "type": "function"
    },
    {
      "inputs": [
        {
          "internalType": "uint256",
          "name": "tokenId",
          "type": "uint256"
        },
        {
          "internalType": "uint256",
          "name": "price",
          "type": "uint256"
        }
      ],
      "name": "reSellToken",
      "outputs": [],
      "stateMutability": "payable",
      "type": "function"
    },
    {
      "inputs": [
        {
          "internalType": "address",
          "name": "",
          "type": "address"
        },
        {
          "internalType": "string",
          "name": "",
          "type": "string"
        }
      ],
      "name": "recomendation",
      "outputs": [
        {
          "internalType": "uint256",
          "name": "",
          "type": "uint256"
        }
      ],
      "stateMutability": "view",
      "type": "function"
    },
    {
      "inputs": [
        {
          "internalType": "address",
          "name": "from",
          "type": "address"
        },
        {
          "internalType": "address",
          "name": "to",
          "type": "address"
        },
        {
          "internalType": "uint256",
          "name": "tokenId",
          "type": "uint256"
        }
      ],
      "name": "safeTransferFrom",
      "outputs": [],
      "stateMutability": "nonpayable",
      "type": "function"
    },
    {
      "inputs": [
        {
          "internalType": "address",
          "name": "from",
          "type": "address"
        },
        {
          "internalType": "address",
          "name": "to",
          "type": "address"
        },
        {
          "internalType": "uint256",
          "name": "tokenId",
          "type": "uint256"
        },
        {
          "internalType": "bytes",
          "name": "data",
          "type": "bytes"
        }
      ],
      "name": "safeTransferFrom",
      "outputs": [],
      "stateMutability": "nonpayable",
      "type": "function"
    },
    {
      "inputs": [
        {
          "internalType": "address",
          "name": "operator",
          "type": "address"
        },
        {
          "internalType": "bool",
          "name": "approved",
          "type": "bool"
        }
      ],
      "name": "setApprovalForAll",
      "outputs": [],
      "stateMutability": "nonpayable",
      "type": "function"
    },
    {
      "inputs": [
        {
          "internalType": "uint256",
          "name": "tokenId",
          "type": "uint256"
        }
      ],
      "name": "startAuction",
      "outputs": [],
      "stateMutability": "nonpayable",
      "type": "function"
    },
    {
      "inputs": [
        {
          "internalType": "bytes4",
          "name": "interfaceId",
          "type": "bytes4"
        }
      ],
      "name": "supportsInterface",
      "outputs": [
        {
          "internalType": "bool",
          "name": "",
          "type": "bool"
        }
      ],
      "stateMutability": "view",
      "type": "function"
    },
    {
      "inputs": [],
      "name": "symbol",
      "outputs": [
        {
          "internalType": "string",
          "name": "",
          "type": "string"
        }
      ],
      "stateMutability": "view",
      "type": "function"
    },
    {
      "inputs": [
        {
          "internalType": "uint256",
          "name": "tokenId",
          "type": "uint256"
        }
      ],
      "name": "tokenURI",
      "outputs": [
        {
          "internalType": "string",
          "name": "",
          "type": "string"
        }
      ],
      "stateMutability": "view",
      "type": "function"
    },
    {
      "inputs": [
        {
          "internalType": "address",
          "name": "from",
          "type": "address"
        },
        {
          "internalType": "address",
          "name": "to",
          "type": "address"
        },
        {
          "internalType": "uint256",
          "name": "tokenId",
          "type": "uint256"
        }
      ],
      "name": "transferFrom",
      "outputs": [],
      "stateMutability": "nonpayable",
      "type": "function"
    }
  ],
  "bytecode": "0x608060405234801561001057600080fd5b50615f5180620000216000396000f3fe6080604052600436106102045760003560e01c806385535b2511610118578063be9af536116100a0578063cb6cbe8f1161006f578063cb6cbe8f146107bf578063e985e9c5146107e8578063eb3fc92e14610825578063f474a8021461084e578063fe4b84df1461088b57610204565b8063be9af5361461070b578063c18763f714610727578063c6c9b5b114610752578063c87b56dd1461078257610204565b806395d89b41116100e757806395d89b41146106475780639979ef4514610672578063a22cb4651461068e578063aa46a400146106b7578063b88d4fde146106e257610204565b806385535b251461059857806387506a0d146105b457806388a80012146105df5780638fafd0211461061c57610204565b8063185385431161019b5780633f1ffcec1161016a5780633f1ffcec1461047b57806342842e0e146104b857806361253a04146104e15780636352211e1461051e57806370a082311461055b57610204565b806318538543146103af57806323b872dd146103d85780632bc115691461040157806333764f531461043e57610204565b8063087ae8a2116101d7578063087ae8a2146102d7578063091526531461031e578063095ea7b31461035b57806315b246771461038457610204565b806301ffc9a714610209578063065de74c1461024657806306fdde031461026f578063081812fc1461029a575b600080fd5b34801561021557600080fd5b50610230600480360381019061022b9190614771565b6108b4565b60405161023d91906147b9565b60405180910390f35b34801561025257600080fd5b5061026d6004803603810190610268919061480a565b610915565b005b34801561027b57600080fd5b50610284610a06565b60405161029191906148d0565b60405180910390f35b3480156102a657600080fd5b506102c160048036038101906102bc919061480a565b610a98565b6040516102ce9190614933565b60405180910390f35b3480156102e357600080fd5b506102fe60048036038101906102f9919061480a565b610ade565b6040516103159b9a9998979695949392919061497e565b60405180910390f35b34801561032a57600080fd5b5061034560048036038101906103409190614a37565b610cb5565b6040516103529190614933565b60405180910390f35b34801561036757600080fd5b50610382600480360381019061037d9190614aa3565b610cf7565b005b34801561039057600080fd5b50610399610e0f565b6040516103a69190614ae3565b60405180910390f35b3480156103bb57600080fd5b506103d660048036038101906103d19190614b2a565b610e15565b005b3480156103e457600080fd5b506103ff60048036038101906103fa9190614b7d565b611098565b005b34801561040d57600080fd5b506104286004803603810190610423919061480a565b6110f8565b60405161043591906147b9565b60405180910390f35b34801561044a57600080fd5b5061046560048036038101906104609190614a37565b611118565b6040516104729190614933565b60405180910390f35b34801561048757600080fd5b506104a2600480360381019061049d9190614bd0565b611166565b6040516104af9190614ae3565b60405180910390f35b3480156104c457600080fd5b506104df60048036038101906104da9190614b7d565b61118b565b005b3480156104ed57600080fd5b506105086004803603810190610503919061480a565b6111ab565b6040516105159190614cce565b60405180910390f35b34801561052a57600080fd5b506105456004803603810190610540919061480a565b61124c565b6040516105529190614933565b60405180910390f35b34801561056757600080fd5b50610582600480360381019061057d9190614cf0565b6112d3565b60405161058f9190614ae3565b60405180910390f35b6105b260048036038101906105ad9190614a37565b61138b565b005b3480156105c057600080fd5b506105c96115b2565b6040516105d69190614ae3565b60405180910390f35b3480156105eb57600080fd5b5061060660048036038101906106019190614e52565b6115b8565b6040516106139190614ae3565b60405180910390f35b34801561062857600080fd5b506106316115f3565b60405161063e91906150dd565b60405180910390f35b34801561065357600080fd5b5061065c6119e0565b60405161066991906148d0565b60405180910390f35b61068c6004803603810190610687919061480a565b611a72565b005b34801561069a57600080fd5b506106b560048036038101906106b0919061512b565b611f47565b005b3480156106c357600080fd5b506106cc611f5d565b6040516106d99190614ae3565b60405180910390f35b3480156106ee57600080fd5b506107096004803603810190610704919061520c565b611f63565b005b6107256004803603810190610720919061480a565b611fc5565b005b34801561073357600080fd5b5061073c612008565b60405161074991906150dd565b60405180910390f35b61076c6004803603810190610767919061528f565b612488565b6040516107799190614ae3565b60405180910390f35b34801561078e57600080fd5b506107a960048036038101906107a4919061480a565b6124d4565b6040516107b691906148d0565b60405180910390f35b3480156107cb57600080fd5b506107e660048036038101906107e1919061480a565b6125e7565b005b3480156107f457600080fd5b5061080f600480360381019061080a919061531a565b6129b1565b60405161081c91906147b9565b60405180910390f35b34801561083157600080fd5b5061084c6004803603810190610847919061480a565b612a45565b005b34801561085a57600080fd5b5061087560048036038101906108709190614cf0565b612b37565b60405161088291906148d0565b60405180910390f35b34801561089757600080fd5b506108b260048036038101906108ad919061480a565b612c08565b005b6000634906490660e01b7bffffffffffffffffffffffffffffffffffffffffffffffffffffffff1916827bffffffffffffffffffffffffffffffffffffffffffffffffffffffff1916148061090e575061090d82612e0a565b5b9050919050565b3373ffffffffffffffffffffffffffffffffffffffff1660cd600083815260200190815260200160002060010160009054906101000a900473ffffffffffffffffffffffffffffffffffffffff1673ffffffffffffffffffffffffffffffffffffffff161480156109a7575060cd600082815260200190815260200160002060040160009054906101000a900460ff16155b6109b057600080fd5b6078426109bd9190615389565b60cd600083815260200190815260200160002060070181905550600160d3600083815260200190815260200160002060006101000a81548160ff02191690831515021790555050565b606060658054610a159061540e565b80601f0160208091040260200160405190810160405280929190818152602001828054610a419061540e565b8015610a8e5780601f10610a6357610100808354040283529160200191610a8e565b820191906000526020600020905b815481529060010190602001808311610a7157829003601f168201915b5050505050905090565b6000610aa382612eec565b6069600083815260200190815260200160002060009054906101000a900473ffffffffffffffffffffffffffffffffffffffff169050919050565b60cd6020528060005260406000206000915090508060000154908060010160009054906101000a900473ffffffffffffffffffffffffffffffffffffffff16908060020160009054906101000a900473ffffffffffffffffffffffffffffffffffffffff16908060030154908060040160009054906101000a900460ff1690806005018054610b6c9061540e565b80601f0160208091040260200160405190810160405280929190818152602001828054610b989061540e565b8015610be55780601f10610bba57610100808354040283529160200191610be5565b820191906000526020600020905b815481529060010190602001808311610bc857829003601f168201915b505050505090806006018054610bfa9061540e565b80601f0160208091040260200160405190810160405280929190818152602001828054610c269061540e565b8015610c735780601f10610c4857610100808354040283529160200191610c73565b820191906000526020600020905b815481529060010190602001808311610c5657829003601f168201915b5050505050908060070154908060080160009054906101000a900473ffffffffffffffffffffffffffffffffffffffff169080600901549080600a015490508b565b60d26020528160005260406000206020528060005260406000206000915091509054906101000a900473ffffffffffffffffffffffffffffffffffffffff1681565b6000610d028261124c565b90508073ffffffffffffffffffffffffffffffffffffffff168373ffffffffffffffffffffffffffffffffffffffff161415610d73576040517f08c379a0000000000000000000000000000000000000000000000000000000008152600401610d6a906154b2565b60405180910390fd5b8073ffffffffffffffffffffffffffffffffffffffff16610d92612f37565b73ffffffffffffffffffffffffffffffffffffffff161480610dc15750610dc081610dbb612f37565b6129b1565b5b610e00576040517f08c379a0000000000000000000000000000000000000000000000000000000008152600401610df790615544565b60405180910390fd5b610e0a8383612f3f565b505050565b60d45481565b60cd600084815260200190815260200160002060010160009054906101000a900473ffffffffffffffffffffffffffffffffffffffff1673ffffffffffffffffffffffffffffffffffffffff166108fc829081150290604051600060405180830381858888f19350505050158015610e91573d6000803e3d6000fd5b508160cd600085815260200190815260200160002060020160006101000a81548173ffffffffffffffffffffffffffffffffffffffff021916908373ffffffffffffffffffffffffffffffffffffffff160217905550600160cd600085815260200190815260200160002060040160006101000a81548160ff0219169083151502179055508160cd600085815260200190815260200160002060010160006101000a81548173ffffffffffffffffffffffffffffffffffffffff021916908373ffffffffffffffffffffffffffffffffffffffff16021790555060ca6000815480929190610f7e90615564565b919050555060ce6000848152602001908152602001600020829080600181540180825580915050600190039060005260206000200160009091909190916101000a81548173ffffffffffffffffffffffffffffffffffffffff021916908373ffffffffffffffffffffffffffffffffffffffff160217905550600160cf60008473ffffffffffffffffffffffffffffffffffffffff1673ffffffffffffffffffffffffffffffffffffffff16815260200190815260200160002060cd600086815260200190815260200160002060060160405161105b919061564c565b908152602001604051809103902060008282546110789190615389565b9250508190555061108882612ff8565b611093308385613283565b505050565b6110a96110a3612f37565b8261357d565b6110e8576040517f08c379a00000000000000000000000000000000000000000000000000000000081526004016110df906156d5565b60405180910390fd5b6110f3838383613283565b505050565b60d36020528060005260406000206000915054906101000a900460ff1681565b60ce602052816000526040600020818154811061113457600080fd5b906000526020600020016000915091509054906101000a900473ffffffffffffffffffffffffffffffffffffffff1681565b60d1602052816000526040600020602052806000526040600020600091509150505481565b6111a683838360405180602001604052806000815250611f63565b505050565b606060ce600083815260200190815260200160002080548060200260200160405190810160405280929190818152602001828054801561124057602002820191906000526020600020905b8160009054906101000a900473ffffffffffffffffffffffffffffffffffffffff1673ffffffffffffffffffffffffffffffffffffffff16815260200190600101908083116111f6575b50505050509050919050565b60008061125883613612565b9050600073ffffffffffffffffffffffffffffffffffffffff168173ffffffffffffffffffffffffffffffffffffffff1614156112ca576040517f08c379a00000000000000000000000000000000000000000000000000000000081526004016112c190615741565b60405180910390fd5b80915050919050565b60008073ffffffffffffffffffffffffffffffffffffffff168273ffffffffffffffffffffffffffffffffffffffff161415611344576040517f08c379a000000000000000000000000000000000000000000000000000000000815260040161133b906157d3565b60405180910390fd5b606860008373ffffffffffffffffffffffffffffffffffffffff1673ffffffffffffffffffffffffffffffffffffffff168152602001908152602001600020549050919050565b3373ffffffffffffffffffffffffffffffffffffffff1660cd600084815260200190815260200160002060020160009054906101000a900473ffffffffffffffffffffffffffffffffffffffff1673ffffffffffffffffffffffffffffffffffffffff161480156113fd575060cb5434145b61140657600080fd5b600060cd600084815260200190815260200160002060040160006101000a81548160ff0219169083151502179055508060cd6000848152602001908152602001600020600301819055503360cd600084815260200190815260200160002060010160006101000a81548173ffffffffffffffffffffffffffffffffffffffff021916908373ffffffffffffffffffffffffffffffffffffffff1602179055503060cd600084815260200190815260200160002060020160006101000a81548173ffffffffffffffffffffffffffffffffffffffff021916908373ffffffffffffffffffffffffffffffffffffffff16021790555060ca600081548092919061150d906157f3565b9190505550600160cf60003373ffffffffffffffffffffffffffffffffffffffff1673ffffffffffffffffffffffffffffffffffffffff16815260200190815260200160002060cd6000858152602001908152602001600020600601604051611576919061564c565b90815260200160405180910390206000828254611593919061581d565b925050819055506115a333612ff8565b6115ae333084613283565b5050565b60ca5481565b60cf60205281600052604060002081805160208101820180518482526020830160208501208183528095505050505050600091509150505481565b6060600060c9549050600060ca5460c95461160e919061581d565b90506000808267ffffffffffffffff81111561162d5761162c614d27565b5b60405190808252806020026020018201604052801561166657816020015b6116536145c4565b81526020019060019003908161164b5790505b50905060005b848110156119d5573073ffffffffffffffffffffffffffffffffffffffff1660cd600060018461169c9190615389565b815260200190815260200160002060020160009054906101000a900473ffffffffffffffffffffffffffffffffffffffff1673ffffffffffffffffffffffffffffffffffffffff1614156119c25760006001826116f99190615389565b9050600060cd600083815260200190815260200160002090508060405180610160016040529081600082015481526020016001820160009054906101000a900473ffffffffffffffffffffffffffffffffffffffff1673ffffffffffffffffffffffffffffffffffffffff1673ffffffffffffffffffffffffffffffffffffffff1681526020016002820160009054906101000a900473ffffffffffffffffffffffffffffffffffffffff1673ffffffffffffffffffffffffffffffffffffffff1673ffffffffffffffffffffffffffffffffffffffff168152602001600382015481526020016004820160009054906101000a900460ff1615151515815260200160058201805461180a9061540e565b80601f01602080910402602001604051908101604052809291908181526020018280546118369061540e565b80156118835780601f1061185857610100808354040283529160200191611883565b820191906000526020600020905b81548152906001019060200180831161186657829003601f168201915b5050505050815260200160068201805461189c9061540e565b80601f01602080910402602001604051908101604052809291908181526020018280546118c89061540e565b80156119155780601f106118ea57610100808354040283529160200191611915565b820191906000526020600020905b8154815290600101906020018083116118f857829003601f168201915b50505050508152602001600782015481526020016008820160009054906101000a900473ffffffffffffffffffffffffffffffffffffffff1673ffffffffffffffffffffffffffffffffffffffff1673ffffffffffffffffffffffffffffffffffffffff16815260200160098201548152602001600a820154815250508486815181106119a5576119a4615851565b5b60200260200101819052506001856119bd9190615389565b945050505b80806119cd90615564565b91505061166c565b508094505050505090565b6060606680546119ef9061540e565b80601f0160208091040260200160405190810160405280929190818152602001828054611a1b9061540e565b8015611a685780601f10611a3d57610100808354040283529160200191611a68565b820191906000526020600020905b815481529060010190602001808311611a4b57829003601f168201915b5050505050905090565b60003460d1600084815260200190815260200160002060003373ffffffffffffffffffffffffffffffffffffffff1673ffffffffffffffffffffffffffffffffffffffff16815260200190815260200160002054611ad09190615389565b905060cd60008381526020019081526020016000206009015481118015611b0d575060cd6000838152602001908152602001600020600701544211155b8015611b7b575060cd600083815260200190815260200160002060010160009054906101000a900473ffffffffffffffffffffffffffffffffffffffff1673ffffffffffffffffffffffffffffffffffffffff163373ffffffffffffffffffffffffffffffffffffffff1614155b8015611b8f5750670de0b6b3a76400003410155b611b9857600080fd5b600060d1600084815260200190815260200160002060003373ffffffffffffffffffffffffffffffffffffffff1673ffffffffffffffffffffffffffffffffffffffff168152602001908152602001600020541415611c975760cd6000838152602001908152602001600020600a016000815480929190611c1890615564565b91905055503360d26000848152602001908152602001600020600060cd6000868152602001908152602001600020600a0154815260200190815260200160002060006101000a81548173ffffffffffffffffffffffffffffffffffffffff021916908373ffffffffffffffffffffffffffffffffffffffff1602179055505b8060d1600084815260200190815260200160002060003373ffffffffffffffffffffffffffffffffffffffff1673ffffffffffffffffffffffffffffffffffffffff1681526020019081526020016000208190555060d16000838152602001908152602001600020600060cd600085815260200190815260200160002060080160009054906101000a900473ffffffffffffffffffffffffffffffffffffffff1673ffffffffffffffffffffffffffffffffffffffff1673ffffffffffffffffffffffffffffffffffffffff16815260200190815260200160002054811015611e3657611e1760d45482611d8b9190615389565b60d16000858152602001908152602001600020600060cd600087815260200190815260200160002060080160009054906101000a900473ffffffffffffffffffffffffffffffffffffffff1673ffffffffffffffffffffffffffffffffffffffff1673ffffffffffffffffffffffffffffffffffffffff1681526020019081526020016000205461364f565b60cd600084815260200190815260200160002060090181905550611f43565b611ed38160d45460d16000868152602001908152602001600020600060cd600088815260200190815260200160002060080160009054906101000a900473ffffffffffffffffffffffffffffffffffffffff1673ffffffffffffffffffffffffffffffffffffffff1673ffffffffffffffffffffffffffffffffffffffff16815260200190815260200160002054611ece9190615389565b61364f565b60cd6000848152602001908152602001600020600901819055503360cd600084815260200190815260200160002060080160006101000a81548173ffffffffffffffffffffffffffffffffffffffff021916908373ffffffffffffffffffffffffffffffffffffffff1602179055505b5050565b611f59611f52612f37565b838361366a565b5050565b60c95481565b611f74611f6e612f37565b8361357d565b611fb3576040517f08c379a0000000000000000000000000000000000000000000000000000000008152600401611faa906156d5565b60405180910390fd5b611fbf848484846137d7565b50505050565b600060cd600083815260200190815260200160002060030154905060cb5481611fee9190615389565b3414611ff957600080fd5b612004823383610e15565b5050565b6060600060c954905060008060005b838110156120b8573373ffffffffffffffffffffffffffffffffffffffff1660cd60006001846120479190615389565b815260200190815260200160002060020160009054906101000a900473ffffffffffffffffffffffffffffffffffffffff1673ffffffffffffffffffffffffffffffffffffffff1614156120a5576001836120a29190615389565b92505b80806120b090615564565b915050612017565b5060008267ffffffffffffffff8111156120d5576120d4614d27565b5b60405190808252806020026020018201604052801561210e57816020015b6120fb6145c4565b8152602001906001900390816120f35790505b50905060005b8481101561247d573373ffffffffffffffffffffffffffffffffffffffff1660cd60006001846121449190615389565b815260200190815260200160002060020160009054906101000a900473ffffffffffffffffffffffffffffffffffffffff1673ffffffffffffffffffffffffffffffffffffffff16141561246a5760006001826121a19190615389565b9050600060cd600083815260200190815260200160002090508060405180610160016040529081600082015481526020016001820160009054906101000a900473ffffffffffffffffffffffffffffffffffffffff1673ffffffffffffffffffffffffffffffffffffffff1673ffffffffffffffffffffffffffffffffffffffff1681526020016002820160009054906101000a900473ffffffffffffffffffffffffffffffffffffffff1673ffffffffffffffffffffffffffffffffffffffff1673ffffffffffffffffffffffffffffffffffffffff168152602001600382015481526020016004820160009054906101000a900460ff161515151581526020016005820180546122b29061540e565b80601f01602080910402602001604051908101604052809291908181526020018280546122de9061540e565b801561232b5780601f106123005761010080835404028352916020019161232b565b820191906000526020600020905b81548152906001019060200180831161230e57829003601f168201915b505050505081526020016006820180546123449061540e565b80601f01602080910402602001604051908101604052809291908181526020018280546123709061540e565b80156123bd5780601f10612392576101008083540402835291602001916123bd565b820191906000526020600020905b8154815290600101906020018083116123a057829003601f168201915b50505050508152602001600782015481526020016008820160009054906101000a900473ffffffffffffffffffffffffffffffffffffffff1673ffffffffffffffffffffffffffffffffffffffff1673ffffffffffffffffffffffffffffffffffffffff16815260200160098201548152602001600a8201548152505084868151811061244d5761244c615851565b5b60200260200101819052506001856124659190615389565b945050505b808061247590615564565b915050612114565b508094505050505090565b600060c9600081548092919061249d90615564565b9190505550600060c95490506124b33382613833565b6124bd8186613a51565b6124c981858786613afc565b809150509392505050565b60606124df82612eec565b60006097600084815260200190815260200160002080546124ff9061540e565b80601f016020809104026020016040519081016040528092919081815260200182805461252b9061540e565b80156125785780601f1061254d57610100808354040283529160200191612578565b820191906000526020600020905b81548152906001019060200180831161255b57829003601f168201915b505050505090506000612589613dba565b905060008151141561259f5781925050506125e2565b6000825111156125d45780826040516020016125bc9291906158b1565b604051602081830303815290604052925050506125e2565b6125dd84613dd1565b925050505b919050565b60cd600082815260200190815260200160002060070154421161260957600080fd5b6000806000600190505b60cd6000858152602001908152602001600020600a015481116129ab5760cd600085815260200190815260200160002060080160009054906101000a900473ffffffffffffffffffffffffffffffffffffffff1673ffffffffffffffffffffffffffffffffffffffff1660d26000868152602001908152602001600020600083815260200190815260200160002060009054906101000a900473ffffffffffffffffffffffffffffffffffffffff1673ffffffffffffffffffffffffffffffffffffffff1614156127d85760cd600085815260200190815260200160002060080160009054906101000a900473ffffffffffffffffffffffffffffffffffffffff1692506605543df729c00060cd60008681526020019081526020016000206009015460d16000878152602001908152602001600020600060cd600089815260200190815260200160002060080160009054906101000a900473ffffffffffffffffffffffffffffffffffffffff1673ffffffffffffffffffffffffffffffffffffffff1673ffffffffffffffffffffffffffffffffffffffff168152602001908152602001600020546127c7919061581d565b6127d1919061581d565b91506128b7565b60d26000858152602001908152602001600020600082815260200190815260200160002060009054906101000a900473ffffffffffffffffffffffffffffffffffffffff16925060d16000858152602001908152602001600020600060d26000878152602001908152602001600020600084815260200190815260200160002060009054906101000a900473ffffffffffffffffffffffffffffffffffffffff1673ffffffffffffffffffffffffffffffffffffffff1673ffffffffffffffffffffffffffffffffffffffff1681526020019081526020016000205491505b600060d16000868152602001908152602001600020600060d26000888152602001908152602001600020600085815260200190815260200160002060009054906101000a900473ffffffffffffffffffffffffffffffffffffffff1673ffffffffffffffffffffffffffffffffffffffff1673ffffffffffffffffffffffffffffffffffffffff168152602001908152602001600020819055508273ffffffffffffffffffffffffffffffffffffffff166108fc839081150290604051600060405180830381858888f19350505050158015612997573d6000803e3d6000fd5b5080806129a390615564565b915050612613565b50505050565b6000606a60008473ffffffffffffffffffffffffffffffffffffffff1673ffffffffffffffffffffffffffffffffffffffff16815260200190815260200160002060008373ffffffffffffffffffffffffffffffffffffffff1673ffffffffffffffffffffffffffffffffffffffff16815260200190815260200160002060009054906101000a900460ff16905092915050565b60cd60008281526020019081526020016000206007015442118015612acb575060cd600082815260200190815260200160002060010160009054906101000a900473ffffffffffffffffffffffffffffffffffffffff1673ffffffffffffffffffffffffffffffffffffffff163373ffffffffffffffffffffffffffffffffffffffff16145b612ad457600080fd5b612add816125e7565b612b348160cd600084815260200190815260200160002060080160009054906101000a900473ffffffffffffffffffffffffffffffffffffffff1660cd600085815260200190815260200160002060090154610e15565b50565b606060d060008373ffffffffffffffffffffffffffffffffffffffff1673ffffffffffffffffffffffffffffffffffffffff1681526020019081526020016000208054612b839061540e565b80601f0160208091040260200160405190810160405280929190818152602001828054612baf9061540e565b8015612bfc5780601f10612bd157610100808354040283529160200191612bfc565b820191906000526020600020905b815481529060010190602001808311612bdf57829003601f168201915b50505050509050919050565b60008060019054906101000a900460ff16159050808015612c395750600160008054906101000a900460ff1660ff16105b80612c665750612c4830613e39565b158015612c655750600160008054906101000a900460ff1660ff16145b5b612ca5576040517f08c379a0000000000000000000000000000000000000000000000000000000008152600401612c9c90615947565b60405180910390fd5b60016000806101000a81548160ff021916908360ff1602179055508015612ce2576001600060016101000a81548160ff0219169083151502179055505b612d566040518060400160405280601381526020017f4e4654204d657461766572736520546f6b656e000000000000000000000000008152506040518060400160405280600581526020017f4d594e4654000000000000000000000000000000000000000000000000000000815250613e5c565b3360cc60006101000a81548173ffffffffffffffffffffffffffffffffffffffff021916908373ffffffffffffffffffffffffffffffffffffffff1602179055508160cb81905550670de0b6b3a764000060d4819055508015612e065760008060016101000a81548160ff0219169083151502179055507f7f26b83ff96e1f2b6a682f133852f6798a09c465da95921460cefb38474024986001604051612dfd91906159b9565b60405180910390a15b5050565b60007f80ac58cd000000000000000000000000000000000000000000000000000000007bffffffffffffffffffffffffffffffffffffffffffffffffffffffff1916827bffffffffffffffffffffffffffffffffffffffffffffffffffffffff19161480612ed557507f5b5e139f000000000000000000000000000000000000000000000000000000007bffffffffffffffffffffffffffffffffffffffffffffffffffffffff1916827bffffffffffffffffffffffffffffffffffffffffffffffffffffffff1916145b80612ee55750612ee482613eb9565b5b9050919050565b612ef581613f23565b612f34576040517f08c379a0000000000000000000000000000000000000000000000000000000008152600401612f2b90615741565b60405180910390fd5b50565b600033905090565b816069600083815260200190815260200160002060006101000a81548173ffffffffffffffffffffffffffffffffffffffff021916908373ffffffffffffffffffffffffffffffffffffffff160217905550808273ffffffffffffffffffffffffffffffffffffffff16612fb28361124c565b73ffffffffffffffffffffffffffffffffffffffff167f8c5be1e5ebec7d5bd14f71427d1e84f3dd0314c0f7b2291e5b200ac8c7c3b92560405160405180910390a45050565b60006040518060c001604052806040518060400160405280600681526020017f67616d696e67000000000000000000000000000000000000000000000000000081525081526020016040518060400160405280600681526020017f686f72726f72000000000000000000000000000000000000000000000000000081525081526020016040518060400160405280600681526020017f6d6f6e6b6579000000000000000000000000000000000000000000000000000081525081526020016040518060400160405280600581526020017f616e696d6500000000000000000000000000000000000000000000000000000081525081526020016040518060400160405280600381526020017f617274000000000000000000000000000000000000000000000000000000000081525081526020016040518060400160405280600581526020017f6d6f76696500000000000000000000000000000000000000000000000000000081525081525090506000606060005b600681101561322857600060cf60008773ffffffffffffffffffffffffffffffffffffffff1673ffffffffffffffffffffffffffffffffffffffff1681526020019081526020016000208583600681106131cb576131ca615851565b5b60200201516040516131dd91906159d4565b9081526020016040518091039020549050838111156132145780935084826006811061320c5761320b615851565b5b602002015192505b50808061322090615564565b91505061316e565b508060d060008673ffffffffffffffffffffffffffffffffffffffff1673ffffffffffffffffffffffffffffffffffffffff168152602001908152602001600020908051906020019061327c929190614662565b5050505050565b8273ffffffffffffffffffffffffffffffffffffffff166132a38261124c565b73ffffffffffffffffffffffffffffffffffffffff16146132f9576040517f08c379a00000000000000000000000000000000000000000000000000000000081526004016132f090615a5d565b60405180910390fd5b600073ffffffffffffffffffffffffffffffffffffffff168273ffffffffffffffffffffffffffffffffffffffff161415613369576040517f08c379a000000000000000000000000000000000000000000000000000000000815260040161336090615aef565b60405180910390fd5b6133768383836001613f64565b8273ffffffffffffffffffffffffffffffffffffffff166133968261124c565b73ffffffffffffffffffffffffffffffffffffffff16146133ec576040517f08c379a00000000000000000000000000000000000000000000000000000000081526004016133e390615a5d565b60405180910390fd5b6069600082815260200190815260200160002060006101000a81549073ffffffffffffffffffffffffffffffffffffffff02191690556001606860008573ffffffffffffffffffffffffffffffffffffffff1673ffffffffffffffffffffffffffffffffffffffff168152602001908152602001600020600082825403925050819055506001606860008473ffffffffffffffffffffffffffffffffffffffff1673ffffffffffffffffffffffffffffffffffffffff16815260200190815260200160002060008282540192505081905550816067600083815260200190815260200160002060006101000a81548173ffffffffffffffffffffffffffffffffffffffff021916908373ffffffffffffffffffffffffffffffffffffffff160217905550808273ffffffffffffffffffffffffffffffffffffffff168473ffffffffffffffffffffffffffffffffffffffff167fddf252ad1be2c89b69c2b068fc378daa952ba7f163c4a11628f55a4df523b3ef60405160405180910390a46135788383836001613f6a565b505050565b6000806135898361124c565b90508073ffffffffffffffffffffffffffffffffffffffff168473ffffffffffffffffffffffffffffffffffffffff1614806135cb57506135ca81856129b1565b5b8061360957508373ffffffffffffffffffffffffffffffffffffffff166135f184610a98565b73ffffffffffffffffffffffffffffffffffffffff16145b91505092915050565b60006067600083815260200190815260200160002060009054906101000a900473ffffffffffffffffffffffffffffffffffffffff169050919050565b600081831161366057829050613664565b8190505b92915050565b8173ffffffffffffffffffffffffffffffffffffffff168373ffffffffffffffffffffffffffffffffffffffff1614156136d9576040517f08c379a00000000000000000000000000000000000000000000000000000000081526004016136d090615b5b565b60405180910390fd5b80606a60008573ffffffffffffffffffffffffffffffffffffffff1673ffffffffffffffffffffffffffffffffffffffff16815260200190815260200160002060008473ffffffffffffffffffffffffffffffffffffffff1673ffffffffffffffffffffffffffffffffffffffff16815260200190815260200160002060006101000a81548160ff0219169083151502179055508173ffffffffffffffffffffffffffffffffffffffff168373ffffffffffffffffffffffffffffffffffffffff167f17307eab39ab6107e8899845ad3d59bd9653f200f220920489ca2b5937696c31836040516137ca91906147b9565b60405180910390a3505050565b6137e2848484613283565b6137ee84848484613f70565b61382d576040517f08c379a000000000000000000000000000000000000000000000000000000000815260040161382490615bed565b60405180910390fd5b50505050565b600073ffffffffffffffffffffffffffffffffffffffff168273ffffffffffffffffffffffffffffffffffffffff1614156138a3576040517f08c379a000000000000000000000000000000000000000000000000000000000815260040161389a90615c59565b60405180910390fd5b6138ac81613f23565b156138ec576040517f08c379a00000000000000000000000000000000000000000000000000000000081526004016138e390615cc5565b60405180910390fd5b6138fa600083836001613f64565b61390381613f23565b15613943576040517f08c379a000000000000000000000000000000000000000000000000000000000815260040161393a90615cc5565b60405180910390fd5b6001606860008473ffffffffffffffffffffffffffffffffffffffff1673ffffffffffffffffffffffffffffffffffffffff16815260200190815260200160002060008282540192505081905550816067600083815260200190815260200160002060006101000a81548173ffffffffffffffffffffffffffffffffffffffff021916908373ffffffffffffffffffffffffffffffffffffffff160217905550808273ffffffffffffffffffffffffffffffffffffffff16600073ffffffffffffffffffffffffffffffffffffffff167fddf252ad1be2c89b69c2b068fc378daa952ba7f163c4a11628f55a4df523b3ef60405160405180910390a4613a4d600083836001613f6a565b5050565b613a5a82613f23565b613a99576040517f08c379a0000000000000000000000000000000000000000000000000000000008152600401613a9090615d57565b60405180910390fd5b80609760008481526020019081526020016000209080519060200190613ac0929190614662565b507ff8e1a15aba9398e019f0b49df1a4fde98ee17ae345cb5f6b5e2c27f5033e8ce782604051613af09190614ae3565b60405180910390a15050565b600083118015613b0d575060cb5434145b8015613b1e5750613b1d81614107565b5b613b2757600080fd5b6040518061016001604052808581526020013373ffffffffffffffffffffffffffffffffffffffff1681526020013073ffffffffffffffffffffffffffffffffffffffff168152602001848152602001600015158152602001838152602001828152602001428152602001600073ffffffffffffffffffffffffffffffffffffffff16815260200160008152602001600081525060cd60008681526020019081526020016000206000820151816000015560208201518160010160006101000a81548173ffffffffffffffffffffffffffffffffffffffff021916908373ffffffffffffffffffffffffffffffffffffffff16021790555060408201518160020160006101000a81548173ffffffffffffffffffffffffffffffffffffffff021916908373ffffffffffffffffffffffffffffffffffffffff1602179055506060820151816003015560808201518160040160006101000a81548160ff02191690831515021790555060a0820151816005019080519060200190613cac929190614662565b5060c0820151816006019080519060200190613cc9929190614662565b5060e082015181600701556101008201518160080160006101000a81548173ffffffffffffffffffffffffffffffffffffffff021916908373ffffffffffffffffffffffffffffffffffffffff160217905550610120820151816009015561014082015181600a015590505060ce6000858152602001908152602001600020339080600181540180825580915050600190039060005260206000200160009091909190916101000a81548173ffffffffffffffffffffffffffffffffffffffff021916908373ffffffffffffffffffffffffffffffffffffffff160217905550613db4333086613283565b50505050565b606060405180602001604052806000815250905090565b6060613ddc82612eec565b6000613de6613dba565b90506000815111613e065760405180602001604052806000815250613e31565b80613e1084614318565b604051602001613e219291906158b1565b6040516020818303038152906040525b915050919050565b6000808273ffffffffffffffffffffffffffffffffffffffff163b119050919050565b600060019054906101000a900460ff16613eab576040517f08c379a0000000000000000000000000000000000000000000000000000000008152600401613ea290615de9565b60405180910390fd5b613eb582826143f0565b5050565b60007f01ffc9a7000000000000000000000000000000000000000000000000000000007bffffffffffffffffffffffffffffffffffffffffffffffffffffffff1916827bffffffffffffffffffffffffffffffffffffffffffffffffffffffff1916149050919050565b60008073ffffffffffffffffffffffffffffffffffffffff16613f4583613612565b73ffffffffffffffffffffffffffffffffffffffff1614159050919050565b50505050565b50505050565b6000613f918473ffffffffffffffffffffffffffffffffffffffff16613e39565b156140fa578373ffffffffffffffffffffffffffffffffffffffff1663150b7a02613fba612f37565b8786866040518563ffffffff1660e01b8152600401613fdc9493929190615e5e565b602060405180830381600087803b158015613ff657600080fd5b505af192505050801561402757506040513d601f19601f820116820180604052508101906140249190615ebf565b60015b6140aa573d8060008114614057576040519150601f19603f3d011682016040523d82523d6000602084013e61405c565b606091505b506000815114156140a2576040517f08c379a000000000000000000000000000000000000000000000000000000000815260040161409990615bed565b60405180910390fd5b805181602001fd5b63150b7a0260e01b7bffffffffffffffffffffffffffffffffffffffffffffffffffffffff1916817bffffffffffffffffffffffffffffffffffffffffffffffffffffffff1916149150506140ff565b600190505b949350505050565b6000806040518060c001604052806040518060400160405280600681526020017f67616d696e67000000000000000000000000000000000000000000000000000081525081526020016040518060400160405280600681526020017f686f72726f72000000000000000000000000000000000000000000000000000081525081526020016040518060400160405280600681526020017f6d6f6e6b6579000000000000000000000000000000000000000000000000000081525081526020016040518060400160405280600581526020017f616e696d6500000000000000000000000000000000000000000000000000000081525081526020016040518060400160405280600381526020017f617274000000000000000000000000000000000000000000000000000000000081525081526020016040518060400160405280600581526020017f6d6f766965000000000000000000000000000000000000000000000000000000815250815250905060005b600681101561430c5781816006811061429657614295615851565b5b60200201516040516020016142ab91906159d4565b60405160208183030381529060405280519060200120846040516020016142d291906159d4565b6040516020818303038152906040528051906020012014156142f957600192505050614313565b808061430490615564565b91505061427a565b5060009150505b919050565b60606000600161432784614471565b01905060008167ffffffffffffffff81111561434657614345614d27565b5b6040519080825280601f01601f1916602001820160405280156143785781602001600182028036833780820191505090505b509050600082602001820190505b6001156143e5578080600190039150507f3031323334353637383961626364656600000000000000000000000000000000600a86061a8153600a85816143cf576143ce615eec565b5b04945060008514156143e0576143e5565b614386565b819350505050919050565b600060019054906101000a900460ff1661443f576040517f08c379a000000000000000000000000000000000000000000000000000000000815260040161443690615de9565b60405180910390fd5b8160659080519060200190614455929190614662565b50806066908051906020019061446c929190614662565b505050565b600080600090507a184f03e93ff9f4daa797ed6e38ed64bf6a1f01000000000000000083106144cf577a184f03e93ff9f4daa797ed6e38ed64bf6a1f01000000000000000083816144c5576144c4615eec565b5b0492506040810190505b6d04ee2d6d415b85acef8100000000831061450c576d04ee2d6d415b85acef8100000000838161450257614501615eec565b5b0492506020810190505b662386f26fc10000831061453b57662386f26fc10000838161453157614530615eec565b5b0492506010810190505b6305f5e1008310614564576305f5e100838161455a57614559615eec565b5b0492506008810190505b612710831061458957612710838161457f5761457e615eec565b5b0492506004810190505b606483106145ac57606483816145a2576145a1615eec565b5b0492506002810190505b600a83106145bb576001810190505b80915050919050565b60405180610160016040528060008152602001600073ffffffffffffffffffffffffffffffffffffffff168152602001600073ffffffffffffffffffffffffffffffffffffffff16815260200160008152602001600015158152602001606081526020016060815260200160008152602001600073ffffffffffffffffffffffffffffffffffffffff16815260200160008152602001600081525090565b82805461466e9061540e565b90600052602060002090601f01602090048101928261469057600085556146d7565b82601f106146a957805160ff19168380011785556146d7565b828001600101855582156146d7579182015b828111156146d65782518255916020019190600101906146bb565b5b5090506146e491906146e8565b5090565b5b808211156147015760008160009055506001016146e9565b5090565b6000604051905090565b600080fd5b600080fd5b60007fffffffff0000000000000000000000000000000000000000000000000000000082169050919050565b61474e81614719565b811461475957600080fd5b50565b60008135905061476b81614745565b92915050565b6000602082840312156147875761478661470f565b5b60006147958482850161475c565b91505092915050565b60008115159050919050565b6147b38161479e565b82525050565b60006020820190506147ce60008301846147aa565b92915050565b6000819050919050565b6147e7816147d4565b81146147f257600080fd5b50565b600081359050614804816147de565b92915050565b6000602082840312156148205761481f61470f565b5b600061482e848285016147f5565b91505092915050565b600081519050919050565b600082825260208201905092915050565b60005b83811015614871578082015181840152602081019050614856565b83811115614880576000848401525b50505050565b6000601f19601f8301169050919050565b60006148a282614837565b6148ac8185614842565b93506148bc818560208601614853565b6148c581614886565b840191505092915050565b600060208201905081810360008301526148ea8184614897565b905092915050565b600073ffffffffffffffffffffffffffffffffffffffff82169050919050565b600061491d826148f2565b9050919050565b61492d81614912565b82525050565b60006020820190506149486000830184614924565b92915050565b614957816147d4565b82525050565b6000614968826148f2565b9050919050565b6149788161495d565b82525050565b600061016082019050614994600083018e61494e565b6149a1602083018d61496f565b6149ae604083018c61496f565b6149bb606083018b61494e565b6149c8608083018a6147aa565b81810360a08301526149da8189614897565b905081810360c08301526149ee8188614897565b90506149fd60e083018761494e565b614a0b61010083018661496f565b614a1961012083018561494e565b614a2761014083018461494e565b9c9b505050505050505050505050565b60008060408385031215614a4e57614a4d61470f565b5b6000614a5c858286016147f5565b9250506020614a6d858286016147f5565b9150509250929050565b614a8081614912565b8114614a8b57600080fd5b50565b600081359050614a9d81614a77565b92915050565b60008060408385031215614aba57614ab961470f565b5b6000614ac885828601614a8e565b9250506020614ad9858286016147f5565b9150509250929050565b6000602082019050614af8600083018461494e565b92915050565b614b078161495d565b8114614b1257600080fd5b50565b600081359050614b2481614afe565b92915050565b600080600060608486031215614b4357614b4261470f565b5b6000614b51868287016147f5565b9350506020614b6286828701614b15565b9250506040614b73868287016147f5565b9150509250925092565b600080600060608486031215614b9657614b9561470f565b5b6000614ba486828701614a8e565b9350506020614bb586828701614a8e565b9250506040614bc6868287016147f5565b9150509250925092565b60008060408385031215614be757614be661470f565b5b6000614bf5858286016147f5565b9250506020614c0685828601614a8e565b9150509250929050565b600081519050919050565b600082825260208201905092915050565b6000819050602082019050919050565b614c4581614912565b82525050565b6000614c578383614c3c565b60208301905092915050565b6000602082019050919050565b6000614c7b82614c10565b614c858185614c1b565b9350614c9083614c2c565b8060005b83811015614cc1578151614ca88882614c4b565b9750614cb383614c63565b925050600181019050614c94565b5085935050505092915050565b60006020820190508181036000830152614ce88184614c70565b905092915050565b600060208284031215614d0657614d0561470f565b5b6000614d1484828501614a8e565b91505092915050565b600080fd5b600080fd5b7f4e487b7100000000000000000000000000000000000000000000000000000000600052604160045260246000fd5b614d5f82614886565b810181811067ffffffffffffffff82111715614d7e57614d7d614d27565b5b80604052505050565b6000614d91614705565b9050614d9d8282614d56565b919050565b600067ffffffffffffffff821115614dbd57614dbc614d27565b5b614dc682614886565b9050602081019050919050565b82818337600083830152505050565b6000614df5614df084614da2565b614d87565b905082815260208101848484011115614e1157614e10614d22565b5b614e1c848285614dd3565b509392505050565b600082601f830112614e3957614e38614d1d565b5b8135614e49848260208601614de2565b91505092915050565b60008060408385031215614e6957614e6861470f565b5b6000614e7785828601614a8e565b925050602083013567ffffffffffffffff811115614e9857614e97614714565b5b614ea485828601614e24565b9150509250929050565b600081519050919050565b600082825260208201905092915050565b6000819050602082019050919050565b614ee3816147d4565b82525050565b614ef28161495d565b82525050565b614f018161479e565b82525050565b600082825260208201905092915050565b6000614f2382614837565b614f2d8185614f07565b9350614f3d818560208601614853565b614f4681614886565b840191505092915050565b600061016083016000830151614f6a6000860182614eda565b506020830151614f7d6020860182614ee9565b506040830151614f906040860182614ee9565b506060830151614fa36060860182614eda565b506080830151614fb66080860182614ef8565b5060a083015184820360a0860152614fce8282614f18565b91505060c083015184820360c0860152614fe88282614f18565b91505060e0830151614ffd60e0860182614eda565b50610100830151615012610100860182614ee9565b50610120830151615027610120860182614eda565b5061014083015161503c610140860182614eda565b508091505092915050565b60006150538383614f51565b905092915050565b6000602082019050919050565b600061507382614eae565b61507d8185614eb9565b93508360208202850161508f85614eca565b8060005b858110156150cb57848403895281516150ac8582615047565b94506150b78361505b565b925060208a01995050600181019050615093565b50829750879550505050505092915050565b600060208201905081810360008301526150f78184615068565b905092915050565b6151088161479e565b811461511357600080fd5b50565b600081359050615125816150ff565b92915050565b600080604083850312156151425761514161470f565b5b600061515085828601614a8e565b925050602061516185828601615116565b9150509250929050565b600067ffffffffffffffff82111561518657615185614d27565b5b61518f82614886565b9050602081019050919050565b60006151af6151aa8461516b565b614d87565b9050828152602081018484840111156151cb576151ca614d22565b5b6151d6848285614dd3565b509392505050565b600082601f8301126151f3576151f2614d1d565b5b813561520384826020860161519c565b91505092915050565b600080600080608085870312156152265761522561470f565b5b600061523487828801614a8e565b945050602061524587828801614a8e565b9350506040615256878288016147f5565b925050606085013567ffffffffffffffff81111561527757615276614714565b5b615283878288016151de565b91505092959194509250565b6000806000606084860312156152a8576152a761470f565b5b600084013567ffffffffffffffff8111156152c6576152c5614714565b5b6152d286828701614e24565b93505060206152e3868287016147f5565b925050604084013567ffffffffffffffff81111561530457615303614714565b5b61531086828701614e24565b9150509250925092565b600080604083850312156153315761533061470f565b5b600061533f85828601614a8e565b925050602061535085828601614a8e565b9150509250929050565b7f4e487b7100000000000000000000000000000000000000000000000000000000600052601160045260246000fd5b6000615394826147d4565b915061539f836147d4565b9250827fffffffffffffffffffffffffffffffffffffffffffffffffffffffffffffffff038211156153d4576153d361535a565b5b828201905092915050565b7f4e487b7100000000000000000000000000000000000000000000000000000000600052602260045260246000fd5b6000600282049050600182168061542657607f821691505b6020821081141561543a576154396153df565b5b50919050565b7f4552433732313a20617070726f76616c20746f2063757272656e74206f776e6560008201527f7200000000000000000000000000000000000000000000000000000000000000602082015250565b600061549c602183614842565b91506154a782615440565b604082019050919050565b600060208201905081810360008301526154cb8161548f565b9050919050565b7f4552433732313a20617070726f76652063616c6c6572206973206e6f7420746f60008201527f6b656e206f776e6572206f7220617070726f76656420666f7220616c6c000000602082015250565b600061552e603d83614842565b9150615539826154d2565b604082019050919050565b6000602082019050818103600083015261555d81615521565b9050919050565b600061556f826147d4565b91507fffffffffffffffffffffffffffffffffffffffffffffffffffffffffffffffff8214156155a2576155a161535a565b5b600182019050919050565b600081905092915050565b60008190508160005260206000209050919050565b600081546155da8161540e565b6155e481866155ad565b945060018216600081146155ff576001811461561057615643565b60ff19831686528186019350615643565b615619856155b8565b60005b8381101561563b5781548189015260018201915060208101905061561c565b838801955050505b50505092915050565b600061565882846155cd565b915081905092915050565b7f4552433732313a2063616c6c6572206973206e6f7420746f6b656e206f776e6560008201527f72206f7220617070726f76656400000000000000000000000000000000000000602082015250565b60006156bf602d83614842565b91506156ca82615663565b604082019050919050565b600060208201905081810360008301526156ee816156b2565b9050919050565b7f4552433732313a20696e76616c696420746f6b656e2049440000000000000000600082015250565b600061572b601883614842565b9150615736826156f5565b602082019050919050565b6000602082019050818103600083015261575a8161571e565b9050919050565b7f4552433732313a2061646472657373207a65726f206973206e6f74206120766160008201527f6c6964206f776e65720000000000000000000000000000000000000000000000602082015250565b60006157bd602983614842565b91506157c882615761565b604082019050919050565b600060208201905081810360008301526157ec816157b0565b9050919050565b60006157fe826147d4565b915060008214156158125761581161535a565b5b600182039050919050565b6000615828826147d4565b9150615833836147d4565b9250828210156158465761584561535a565b5b828203905092915050565b7f4e487b7100000000000000000000000000000000000000000000000000000000600052603260045260246000fd5b600061588b82614837565b61589581856155ad565b93506158a5818560208601614853565b80840191505092915050565b60006158bd8285615880565b91506158c98284615880565b91508190509392505050565b7f496e697469616c697a61626c653a20636f6e747261637420697320616c72656160008201527f647920696e697469616c697a6564000000000000000000000000000000000000602082015250565b6000615931602e83614842565b915061593c826158d5565b604082019050919050565b6000602082019050818103600083015261596081615924565b9050919050565b6000819050919050565b600060ff82169050919050565b6000819050919050565b60006159a361599e61599984615967565b61597e565b615971565b9050919050565b6159b381615988565b82525050565b60006020820190506159ce60008301846159aa565b92915050565b60006159e08284615880565b915081905092915050565b7f4552433732313a207472616e736665722066726f6d20696e636f72726563742060008201527f6f776e6572000000000000000000000000000000000000000000000000000000602082015250565b6000615a47602583614842565b9150615a52826159eb565b604082019050919050565b60006020820190508181036000830152615a7681615a3a565b9050919050565b7f4552433732313a207472616e7366657220746f20746865207a65726f2061646460008201527f7265737300000000000000000000000000000000000000000000000000000000602082015250565b6000615ad9602483614842565b9150615ae482615a7d565b604082019050919050565b60006020820190508181036000830152615b0881615acc565b9050919050565b7f4552433732313a20617070726f766520746f2063616c6c657200000000000000600082015250565b6000615b45601983614842565b9150615b5082615b0f565b602082019050919050565b60006020820190508181036000830152615b7481615b38565b9050919050565b7f4552433732313a207472616e7366657220746f206e6f6e20455243373231526560008201527f63656976657220696d706c656d656e7465720000000000000000000000000000602082015250565b6000615bd7603283614842565b9150615be282615b7b565b604082019050919050565b60006020820190508181036000830152615c0681615bca565b9050919050565b7f4552433732313a206d696e7420746f20746865207a65726f2061646472657373600082015250565b6000615c43602083614842565b9150615c4e82615c0d565b602082019050919050565b60006020820190508181036000830152615c7281615c36565b9050919050565b7f4552433732313a20746f6b656e20616c7265616479206d696e74656400000000600082015250565b6000615caf601c83614842565b9150615cba82615c79565b602082019050919050565b60006020820190508181036000830152615cde81615ca2565b9050919050565b7f45524337323155524953746f726167653a2055524920736574206f66206e6f6e60008201527f6578697374656e7420746f6b656e000000000000000000000000000000000000602082015250565b6000615d41602e83614842565b9150615d4c82615ce5565b604082019050919050565b60006020820190508181036000830152615d7081615d34565b9050919050565b7f496e697469616c697a61626c653a20636f6e7472616374206973206e6f74206960008201527f6e697469616c697a696e67000000000000000000000000000000000000000000602082015250565b6000615dd3602b83614842565b9150615dde82615d77565b604082019050919050565b60006020820190508181036000830152615e0281615dc6565b9050919050565b600081519050919050565b600082825260208201905092915050565b6000615e3082615e09565b615e3a8185615e14565b9350615e4a818560208601614853565b615e5381614886565b840191505092915050565b6000608082019050615e736000830187614924565b615e806020830186614924565b615e8d604083018561494e565b8181036060830152615e9f8184615e25565b905095945050505050565b600081519050615eb981614745565b92915050565b600060208284031215615ed557615ed461470f565b5b6000615ee384828501615eaa565b91505092915050565b7f4e487b7100000000000000000000000000000000000000000000000000000000600052601260045260246000fdfea2646970667358221220d15a4d6b55e21b8972a1c6fbe907f0be3e575e3a009010d4673ec2b3c265456764736f6c63430008090033",
  "linkReferences": {},
  "deployedLinkReferences": {}
}