{
  "_format": "hh-sol-artifact-1",
  "contractName": "NFT_Marketplace",
  "sourceName": "contracts/NFT_Marketplace.sol",
  "abi": [
    {
      "inputs": [],
      "stateMutability": "nonpayable",
      "type": "constructor"
    },
    {
      "anonymous": false,
      "inputs": [
        {
          "indexed": true,
          "internalType": "address",
          "name": "owner",
          "type": "address"
        },
        {
          "indexed": true,
          "internalType": "address",
          "name": "approved",
          "type": "address"
        },
        {
          "indexed": true,
          "internalType": "uint256",
          "name": "tokenId",
          "type": "uint256"
        }
      ],
      "name": "Approval",
      "type": "event"
    },
    {
      "anonymous": false,
      "inputs": [
        {
          "indexed": true,
          "internalType": "address",
          "name": "owner",
          "type": "address"
        },
        {
          "indexed": true,
          "internalType": "address",
          "name": "operator",
          "type": "address"
        },
        {
          "indexed": false,
          "internalType": "bool",
          "name": "approved",
          "type": "bool"
        }
      ],
      "name": "ApprovalForAll",
      "type": "event"
    },
    {
      "anonymous": false,
      "inputs": [
        {
          "indexed": false,
          "internalType": "uint256",
          "name": "_fromTokenId",
          "type": "uint256"
        },
        {
          "indexed": false,
          "internalType": "uint256",
          "name": "_toTokenId",
          "type": "uint256"
        }
      ],
      "name": "BatchMetadataUpdate",
      "type": "event"
    },
    {
      "anonymous": false,
      "inputs": [
        {
          "indexed": false,
          "internalType": "uint256",
          "name": "_tokenId",
          "type": "uint256"
        }
      ],
      "name": "MetadataUpdate",
      "type": "event"
    },
    {
      "anonymous": false,
      "inputs": [
        {
          "indexed": true,
          "internalType": "address",
          "name": "from",
          "type": "address"
        },
        {
          "indexed": true,
          "internalType": "address",
          "name": "to",
          "type": "address"
        },
        {
          "indexed": true,
          "internalType": "uint256",
          "name": "tokenId",
          "type": "uint256"
        }
      ],
      "name": "Transfer",
      "type": "event"
    },
    {
      "anonymous": false,
      "inputs": [
        {
          "indexed": true,
          "internalType": "uint256",
          "name": "tokenId",
          "type": "uint256"
        },
        {
          "indexed": true,
          "internalType": "address",
          "name": "seller",
          "type": "address"
        },
        {
          "indexed": false,
          "internalType": "address",
          "name": "owner",
          "type": "address"
        },
        {
          "indexed": true,
          "internalType": "uint256",
          "name": "price",
          "type": "uint256"
        },
        {
          "indexed": false,
          "internalType": "bool",
          "name": "sold",
          "type": "bool"
        },
        {
          "indexed": false,
          "internalType": "string",
          "name": "link",
          "type": "string"
        }
      ],
      "name": "idMarketItemCreated",
      "type": "event"
    },
    {
      "inputs": [
        {
          "internalType": "address",
          "name": "to",
          "type": "address"
        },
        {
          "internalType": "uint256",
          "name": "tokenId",
          "type": "uint256"
        }
      ],
      "name": "approve",
      "outputs": [],
      "stateMutability": "nonpayable",
      "type": "function"
    },
    {
      "inputs": [
        {
          "internalType": "address",
          "name": "owner",
          "type": "address"
        }
      ],
      "name": "balanceOf",
      "outputs": [
        {
          "internalType": "uint256",
          "name": "",
          "type": "uint256"
        }
      ],
      "stateMutability": "view",
      "type": "function"
    },
    {
      "inputs": [
        {
          "internalType": "uint256",
          "name": "tokenId",
          "type": "uint256"
        }
      ],
      "name": "createMarketSale",
      "outputs": [],
      "stateMutability": "payable",
      "type": "function"
    },
    {
      "inputs": [
        {
          "internalType": "string",
          "name": "tokenURI",
          "type": "string"
        },
        {
          "internalType": "uint256",
          "name": "price",
          "type": "uint256"
        }
      ],
      "name": "createToken",
      "outputs": [
        {
          "internalType": "uint256",
          "name": "",
          "type": "uint256"
        }
      ],
      "stateMutability": "payable",
      "type": "function"
    },
    {
      "inputs": [],
      "name": "fetchItemsListed",
      "outputs": [
        {
          "components": [
            {
              "internalType": "uint256",
              "name": "tokenId",
              "type": "uint256"
            },
            {
              "internalType": "address payable",
              "name": "seller",
              "type": "address"
            },
            {
              "internalType": "address payable",
              "name": "owner",
              "type": "address"
            },
            {
              "internalType": "uint256",
              "name": "price",
              "type": "uint256"
            },
            {
              "internalType": "bool",
              "name": "sold",
              "type": "bool"
            }
          ],
          "internalType": "struct NFT_Marketplace.MarketItem[]",
          "name": "",
          "type": "tuple[]"
        }
      ],
      "stateMutability": "view",
      "type": "function"
    },
    {
      "inputs": [],
      "name": "fetchMarketItem",
      "outputs": [
        {
          "components": [
            {
              "internalType": "uint256",
              "name": "tokenId",
              "type": "uint256"
            },
            {
              "internalType": "address payable",
              "name": "seller",
              "type": "address"
            },
            {
              "internalType": "address payable",
              "name": "owner",
              "type": "address"
            },
            {
              "internalType": "uint256",
              "name": "price",
              "type": "uint256"
            },
            {
              "internalType": "bool",
              "name": "sold",
              "type": "bool"
            }
          ],
          "internalType": "struct NFT_Marketplace.MarketItem[]",
          "name": "",
          "type": "tuple[]"
        }
      ],
      "stateMutability": "view",
      "type": "function"
    },
    {
      "inputs": [],
      "name": "fetchMyNFT",
      "outputs": [
        {
          "components": [
            {
              "internalType": "uint256",
              "name": "tokenId",
              "type": "uint256"
            },
            {
              "internalType": "address payable",
              "name": "seller",
              "type": "address"
            },
            {
              "internalType": "address payable",
              "name": "owner",
              "type": "address"
            },
            {
              "internalType": "uint256",
              "name": "price",
              "type": "uint256"
            },
            {
              "internalType": "bool",
              "name": "sold",
              "type": "bool"
            }
          ],
          "internalType": "struct NFT_Marketplace.MarketItem[]",
          "name": "",
          "type": "tuple[]"
        }
      ],
      "stateMutability": "view",
      "type": "function"
    },
    {
      "inputs": [
        {
          "internalType": "uint256",
          "name": "tokenId",
          "type": "uint256"
        }
      ],
      "name": "getAllOwners",
      "outputs": [
        {
          "internalType": "address[]",
          "name": "",
          "type": "address[]"
        }
      ],
      "stateMutability": "view",
      "type": "function"
    },
    {
      "inputs": [
        {
          "internalType": "uint256",
          "name": "tokenId",
          "type": "uint256"
        }
      ],
      "name": "getApproved",
      "outputs": [
        {
          "internalType": "address",
          "name": "",
          "type": "address"
        }
      ],
      "stateMutability": "view",
      "type": "function"
    },
    {
      "inputs": [],
      "name": "getListingPrice",
      "outputs": [
        {
          "internalType": "uint256",
          "name": "",
          "type": "uint256"
        }
      ],
      "stateMutability": "view",
      "type": "function"
    },
    {
      "inputs": [
        {
          "internalType": "address",
          "name": "owner",
          "type": "address"
        },
        {
          "internalType": "address",
          "name": "operator",
          "type": "address"
        }
      ],
      "name": "isApprovedForAll",
      "outputs": [
        {
          "internalType": "bool",
          "name": "",
          "type": "bool"
        }
      ],
      "stateMutability": "view",
      "type": "function"
    },
    {
      "inputs": [],
      "name": "name",
      "outputs": [
        {
          "internalType": "string",
          "name": "",
          "type": "string"
        }
      ],
      "stateMutability": "view",
      "type": "function"
    },
    {
      "inputs": [
        {
          "internalType": "uint256",
          "name": "tokenId",
          "type": "uint256"
        }
      ],
      "name": "ownerOf",
      "outputs": [
        {
          "internalType": "address",
          "name": "",
          "type": "address"
        }
      ],
      "stateMutability": "view",
      "type": "function"
    },
    {
      "inputs": [
        {
          "internalType": "uint256",
          "name": "tokenId",
          "type": "uint256"
        },
        {
          "internalType": "uint256",
          "name": "price",
          "type": "uint256"
        }
      ],
      "name": "reSellToken",
      "outputs": [],
      "stateMutability": "payable",
      "type": "function"
    },
    {
      "inputs": [
        {
          "internalType": "address",
          "name": "from",
          "type": "address"
        },
        {
          "internalType": "address",
          "name": "to",
          "type": "address"
        },
        {
          "internalType": "uint256",
          "name": "tokenId",
          "type": "uint256"
        }
      ],
      "name": "safeTransferFrom",
      "outputs": [],
      "stateMutability": "nonpayable",
      "type": "function"
    },
    {
      "inputs": [
        {
          "internalType": "address",
          "name": "from",
          "type": "address"
        },
        {
          "internalType": "address",
          "name": "to",
          "type": "address"
        },
        {
          "internalType": "uint256",
          "name": "tokenId",
          "type": "uint256"
        },
        {
          "internalType": "bytes",
          "name": "data",
          "type": "bytes"
        }
      ],
      "name": "safeTransferFrom",
      "outputs": [],
      "stateMutability": "nonpayable",
      "type": "function"
    },
    {
      "inputs": [
        {
          "internalType": "address",
          "name": "operator",
          "type": "address"
        },
        {
          "internalType": "bool",
          "name": "approved",
          "type": "bool"
        }
      ],
      "name": "setApprovalForAll",
      "outputs": [],
      "stateMutability": "nonpayable",
      "type": "function"
    },
    {
      "inputs": [
        {
          "internalType": "bytes4",
          "name": "interfaceId",
          "type": "bytes4"
        }
      ],
      "name": "supportsInterface",
      "outputs": [
        {
          "internalType": "bool",
          "name": "",
          "type": "bool"
        }
      ],
      "stateMutability": "view",
      "type": "function"
    },
    {
      "inputs": [],
      "name": "symbol",
      "outputs": [
        {
          "internalType": "string",
          "name": "",
          "type": "string"
        }
      ],
      "stateMutability": "view",
      "type": "function"
    },
    {
      "inputs": [
        {
          "internalType": "uint256",
          "name": "tokenId",
          "type": "uint256"
        }
      ],
      "name": "tokenURI",
      "outputs": [
        {
          "internalType": "string",
          "name": "",
          "type": "string"
        }
      ],
      "stateMutability": "view",
      "type": "function"
    },
    {
      "inputs": [
        {
          "internalType": "address",
          "name": "from",
          "type": "address"
        },
        {
          "internalType": "address",
          "name": "to",
          "type": "address"
        },
        {
          "internalType": "uint256",
          "name": "tokenId",
          "type": "uint256"
        }
      ],
      "name": "transferFrom",
      "outputs": [],
      "stateMutability": "nonpayable",
      "type": "function"
    },
    {
      "inputs": [
        {
          "internalType": "uint256",
          "name": "_listingPrice",
          "type": "uint256"
        }
      ],
      "name": "updateListingPrice",
      "outputs": [],
      "stateMutability": "payable",
      "type": "function"
    }
  ],
  "bytecode": "0x60806040526605543df729c0006009553480156200001c57600080fd5b506040518060400160405280601381526020017f4e4654204d657461766572736520546f6b656e000000000000000000000000008152506040518060400160405280600581526020017f4d594e46540000000000000000000000000000000000000000000000000000008152508160009080519060200190620000a1929190620000e9565b508060019080519060200190620000ba929190620000e9565b5050503373ffffffffffffffffffffffffffffffffffffffff16600a60009054906101000a90505050620001fe565b828054620000f790620001c8565b90600052602060002090601f0160209004810192826200011b576000855562000167565b82601f106200013657805160ff191683800117855562000167565b8280016001018555821562000167579182015b828111156200016657825182559160200191906001019062000149565b5b5090506200017691906200017a565b5090565b5b80821115620001955760008160009055506001016200017b565b5090565b7f4e487b7100000000000000000000000000000000000000000000000000000000600052602260045260246000fd5b60006002820490506001821680620001e157607f821691505b60208210811415620001f857620001f762000199565b5b50919050565b6143af806200020e6000396000f3fe6080604052600436106101355760003560e01c806372b3b620116100ab578063ae677aa31161006f578063ae677aa314610432578063b88d4fde1461044e578063be9af53614610477578063c18763f714610493578063c87b56dd146104be578063e985e9c5146104fb57610135565b806372b3b6201461036757806385535b25146103975780638fafd021146103b357806395d89b41146103de578063a22cb4651461040957610135565b806323b872dd116100fd57806323b872dd1461023357806342842e0e1461025c57806345f8fa801461028557806361253a04146102b05780636352211e146102ed57806370a082311461032a57610135565b806301ffc9a71461013a57806306fdde0314610177578063081812fc146101a2578063095ea7b3146101df57806312e8558514610208575b600080fd5b34801561014657600080fd5b50610161600480360381019061015c9190612deb565b610538565b60405161016e9190612e33565b60405180910390f35b34801561018357600080fd5b5061018c610599565b6040516101999190612ee7565b60405180910390f35b3480156101ae57600080fd5b506101c960048036038101906101c49190612f3f565b61062b565b6040516101d69190612fad565b60405180910390f35b3480156101eb57600080fd5b5061020660048036038101906102019190612ff4565b610671565b005b34801561021457600080fd5b5061021d610789565b60405161022a9190613043565b60405180910390f35b34801561023f57600080fd5b5061025a6004803603810190610255919061305e565b610793565b005b34801561026857600080fd5b50610283600480360381019061027e919061305e565b6107f3565b005b34801561029157600080fd5b5061029a610813565b6040516102a79190613207565b60405180910390f35b3480156102bc57600080fd5b506102d760048036038101906102d29190612f3f565b610b01565b6040516102e491906132e7565b60405180910390f35b3480156102f957600080fd5b50610314600480360381019061030f9190612f3f565b610ba2565b6040516103219190612fad565b60405180910390f35b34801561033657600080fd5b50610351600480360381019061034c9190613309565b610c29565b60405161035e9190613043565b60405180910390f35b610381600480360381019061037c919061346b565b610ce1565b60405161038e9190613043565b60405180910390f35b6103b160048036038101906103ac91906134c7565b610d24565b005b3480156103bf57600080fd5b506103c8610f19565b6040516103d59190613207565b60405180910390f35b3480156103ea57600080fd5b506103f3611182565b6040516104009190612ee7565b60405180910390f35b34801561041557600080fd5b50610430600480360381019061042b9190613533565b611214565b005b61044c60048036038101906104479190612f3f565b61122a565b005b34801561045a57600080fd5b5061047560048036038101906104709190613614565b6112c4565b005b610491600480360381019061048c9190612f3f565b611326565b005b34801561049f57600080fd5b506104a8611575565b6040516104b59190613207565b60405180910390f35b3480156104ca57600080fd5b506104e560048036038101906104e09190612f3f565b611863565b6040516104f29190612ee7565b60405180910390f35b34801561050757600080fd5b50610522600480360381019061051d9190613697565b611976565b60405161052f9190612e33565b60405180910390f35b6000634906490660e01b7bffffffffffffffffffffffffffffffffffffffffffffffffffffffff1916827bffffffffffffffffffffffffffffffffffffffffffffffffffffffff19161480610592575061059182611a0a565b5b9050919050565b6060600080546105a890613706565b80601f01602080910402602001604051908101604052809291908181526020018280546105d490613706565b80156106215780601f106105f657610100808354040283529160200191610621565b820191906000526020600020905b81548152906001019060200180831161060457829003601f168201915b5050505050905090565b600061063682611aec565b6004600083815260200190815260200160002060009054906101000a900473ffffffffffffffffffffffffffffffffffffffff169050919050565b600061067c82610ba2565b90508073ffffffffffffffffffffffffffffffffffffffff168373ffffffffffffffffffffffffffffffffffffffff1614156106ed576040517f08c379a00000000000000000000000000000000000000000000000000000000081526004016106e4906137aa565b60405180910390fd5b8073ffffffffffffffffffffffffffffffffffffffff1661070c611b37565b73ffffffffffffffffffffffffffffffffffffffff16148061073b575061073a81610735611b37565b611976565b5b61077a576040517f08c379a00000000000000000000000000000000000000000000000000000000081526004016107719061383c565b60405180910390fd5b6107848383611b3f565b505050565b6000600954905090565b6107a461079e611b37565b82611bf8565b6107e3576040517f08c379a00000000000000000000000000000000000000000000000000000000081526004016107da906138ce565b60405180910390fd5b6107ee838383611c8d565b505050565b61080e838383604051806020016040528060008152506112c4565b505050565b606060006108216007611f87565b905060008060005b838110156108ca573373ffffffffffffffffffffffffffffffffffffffff16600b6000600184610859919061391d565b815260200190815260200160002060010160009054906101000a900473ffffffffffffffffffffffffffffffffffffffff1673ffffffffffffffffffffffffffffffffffffffff1614156108b7576001836108b4919061391d565b92505b80806108c290613973565b915050610829565b5060008267ffffffffffffffff8111156108e7576108e6613340565b5b60405190808252806020026020018201604052801561092057816020015b61090d612c7f565b8152602001906001900390816109055790505b50905060005b84811015610af6573373ffffffffffffffffffffffffffffffffffffffff16600b6000600184610956919061391d565b815260200190815260200160002060010160009054906101000a900473ffffffffffffffffffffffffffffffffffffffff1673ffffffffffffffffffffffffffffffffffffffff161415610ae35760006001826109b3919061391d565b90506000600b60008381526020019081526020016000209050806040518060a0016040529081600082015481526020016001820160009054906101000a900473ffffffffffffffffffffffffffffffffffffffff1673ffffffffffffffffffffffffffffffffffffffff1673ffffffffffffffffffffffffffffffffffffffff1681526020016002820160009054906101000a900473ffffffffffffffffffffffffffffffffffffffff1673ffffffffffffffffffffffffffffffffffffffff1673ffffffffffffffffffffffffffffffffffffffff168152602001600382015481526020016004820160009054906101000a900460ff161515151581525050848681518110610ac657610ac56139bc565b5b6020026020010181905250600185610ade919061391d565b945050505b8080610aee90613973565b915050610926565b508094505050505090565b6060600c6000838152602001908152602001600020805480602002602001604051908101604052809291908181526020018280548015610b9657602002820191906000526020600020905b8160009054906101000a900473ffffffffffffffffffffffffffffffffffffffff1673ffffffffffffffffffffffffffffffffffffffff1681526020019060010190808311610b4c575b50505050509050919050565b600080610bae83611f95565b9050600073ffffffffffffffffffffffffffffffffffffffff168173ffffffffffffffffffffffffffffffffffffffff161415610c20576040517f08c379a0000000000000000000000000000000000000000000000000000000008152600401610c1790613a37565b60405180910390fd5b80915050919050565b60008073ffffffffffffffffffffffffffffffffffffffff168273ffffffffffffffffffffffffffffffffffffffff161415610c9a576040517f08c379a0000000000000000000000000000000000000000000000000000000008152600401610c9190613ac9565b60405180910390fd5b600360008373ffffffffffffffffffffffffffffffffffffffff1673ffffffffffffffffffffffffffffffffffffffff168152602001908152602001600020549050919050565b6000610ced6007611fd2565b6000610cf96007611f87565b9050610d053382611fe8565b610d0f8185612206565b610d1a8184866122b1565b8091505092915050565b3373ffffffffffffffffffffffffffffffffffffffff16600b600084815260200190815260200160002060020160009054906101000a900473ffffffffffffffffffffffffffffffffffffffff1673ffffffffffffffffffffffffffffffffffffffff1614610dc8576040517f08c379a0000000000000000000000000000000000000000000000000000000008152600401610dbf90613b35565b60405180910390fd5b6009543414610e0c576040517f08c379a0000000000000000000000000000000000000000000000000000000008152600401610e0390613bc7565b60405180910390fd5b6000600b600084815260200190815260200160002060040160006101000a81548160ff02191690831515021790555080600b60008481526020019081526020016000206003018190555033600b600084815260200190815260200160002060010160006101000a81548173ffffffffffffffffffffffffffffffffffffffff021916908373ffffffffffffffffffffffffffffffffffffffff16021790555030600b600084815260200190815260200160002060020160006101000a81548173ffffffffffffffffffffffffffffffffffffffff021916908373ffffffffffffffffffffffffffffffffffffffff160217905550610f0a600861253f565b610f15333084611c8d565b5050565b60606000610f276007611f87565b90506000610f356008611f87565b610f3f6007611f87565b610f499190613be7565b90506000808267ffffffffffffffff811115610f6857610f67613340565b5b604051908082528060200260200182016040528015610fa157816020015b610f8e612c7f565b815260200190600190039081610f865790505b50905060005b84811015611177573073ffffffffffffffffffffffffffffffffffffffff16600b6000600184610fd7919061391d565b815260200190815260200160002060020160009054906101000a900473ffffffffffffffffffffffffffffffffffffffff1673ffffffffffffffffffffffffffffffffffffffff161415611164576000600182611034919061391d565b90506000600b60008381526020019081526020016000209050806040518060a0016040529081600082015481526020016001820160009054906101000a900473ffffffffffffffffffffffffffffffffffffffff1673ffffffffffffffffffffffffffffffffffffffff1673ffffffffffffffffffffffffffffffffffffffff1681526020016002820160009054906101000a900473ffffffffffffffffffffffffffffffffffffffff1673ffffffffffffffffffffffffffffffffffffffff1673ffffffffffffffffffffffffffffffffffffffff168152602001600382015481526020016004820160009054906101000a900460ff161515151581525050848681518110611147576111466139bc565b5b602002602001018190525060018561115f919061391d565b945050505b808061116f90613973565b915050610fa7565b508094505050505090565b60606001805461119190613706565b80601f01602080910402602001604051908101604052809291908181526020018280546111bd90613706565b801561120a5780601f106111df5761010080835404028352916020019161120a565b820191906000526020600020905b8154815290600101906020018083116111ed57829003601f168201915b5050505050905090565b61122661121f611b37565b838361259b565b5050565b600a60009054906101000a900473ffffffffffffffffffffffffffffffffffffffff1673ffffffffffffffffffffffffffffffffffffffff163373ffffffffffffffffffffffffffffffffffffffff16146112ba576040517f08c379a00000000000000000000000000000000000000000000000000000000081526004016112b190613c8d565b60405180910390fd5b8060098190555050565b6112d56112cf611b37565b83611bf8565b611314576040517f08c379a000000000000000000000000000000000000000000000000000000000815260040161130b906138ce565b60405180910390fd5b61132084848484612708565b50505050565b6000600b600083815260200190815260200160002060030154905080341015611384576040517f08c379a000000000000000000000000000000000000000000000000000000000815260040161137b90613d45565b60405180910390fd5b33600b600084815260200190815260200160002060020160006101000a81548173ffffffffffffffffffffffffffffffffffffffff021916908373ffffffffffffffffffffffffffffffffffffffff1602179055506001600b600084815260200190815260200160002060040160006101000a81548160ff0219169083151502179055506000600b600084815260200190815260200160002060020160006101000a81548173ffffffffffffffffffffffffffffffffffffffff021916908373ffffffffffffffffffffffffffffffffffffffff1602179055506114686008611fd2565b600c6000838152602001908152602001600020339080600181540180825580915050600190039060005260206000200160009091909190916101000a81548173ffffffffffffffffffffffffffffffffffffffff021916908373ffffffffffffffffffffffffffffffffffffffff1602179055506114e7303384611c8d565b600b600083815260200190815260200160002060010160009054906101000a900473ffffffffffffffffffffffffffffffffffffffff1673ffffffffffffffffffffffffffffffffffffffff166108fc600954346115459190613be7565b9081150290604051600060405180830381858888f19350505050158015611570573d6000803e3d6000fd5b505050565b606060006115836007611f87565b905060008060005b8381101561162c573373ffffffffffffffffffffffffffffffffffffffff16600b60006001846115bb919061391d565b815260200190815260200160002060020160009054906101000a900473ffffffffffffffffffffffffffffffffffffffff1673ffffffffffffffffffffffffffffffffffffffff16141561161957600183611616919061391d565b92505b808061162490613973565b91505061158b565b5060008267ffffffffffffffff81111561164957611648613340565b5b60405190808252806020026020018201604052801561168257816020015b61166f612c7f565b8152602001906001900390816116675790505b50905060005b84811015611858573373ffffffffffffffffffffffffffffffffffffffff16600b60006001846116b8919061391d565b815260200190815260200160002060020160009054906101000a900473ffffffffffffffffffffffffffffffffffffffff1673ffffffffffffffffffffffffffffffffffffffff161415611845576000600182611715919061391d565b90506000600b60008381526020019081526020016000209050806040518060a0016040529081600082015481526020016001820160009054906101000a900473ffffffffffffffffffffffffffffffffffffffff1673ffffffffffffffffffffffffffffffffffffffff1673ffffffffffffffffffffffffffffffffffffffff1681526020016002820160009054906101000a900473ffffffffffffffffffffffffffffffffffffffff1673ffffffffffffffffffffffffffffffffffffffff1673ffffffffffffffffffffffffffffffffffffffff168152602001600382015481526020016004820160009054906101000a900460ff161515151581525050848681518110611828576118276139bc565b5b6020026020010181905250600185611840919061391d565b945050505b808061185090613973565b915050611688565b508094505050505090565b606061186e82611aec565b600060066000848152602001908152602001600020805461188e90613706565b80601f01602080910402602001604051908101604052809291908181526020018280546118ba90613706565b80156119075780601f106118dc57610100808354040283529160200191611907565b820191906000526020600020905b8154815290600101906020018083116118ea57829003601f168201915b505050505090506000611918612764565b905060008151141561192e578192505050611971565b60008251111561196357808260405160200161194b929190613da1565b60405160208183030381529060405292505050611971565b61196c8461277b565b925050505b919050565b6000600560008473ffffffffffffffffffffffffffffffffffffffff1673ffffffffffffffffffffffffffffffffffffffff16815260200190815260200160002060008373ffffffffffffffffffffffffffffffffffffffff1673ffffffffffffffffffffffffffffffffffffffff16815260200190815260200160002060009054906101000a900460ff16905092915050565b60007f80ac58cd000000000000000000000000000000000000000000000000000000007bffffffffffffffffffffffffffffffffffffffffffffffffffffffff1916827bffffffffffffffffffffffffffffffffffffffffffffffffffffffff19161480611ad557507f5b5e139f000000000000000000000000000000000000000000000000000000007bffffffffffffffffffffffffffffffffffffffffffffffffffffffff1916827bffffffffffffffffffffffffffffffffffffffffffffffffffffffff1916145b80611ae55750611ae4826127e3565b5b9050919050565b611af58161284d565b611b34576040517f08c379a0000000000000000000000000000000000000000000000000000000008152600401611b2b90613a37565b60405180910390fd5b50565b600033905090565b816004600083815260200190815260200160002060006101000a81548173ffffffffffffffffffffffffffffffffffffffff021916908373ffffffffffffffffffffffffffffffffffffffff160217905550808273ffffffffffffffffffffffffffffffffffffffff16611bb283610ba2565b73ffffffffffffffffffffffffffffffffffffffff167f8c5be1e5ebec7d5bd14f71427d1e84f3dd0314c0f7b2291e5b200ac8c7c3b92560405160405180910390a45050565b600080611c0483610ba2565b90508073ffffffffffffffffffffffffffffffffffffffff168473ffffffffffffffffffffffffffffffffffffffff161480611c465750611c458185611976565b5b80611c8457508373ffffffffffffffffffffffffffffffffffffffff16611c6c8461062b565b73ffffffffffffffffffffffffffffffffffffffff16145b91505092915050565b8273ffffffffffffffffffffffffffffffffffffffff16611cad82610ba2565b73ffffffffffffffffffffffffffffffffffffffff1614611d03576040517f08c379a0000000000000000000000000000000000000000000000000000000008152600401611cfa90613e37565b60405180910390fd5b600073ffffffffffffffffffffffffffffffffffffffff168273ffffffffffffffffffffffffffffffffffffffff161415611d73576040517f08c379a0000000000000000000000000000000000000000000000000000000008152600401611d6a90613ec9565b60405180910390fd5b611d80838383600161288e565b8273ffffffffffffffffffffffffffffffffffffffff16611da082610ba2565b73ffffffffffffffffffffffffffffffffffffffff1614611df6576040517f08c379a0000000000000000000000000000000000000000000000000000000008152600401611ded90613e37565b60405180910390fd5b6004600082815260200190815260200160002060006101000a81549073ffffffffffffffffffffffffffffffffffffffff02191690556001600360008573ffffffffffffffffffffffffffffffffffffffff1673ffffffffffffffffffffffffffffffffffffffff168152602001908152602001600020600082825403925050819055506001600360008473ffffffffffffffffffffffffffffffffffffffff1673ffffffffffffffffffffffffffffffffffffffff16815260200190815260200160002060008282540192505081905550816002600083815260200190815260200160002060006101000a81548173ffffffffffffffffffffffffffffffffffffffff021916908373ffffffffffffffffffffffffffffffffffffffff160217905550808273ffffffffffffffffffffffffffffffffffffffff168473ffffffffffffffffffffffffffffffffffffffff167fddf252ad1be2c89b69c2b068fc378daa952ba7f163c4a11628f55a4df523b3ef60405160405180910390a4611f828383836001612894565b505050565b600081600001549050919050565b60006002600083815260200190815260200160002060009054906101000a900473ffffffffffffffffffffffffffffffffffffffff169050919050565b6001816000016000828254019250508190555050565b600073ffffffffffffffffffffffffffffffffffffffff168273ffffffffffffffffffffffffffffffffffffffff161415612058576040517f08c379a000000000000000000000000000000000000000000000000000000000815260040161204f90613f35565b60405180910390fd5b6120618161284d565b156120a1576040517f08c379a000000000000000000000000000000000000000000000000000000000815260040161209890613fa1565b60405180910390fd5b6120af60008383600161288e565b6120b88161284d565b156120f8576040517f08c379a00000000000000000000000000000000000000000000000000000000081526004016120ef90613fa1565b60405180910390fd5b6001600360008473ffffffffffffffffffffffffffffffffffffffff1673ffffffffffffffffffffffffffffffffffffffff16815260200190815260200160002060008282540192505081905550816002600083815260200190815260200160002060006101000a81548173ffffffffffffffffffffffffffffffffffffffff021916908373ffffffffffffffffffffffffffffffffffffffff160217905550808273ffffffffffffffffffffffffffffffffffffffff16600073ffffffffffffffffffffffffffffffffffffffff167fddf252ad1be2c89b69c2b068fc378daa952ba7f163c4a11628f55a4df523b3ef60405160405180910390a4612202600083836001612894565b5050565b61220f8261284d565b61224e576040517f08c379a000000000000000000000000000000000000000000000000000000000815260040161224590614033565b60405180910390fd5b80600660008481526020019081526020016000209080519060200190612275929190612cdc565b507ff8e1a15aba9398e019f0b49df1a4fde98ee17ae345cb5f6b5e2c27f5033e8ce7826040516122a59190613043565b60405180910390a15050565b600082116122f4576040517f08c379a00000000000000000000000000000000000000000000000000000000081526004016122eb9061409f565b60405180910390fd5b6009543414612338576040517f08c379a000000000000000000000000000000000000000000000000000000000815260040161232f90613bc7565b60405180910390fd5b6040518060a001604052808481526020013373ffffffffffffffffffffffffffffffffffffffff1681526020013073ffffffffffffffffffffffffffffffffffffffff16815260200183815260200160001515815250600b60008581526020019081526020016000206000820151816000015560208201518160010160006101000a81548173ffffffffffffffffffffffffffffffffffffffff021916908373ffffffffffffffffffffffffffffffffffffffff16021790555060408201518160020160006101000a81548173ffffffffffffffffffffffffffffffffffffffff021916908373ffffffffffffffffffffffffffffffffffffffff1602179055506060820151816003015560808201518160040160006101000a81548160ff021916908315150217905550905050600c6000848152602001908152602001600020339080600181540180825580915050600190039060005260206000200160009091909190916101000a81548173ffffffffffffffffffffffffffffffffffffffff021916908373ffffffffffffffffffffffffffffffffffffffff1602179055506124e5333085611c8d565b813373ffffffffffffffffffffffffffffffffffffffff16847f11fe55ba678323aeef10b49af28be7401817951ef77bb5f8593137acb950523e30600086604051612532939291906140bf565b60405180910390a4505050565b6000816000015490506000811161258b576040517f08c379a000000000000000000000000000000000000000000000000000000000815260040161258290614149565b60405180910390fd5b6001810382600001819055505050565b8173ffffffffffffffffffffffffffffffffffffffff168373ffffffffffffffffffffffffffffffffffffffff16141561260a576040517f08c379a0000000000000000000000000000000000000000000000000000000008152600401612601906141b5565b60405180910390fd5b80600560008573ffffffffffffffffffffffffffffffffffffffff1673ffffffffffffffffffffffffffffffffffffffff16815260200190815260200160002060008473ffffffffffffffffffffffffffffffffffffffff1673ffffffffffffffffffffffffffffffffffffffff16815260200190815260200160002060006101000a81548160ff0219169083151502179055508173ffffffffffffffffffffffffffffffffffffffff168373ffffffffffffffffffffffffffffffffffffffff167f17307eab39ab6107e8899845ad3d59bd9653f200f220920489ca2b5937696c31836040516126fb9190612e33565b60405180910390a3505050565b612713848484611c8d565b61271f8484848461289a565b61275e576040517f08c379a000000000000000000000000000000000000000000000000000000000815260040161275590614247565b60405180910390fd5b50505050565b606060405180602001604052806000815250905090565b606061278682611aec565b6000612790612764565b905060008151116127b057604051806020016040528060008152506127db565b806127ba84612a31565b6040516020016127cb929190613da1565b6040516020818303038152906040525b915050919050565b60007f01ffc9a7000000000000000000000000000000000000000000000000000000007bffffffffffffffffffffffffffffffffffffffffffffffffffffffff1916827bffffffffffffffffffffffffffffffffffffffffffffffffffffffff1916149050919050565b60008073ffffffffffffffffffffffffffffffffffffffff1661286f83611f95565b73ffffffffffffffffffffffffffffffffffffffff1614159050919050565b50505050565b50505050565b60006128bb8473ffffffffffffffffffffffffffffffffffffffff16612b09565b15612a24578373ffffffffffffffffffffffffffffffffffffffff1663150b7a026128e4611b37565b8786866040518563ffffffff1660e01b815260040161290694939291906142bc565b602060405180830381600087803b15801561292057600080fd5b505af192505050801561295157506040513d601f19601f8201168201806040525081019061294e919061431d565b60015b6129d4573d8060008114612981576040519150601f19603f3d011682016040523d82523d6000602084013e612986565b606091505b506000815114156129cc576040517f08c379a00000000000000000000000000000000000000000000000000000000081526004016129c390614247565b60405180910390fd5b805181602001fd5b63150b7a0260e01b7bffffffffffffffffffffffffffffffffffffffffffffffffffffffff1916817bffffffffffffffffffffffffffffffffffffffffffffffffffffffff191614915050612a29565b600190505b949350505050565b606060006001612a4084612b2c565b01905060008167ffffffffffffffff811115612a5f57612a5e613340565b5b6040519080825280601f01601f191660200182016040528015612a915781602001600182028036833780820191505090505b509050600082602001820190505b600115612afe578080600190039150507f3031323334353637383961626364656600000000000000000000000000000000600a86061a8153600a8581612ae857612ae761434a565b5b0494506000851415612af957612afe565b612a9f565b819350505050919050565b6000808273ffffffffffffffffffffffffffffffffffffffff163b119050919050565b600080600090507a184f03e93ff9f4daa797ed6e38ed64bf6a1f0100000000000000008310612b8a577a184f03e93ff9f4daa797ed6e38ed64bf6a1f0100000000000000008381612b8057612b7f61434a565b5b0492506040810190505b6d04ee2d6d415b85acef81000000008310612bc7576d04ee2d6d415b85acef81000000008381612bbd57612bbc61434a565b5b0492506020810190505b662386f26fc100008310612bf657662386f26fc100008381612bec57612beb61434a565b5b0492506010810190505b6305f5e1008310612c1f576305f5e1008381612c1557612c1461434a565b5b0492506008810190505b6127108310612c44576127108381612c3a57612c3961434a565b5b0492506004810190505b60648310612c675760648381612c5d57612c5c61434a565b5b0492506002810190505b600a8310612c76576001810190505b80915050919050565b6040518060a0016040528060008152602001600073ffffffffffffffffffffffffffffffffffffffff168152602001600073ffffffffffffffffffffffffffffffffffffffff168152602001600081526020016000151581525090565b828054612ce890613706565b90600052602060002090601f016020900481019282612d0a5760008555612d51565b82601f10612d2357805160ff1916838001178555612d51565b82800160010185558215612d51579182015b82811115612d50578251825591602001919060010190612d35565b5b509050612d5e9190612d62565b5090565b5b80821115612d7b576000816000905550600101612d63565b5090565b6000604051905090565b600080fd5b600080fd5b60007fffffffff0000000000000000000000000000000000000000000000000000000082169050919050565b612dc881612d93565b8114612dd357600080fd5b50565b600081359050612de581612dbf565b92915050565b600060208284031215612e0157612e00612d89565b5b6000612e0f84828501612dd6565b91505092915050565b60008115159050919050565b612e2d81612e18565b82525050565b6000602082019050612e486000830184612e24565b92915050565b600081519050919050565b600082825260208201905092915050565b60005b83811015612e88578082015181840152602081019050612e6d565b83811115612e97576000848401525b50505050565b6000601f19601f8301169050919050565b6000612eb982612e4e565b612ec38185612e59565b9350612ed3818560208601612e6a565b612edc81612e9d565b840191505092915050565b60006020820190508181036000830152612f018184612eae565b905092915050565b6000819050919050565b612f1c81612f09565b8114612f2757600080fd5b50565b600081359050612f3981612f13565b92915050565b600060208284031215612f5557612f54612d89565b5b6000612f6384828501612f2a565b91505092915050565b600073ffffffffffffffffffffffffffffffffffffffff82169050919050565b6000612f9782612f6c565b9050919050565b612fa781612f8c565b82525050565b6000602082019050612fc26000830184612f9e565b92915050565b612fd181612f8c565b8114612fdc57600080fd5b50565b600081359050612fee81612fc8565b92915050565b6000806040838503121561300b5761300a612d89565b5b600061301985828601612fdf565b925050602061302a85828601612f2a565b9150509250929050565b61303d81612f09565b82525050565b60006020820190506130586000830184613034565b92915050565b60008060006060848603121561307757613076612d89565b5b600061308586828701612fdf565b935050602061309686828701612fdf565b92505060406130a786828701612f2a565b9150509250925092565b600081519050919050565b600082825260208201905092915050565b6000819050602082019050919050565b6130e681612f09565b82525050565b60006130f782612f6c565b9050919050565b613107816130ec565b82525050565b61311681612e18565b82525050565b60a08201600082015161313260008501826130dd565b50602082015161314560208501826130fe565b50604082015161315860408501826130fe565b50606082015161316b60608501826130dd565b50608082015161317e608085018261310d565b50505050565b6000613190838361311c565b60a08301905092915050565b6000602082019050919050565b60006131b4826130b1565b6131be81856130bc565b93506131c9836130cd565b8060005b838110156131fa5781516131e18882613184565b97506131ec8361319c565b9250506001810190506131cd565b5085935050505092915050565b6000602082019050818103600083015261322181846131a9565b905092915050565b600081519050919050565b600082825260208201905092915050565b6000819050602082019050919050565b61325e81612f8c565b82525050565b60006132708383613255565b60208301905092915050565b6000602082019050919050565b600061329482613229565b61329e8185613234565b93506132a983613245565b8060005b838110156132da5781516132c18882613264565b97506132cc8361327c565b9250506001810190506132ad565b5085935050505092915050565b600060208201905081810360008301526133018184613289565b905092915050565b60006020828403121561331f5761331e612d89565b5b600061332d84828501612fdf565b91505092915050565b600080fd5b600080fd5b7f4e487b7100000000000000000000000000000000000000000000000000000000600052604160045260246000fd5b61337882612e9d565b810181811067ffffffffffffffff8211171561339757613396613340565b5b80604052505050565b60006133aa612d7f565b90506133b6828261336f565b919050565b600067ffffffffffffffff8211156133d6576133d5613340565b5b6133df82612e9d565b9050602081019050919050565b82818337600083830152505050565b600061340e613409846133bb565b6133a0565b90508281526020810184848401111561342a5761342961333b565b5b6134358482856133ec565b509392505050565b600082601f83011261345257613451613336565b5b81356134628482602086016133fb565b91505092915050565b6000806040838503121561348257613481612d89565b5b600083013567ffffffffffffffff8111156134a05761349f612d8e565b5b6134ac8582860161343d565b92505060206134bd85828601612f2a565b9150509250929050565b600080604083850312156134de576134dd612d89565b5b60006134ec85828601612f2a565b92505060206134fd85828601612f2a565b9150509250929050565b61351081612e18565b811461351b57600080fd5b50565b60008135905061352d81613507565b92915050565b6000806040838503121561354a57613549612d89565b5b600061355885828601612fdf565b92505060206135698582860161351e565b9150509250929050565b600067ffffffffffffffff82111561358e5761358d613340565b5b61359782612e9d565b9050602081019050919050565b60006135b76135b284613573565b6133a0565b9050828152602081018484840111156135d3576135d261333b565b5b6135de8482856133ec565b509392505050565b600082601f8301126135fb576135fa613336565b5b813561360b8482602086016135a4565b91505092915050565b6000806000806080858703121561362e5761362d612d89565b5b600061363c87828801612fdf565b945050602061364d87828801612fdf565b935050604061365e87828801612f2a565b925050606085013567ffffffffffffffff81111561367f5761367e612d8e565b5b61368b878288016135e6565b91505092959194509250565b600080604083850312156136ae576136ad612d89565b5b60006136bc85828601612fdf565b92505060206136cd85828601612fdf565b9150509250929050565b7f4e487b7100000000000000000000000000000000000000000000000000000000600052602260045260246000fd5b6000600282049050600182168061371e57607f821691505b60208210811415613732576137316136d7565b5b50919050565b7f4552433732313a20617070726f76616c20746f2063757272656e74206f776e6560008201527f7200000000000000000000000000000000000000000000000000000000000000602082015250565b6000613794602183612e59565b915061379f82613738565b604082019050919050565b600060208201905081810360008301526137c381613787565b9050919050565b7f4552433732313a20617070726f76652063616c6c6572206973206e6f7420746f60008201527f6b656e206f776e6572206f7220617070726f76656420666f7220616c6c000000602082015250565b6000613826603d83612e59565b9150613831826137ca565b604082019050919050565b6000602082019050818103600083015261385581613819565b9050919050565b7f4552433732313a2063616c6c6572206973206e6f7420746f6b656e206f776e6560008201527f72206f7220617070726f76656400000000000000000000000000000000000000602082015250565b60006138b8602d83612e59565b91506138c38261385c565b604082019050919050565b600060208201905081810360008301526138e7816138ab565b9050919050565b7f4e487b7100000000000000000000000000000000000000000000000000000000600052601160045260246000fd5b600061392882612f09565b915061393383612f09565b9250827fffffffffffffffffffffffffffffffffffffffffffffffffffffffffffffffff03821115613968576139676138ee565b5b828201905092915050565b600061397e82612f09565b91507fffffffffffffffffffffffffffffffffffffffffffffffffffffffffffffffff8214156139b1576139b06138ee565b5b600182019050919050565b7f4e487b7100000000000000000000000000000000000000000000000000000000600052603260045260246000fd5b7f4552433732313a20696e76616c696420746f6b656e2049440000000000000000600082015250565b6000613a21601883612e59565b9150613a2c826139eb565b602082019050919050565b60006020820190508181036000830152613a5081613a14565b9050919050565b7f4552433732313a2061646472657373207a65726f206973206e6f74206120766160008201527f6c6964206f776e65720000000000000000000000000000000000000000000000602082015250565b6000613ab3602983612e59565b9150613abe82613a57565b604082019050919050565b60006020820190508181036000830152613ae281613aa6565b9050919050565b7f4f6e6c79206f776e65722063616e2073656c6c20746869730000000000000000600082015250565b6000613b1f601883612e59565b9150613b2a82613ae9565b602082019050919050565b60006020820190508181036000830152613b4e81613b12565b9050919050565b7f5072696365206d75737420626520657175616c20746f206c697374696e67207060008201527f7269636500000000000000000000000000000000000000000000000000000000602082015250565b6000613bb1602483612e59565b9150613bbc82613b55565b604082019050919050565b60006020820190508181036000830152613be081613ba4565b9050919050565b6000613bf282612f09565b9150613bfd83612f09565b925082821015613c1057613c0f6138ee565b5b828203905092915050565b7f4f6e6c79206f776e65722063616e206368616e676520746865206c697374696e60008201527f6720707269636500000000000000000000000000000000000000000000000000602082015250565b6000613c77602783612e59565b9150613c8282613c1b565b604082019050919050565b60006020820190508181036000830152613ca681613c6a565b9050919050565b7f506c65617365207375626d6974207468652061736b696e67207072696365206960008201527f6e206f7264657220746f20636f6d706c65746520746865207472616e7361637460208201527f696f6e0000000000000000000000000000000000000000000000000000000000604082015250565b6000613d2f604383612e59565b9150613d3a82613cad565b606082019050919050565b60006020820190508181036000830152613d5e81613d22565b9050919050565b600081905092915050565b6000613d7b82612e4e565b613d858185613d65565b9350613d95818560208601612e6a565b80840191505092915050565b6000613dad8285613d70565b9150613db98284613d70565b91508190509392505050565b7f4552433732313a207472616e736665722066726f6d20696e636f72726563742060008201527f6f776e6572000000000000000000000000000000000000000000000000000000602082015250565b6000613e21602583612e59565b9150613e2c82613dc5565b604082019050919050565b60006020820190508181036000830152613e5081613e14565b9050919050565b7f4552433732313a207472616e7366657220746f20746865207a65726f2061646460008201527f7265737300000000000000000000000000000000000000000000000000000000602082015250565b6000613eb3602483612e59565b9150613ebe82613e57565b604082019050919050565b60006020820190508181036000830152613ee281613ea6565b9050919050565b7f4552433732313a206d696e7420746f20746865207a65726f2061646472657373600082015250565b6000613f1f602083612e59565b9150613f2a82613ee9565b602082019050919050565b60006020820190508181036000830152613f4e81613f12565b9050919050565b7f4552433732313a20746f6b656e20616c7265616479206d696e74656400000000600082015250565b6000613f8b601c83612e59565b9150613f9682613f55565b602082019050919050565b60006020820190508181036000830152613fba81613f7e565b9050919050565b7f45524337323155524953746f726167653a2055524920736574206f66206e6f6e60008201527f6578697374656e7420746f6b656e000000000000000000000000000000000000602082015250565b600061401d602e83612e59565b915061402882613fc1565b604082019050919050565b6000602082019050818103600083015261404c81614010565b9050919050565b7f5072696365206d757374206265206174206c6561737420310000000000000000600082015250565b6000614089601883612e59565b915061409482614053565b602082019050919050565b600060208201905081810360008301526140b88161407c565b9050919050565b60006060820190506140d46000830186612f9e565b6140e16020830185612e24565b81810360408301526140f38184612eae565b9050949350505050565b7f436f756e7465723a2064656372656d656e74206f766572666c6f770000000000600082015250565b6000614133601b83612e59565b915061413e826140fd565b602082019050919050565b6000602082019050818103600083015261416281614126565b9050919050565b7f4552433732313a20617070726f766520746f2063616c6c657200000000000000600082015250565b600061419f601983612e59565b91506141aa82614169565b602082019050919050565b600060208201905081810360008301526141ce81614192565b9050919050565b7f4552433732313a207472616e7366657220746f206e6f6e20455243373231526560008201527f63656976657220696d706c656d656e7465720000000000000000000000000000602082015250565b6000614231603283612e59565b915061423c826141d5565b604082019050919050565b6000602082019050818103600083015261426081614224565b9050919050565b600081519050919050565b600082825260208201905092915050565b600061428e82614267565b6142988185614272565b93506142a8818560208601612e6a565b6142b181612e9d565b840191505092915050565b60006080820190506142d16000830187612f9e565b6142de6020830186612f9e565b6142eb6040830185613034565b81810360608301526142fd8184614283565b905095945050505050565b60008151905061431781612dbf565b92915050565b60006020828403121561433357614332612d89565b5b600061434184828501614308565b91505092915050565b7f4e487b7100000000000000000000000000000000000000000000000000000000600052601260045260246000fdfea2646970667358221220e38bb54c47195026d279b315b1e813847f3af8054c4a166fcd2e5e8bd20dd6d864736f6c63430008090033",
  "linkReferences": {},
  "deployedLinkReferences": {}
}